{
	"smart-contracts/FileIntegrityRegistry.sol": {
		"FileIntegrityRegistry": {
			"abi": [
				{
					"inputs": [
						{
							"internalType": "address",
							"name": "_storageOwner",
							"type": "address"
						},
						{
							"internalType": "address",
							"name": "_factory",
							"type": "address"
						}
					],
					"stateMutability": "nonpayable",
					"type": "constructor"
				},
				{
					"inputs": [],
					"name": "AlreadyAuthorized",
					"type": "error"
				},
				{
					"inputs": [],
					"name": "CannotRevokeOwnerAccess",
					"type": "error"
				},
				{
					"inputs": [],
					"name": "DescriptionTooLong",
					"type": "error"
				},
				{
					"inputs": [],
					"name": "EmptyCID",
					"type": "error"
				},
				{
					"inputs": [],
					"name": "EmptyHash",
					"type": "error"
				},
				{
					"inputs": [],
					"name": "EmptyName",
					"type": "error"
				},
				{
					"inputs": [],
					"name": "FileDoesNotExist",
					"type": "error"
				},
				{
					"inputs": [],
					"name": "InvalidAddress",
					"type": "error"
				},
				{
					"inputs": [],
					"name": "NameTooLong",
					"type": "error"
				},
				{
					"inputs": [],
					"name": "NoAccess",
					"type": "error"
				},
				{
					"inputs": [],
					"name": "UserNotAuthorized",
					"type": "error"
				},
				{
					"inputs": [],
					"name": "VersionDoesNotExist",
					"type": "error"
				},
				{
					"anonymous": false,
					"inputs": [
						{
							"indexed": true,
							"internalType": "address",
							"name": "user",
							"type": "address"
						}
					],
					"name": "EditorAccessGranted",
					"type": "event"
				},
				{
					"anonymous": false,
					"inputs": [
						{
							"indexed": true,
							"internalType": "address",
							"name": "user",
							"type": "address"
						}
					],
					"name": "EditorAccessRevoked",
					"type": "event"
				},
				{
					"anonymous": false,
					"inputs": [
						{
							"indexed": true,
							"internalType": "uint256",
							"name": "fileId",
							"type": "uint256"
						},
						{
							"indexed": true,
							"internalType": "uint256",
							"name": "versionNumber",
							"type": "uint256"
						},
						{
							"indexed": true,
							"internalType": "address",
							"name": "userAddress",
							"type": "address"
						},
						{
							"indexed": false,
							"internalType": "string",
							"name": "name",
							"type": "string"
						},
						{
							"indexed": false,
							"internalType": "string",
							"name": "description",
							"type": "string"
						},
						{
							"indexed": false,
							"internalType": "uint256",
							"name": "size",
							"type": "uint256"
						},
						{
							"indexed": false,
							"internalType": "bytes32",
							"name": "fileHash",
							"type": "bytes32"
						},
						{
							"indexed": false,
							"internalType": "string",
							"name": "cid",
							"type": "string"
						}
					],
					"name": "FileCreated",
					"type": "event"
				},
				{
					"anonymous": false,
					"inputs": [
						{
							"indexed": true,
							"internalType": "uint256",
							"name": "fileId",
							"type": "uint256"
						},
						{
							"indexed": true,
							"internalType": "uint256",
							"name": "versionNumber",
							"type": "uint256"
						},
						{
							"indexed": true,
							"internalType": "address",
							"name": "userAddress",
							"type": "address"
						},
						{
							"indexed": false,
							"internalType": "uint256",
							"name": "size",
							"type": "uint256"
						},
						{
							"indexed": false,
							"internalType": "bytes32",
							"name": "fileHash",
							"type": "bytes32"
						},
						{
							"indexed": false,
							"internalType": "string",
							"name": "cid",
							"type": "string"
						}
					],
					"name": "FileVersionAdded",
					"type": "event"
				},
				{
					"inputs": [
						{
							"internalType": "uint256",
							"name": "_fileId",
							"type": "uint256"
						},
						{
							"internalType": "uint256",
							"name": "_size",
							"type": "uint256"
						},
						{
							"internalType": "bytes32",
							"name": "_fileHash",
							"type": "bytes32"
						},
						{
							"internalType": "string",
							"name": "_cid",
							"type": "string"
						}
					],
					"name": "addFileVersion",
					"outputs": [],
					"stateMutability": "nonpayable",
					"type": "function"
				},
				{
					"inputs": [
						{
							"internalType": "address",
							"name": "",
							"type": "address"
						}
					],
					"name": "authorizedUsers",
					"outputs": [
						{
							"internalType": "bool",
							"name": "",
							"type": "bool"
						}
					],
					"stateMutability": "view",
					"type": "function"
				},
				{
					"inputs": [
						{
							"internalType": "string",
							"name": "_name",
							"type": "string"
						},
						{
							"internalType": "string",
							"name": "_description",
							"type": "string"
						},
						{
							"internalType": "uint256",
							"name": "_size",
							"type": "uint256"
						},
						{
							"internalType": "bytes32",
							"name": "_fileHash",
							"type": "bytes32"
						},
						{
							"internalType": "string",
							"name": "_cid",
							"type": "string"
						}
					],
					"name": "createFile",
					"outputs": [],
					"stateMutability": "nonpayable",
					"type": "function"
				},
				{
					"inputs": [],
					"name": "factory",
					"outputs": [
						{
							"internalType": "address",
							"name": "",
							"type": "address"
						}
					],
					"stateMutability": "view",
					"type": "function"
				},
				{
					"inputs": [
						{
							"internalType": "uint256",
							"name": "_fileId",
							"type": "uint256"
						}
					],
					"name": "getFile",
					"outputs": [
						{
							"components": [
								{
									"internalType": "uint256",
									"name": "fileId",
									"type": "uint256"
								},
								{
									"internalType": "string",
									"name": "name",
									"type": "string"
								},
								{
									"internalType": "string",
									"name": "description",
									"type": "string"
								},
								{
									"internalType": "address",
									"name": "userAddress",
									"type": "address"
								},
								{
									"internalType": "uint256",
									"name": "latestVersionNumber",
									"type": "uint256"
								},
								{
									"internalType": "bool",
									"name": "exists",
									"type": "bool"
								}
							],
							"internalType": "struct File",
							"name": "",
							"type": "tuple"
						}
					],
					"stateMutability": "view",
					"type": "function"
				},
				{
					"inputs": [
						{
							"internalType": "uint256",
							"name": "_fileId",
							"type": "uint256"
						},
						{
							"internalType": "uint256",
							"name": "_versionNumber",
							"type": "uint256"
						}
					],
					"name": "getFileVersion",
					"outputs": [
						{
							"components": [
								{
									"internalType": "bytes32",
									"name": "fileHash",
									"type": "bytes32"
								},
								{
									"internalType": "string",
									"name": "cid",
									"type": "string"
								},
								{
									"internalType": "uint256",
									"name": "size",
									"type": "uint256"
								},
								{
									"internalType": "uint256",
									"name": "versionNumber",
									"type": "uint256"
								},
								{
									"internalType": "address",
									"name": "userAddress",
									"type": "address"
								}
							],
							"internalType": "struct FileVersion",
							"name": "",
							"type": "tuple"
						}
					],
					"stateMutability": "view",
					"type": "function"
				},
				{
					"inputs": [
						{
							"internalType": "address",
							"name": "user",
							"type": "address"
						}
					],
					"name": "grantEditorAccess",
					"outputs": [],
					"stateMutability": "nonpayable",
					"type": "function"
				},
				{
					"inputs": [],
					"name": "nextFileId",
					"outputs": [
						{
							"internalType": "uint256",
							"name": "",
							"type": "uint256"
						}
					],
					"stateMutability": "view",
					"type": "function"
				},
				{
					"inputs": [
						{
							"internalType": "address",
							"name": "user",
							"type": "address"
						}
					],
					"name": "revokeEditorAccess",
					"outputs": [],
					"stateMutability": "nonpayable",
					"type": "function"
				},
				{
					"inputs": [],
					"name": "storageOwner",
					"outputs": [
						{
							"internalType": "address",
							"name": "",
							"type": "address"
						}
					],
					"stateMutability": "view",
					"type": "function"
				}
			],
			"devdoc": {
				"kind": "dev",
				"methods": {},
				"version": 1
			},
			"evm": {
				"assembly": "    /* \"smart-contracts/FileIntegrityRegistry.sol\":493:5672  contract FileIntegrityRegistry {... */\n  mstore(0x40, 0xc0)\n    /* \"smart-contracts/FileIntegrityRegistry.sol\":1550:1551  1 */\n  0x01\n    /* \"smart-contracts/FileIntegrityRegistry.sol\":1522:1551  uint256 public nextFileId = 1 */\n  0x00\n  sstore\n    /* \"smart-contracts/FileIntegrityRegistry.sol\":1734:2000  constructor(address _storageOwner, address _factory) {... */\n  callvalue\n  dup1\n  iszero\n  tag_1\n  jumpi\n  revert(0x00, 0x00)\ntag_1:\n  pop\n  mload(0x40)\n  sub(codesize, bytecodeSize)\n  dup1\n  bytecodeSize\n  dup4\n  codecopy\n  dup2\n  dup2\n  add\n  0x40\n  mstore\n  dup2\n  add\n  swap1\n  tag_2\n  swap2\n  swap1\n  tag_3\n  jump\t// in\ntag_2:\n    /* \"smart-contracts/FileIntegrityRegistry.sol\":1826:1827  0 */\n  0x00\n    /* \"smart-contracts/FileIntegrityRegistry.sol\":1801:1828  _storageOwner == address(0) */\n  0xffffffffffffffffffffffffffffffffffffffff\n  and\n    /* \"smart-contracts/FileIntegrityRegistry.sol\":1801:1814  _storageOwner */\n  dup3\n    /* \"smart-contracts/FileIntegrityRegistry.sol\":1801:1828  _storageOwner == address(0) */\n  0xffffffffffffffffffffffffffffffffffffffff\n  and\n  eq\n    /* \"smart-contracts/FileIntegrityRegistry.sol\":1801:1854  _storageOwner == address(0) || _factory == address(0) */\n  dup1\n  tag_6\n  jumpi\n  pop\n    /* \"smart-contracts/FileIntegrityRegistry.sol\":1852:1853  0 */\n  0x00\n    /* \"smart-contracts/FileIntegrityRegistry.sol\":1832:1854  _factory == address(0) */\n  0xffffffffffffffffffffffffffffffffffffffff\n  and\n    /* \"smart-contracts/FileIntegrityRegistry.sol\":1832:1840  _factory */\n  dup2\n    /* \"smart-contracts/FileIntegrityRegistry.sol\":1832:1854  _factory == address(0) */\n  0xffffffffffffffffffffffffffffffffffffffff\n  and\n  eq\n    /* \"smart-contracts/FileIntegrityRegistry.sol\":1801:1854  _storageOwner == address(0) || _factory == address(0) */\ntag_6:\n    /* \"smart-contracts/FileIntegrityRegistry.sol\":1797:1879  if (_storageOwner == address(0) || _factory == address(0)) revert InvalidAddress() */\n  iszero\n  tag_7\n  jumpi\n    /* \"smart-contracts/FileIntegrityRegistry.sol\":1863:1879  InvalidAddress() */\n  mload(0x40)\n  0xe6c4247b00000000000000000000000000000000000000000000000000000000\n  dup2\n  mstore\n  0x04\n  add\n  mload(0x40)\n  dup1\n  swap2\n  sub\n  swap1\n  revert\n    /* \"smart-contracts/FileIntegrityRegistry.sol\":1797:1879  if (_storageOwner == address(0) || _factory == address(0)) revert InvalidAddress() */\ntag_7:\n    /* \"smart-contracts/FileIntegrityRegistry.sol\":1905:1918  _storageOwner */\n  dup2\n    /* \"smart-contracts/FileIntegrityRegistry.sol\":1890:1918  storageOwner = _storageOwner */\n  0xffffffffffffffffffffffffffffffffffffffff\n  and\n  0x80\n  dup2\n  0xffffffffffffffffffffffffffffffffffffffff\n  and\n  dup2\n  mstore\n  pop\n  pop\n    /* \"smart-contracts/FileIntegrityRegistry.sol\":1938:1946  _factory */\n  dup1\n    /* \"smart-contracts/FileIntegrityRegistry.sol\":1928:1946  factory = _factory */\n  0xffffffffffffffffffffffffffffffffffffffff\n  and\n  0xa0\n  dup2\n  0xffffffffffffffffffffffffffffffffffffffff\n  and\n  dup2\n  mstore\n  pop\n  pop\n    /* \"smart-contracts/FileIntegrityRegistry.sol\":1989:1993  true */\n  0x01\n    /* \"smart-contracts/FileIntegrityRegistry.sol\":1956:1971  authorizedUsers */\n  0x03\n    /* \"smart-contracts/FileIntegrityRegistry.sol\":1956:1986  authorizedUsers[_storageOwner] */\n  0x00\n    /* \"smart-contracts/FileIntegrityRegistry.sol\":1972:1985  _storageOwner */\n  dup5\n    /* \"smart-contracts/FileIntegrityRegistry.sol\":1956:1986  authorizedUsers[_storageOwner] */\n  0xffffffffffffffffffffffffffffffffffffffff\n  and\n  0xffffffffffffffffffffffffffffffffffffffff\n  and\n  dup2\n  mstore\n  0x20\n  add\n  swap1\n  dup2\n  mstore\n  0x20\n  add\n  0x00\n  keccak256\n  0x00\n    /* \"smart-contracts/FileIntegrityRegistry.sol\":1956:1993  authorizedUsers[_storageOwner] = true */\n  0x0100\n  exp\n  dup2\n  sload\n  dup2\n  0xff\n  mul\n  not\n  and\n  swap1\n  dup4\n  iszero\n  iszero\n  mul\n  or\n  swap1\n  sstore\n  pop\n    /* \"smart-contracts/FileIntegrityRegistry.sol\":1734:2000  constructor(address _storageOwner, address _factory) {... */\n  pop\n  pop\n    /* \"smart-contracts/FileIntegrityRegistry.sol\":493:5672  contract FileIntegrityRegistry {... */\n  jump(tag_8)\n    /* \"#utility.yul\":88:205   */\ntag_10:\n    /* \"#utility.yul\":197:198   */\n  0x00\n    /* \"#utility.yul\":194:195   */\n  0x00\n    /* \"#utility.yul\":187:199   */\n  revert\n    /* \"#utility.yul\":334:460   */\ntag_12:\n    /* \"#utility.yul\":371:378   */\n  0x00\n    /* \"#utility.yul\":411:453   */\n  0xffffffffffffffffffffffffffffffffffffffff\n    /* \"#utility.yul\":404:409   */\n  dup3\n    /* \"#utility.yul\":400:454   */\n  and\n    /* \"#utility.yul\":389:454   */\n  swap1\n  pop\n    /* \"#utility.yul\":334:460   */\n  swap2\n  swap1\n  pop\n  jump\t// out\n    /* \"#utility.yul\":466:562   */\ntag_13:\n    /* \"#utility.yul\":503:510   */\n  0x00\n    /* \"#utility.yul\":532:556   */\n  tag_22\n    /* \"#utility.yul\":550:555   */\n  dup3\n    /* \"#utility.yul\":532:556   */\n  tag_12\n  jump\t// in\ntag_22:\n    /* \"#utility.yul\":521:556   */\n  swap1\n  pop\n    /* \"#utility.yul\":466:562   */\n  swap2\n  swap1\n  pop\n  jump\t// out\n    /* \"#utility.yul\":568:690   */\ntag_14:\n    /* \"#utility.yul\":641:665   */\n  tag_24\n    /* \"#utility.yul\":659:664   */\n  dup2\n    /* \"#utility.yul\":641:665   */\n  tag_13\n  jump\t// in\ntag_24:\n    /* \"#utility.yul\":634:639   */\n  dup2\n    /* \"#utility.yul\":631:666   */\n  eq\n    /* \"#utility.yul\":621:684   */\n  tag_25\n  jumpi\n    /* \"#utility.yul\":680:681   */\n  0x00\n    /* \"#utility.yul\":677:678   */\n  0x00\n    /* \"#utility.yul\":670:682   */\n  revert\n    /* \"#utility.yul\":621:684   */\ntag_25:\n    /* \"#utility.yul\":568:690   */\n  pop\n  jump\t// out\n    /* \"#utility.yul\":696:839   */\ntag_15:\n    /* \"#utility.yul\":753:758   */\n  0x00\n    /* \"#utility.yul\":784:790   */\n  dup2\n    /* \"#utility.yul\":778:791   */\n  mload\n    /* \"#utility.yul\":769:791   */\n  swap1\n  pop\n    /* \"#utility.yul\":800:833   */\n  tag_27\n    /* \"#utility.yul\":827:832   */\n  dup2\n    /* \"#utility.yul\":800:833   */\n  tag_14\n  jump\t// in\ntag_27:\n    /* \"#utility.yul\":696:839   */\n  swap3\n  swap2\n  pop\n  pop\n  jump\t// out\n    /* \"#utility.yul\":845:1352   */\ntag_3:\n    /* \"#utility.yul\":924:930   */\n  0x00\n    /* \"#utility.yul\":932:938   */\n  0x00\n    /* \"#utility.yul\":981:983   */\n  0x40\n    /* \"#utility.yul\":969:978   */\n  dup4\n    /* \"#utility.yul\":960:967   */\n  dup6\n    /* \"#utility.yul\":956:979   */\n  sub\n    /* \"#utility.yul\":952:984   */\n  slt\n    /* \"#utility.yul\":949:1068   */\n  iszero\n  tag_29\n  jumpi\n    /* \"#utility.yul\":987:1066   */\n  tag_30\n  tag_10\n  jump\t// in\ntag_30:\n    /* \"#utility.yul\":949:1068   */\ntag_29:\n    /* \"#utility.yul\":1107:1108   */\n  0x00\n    /* \"#utility.yul\":1132:1196   */\n  tag_31\n    /* \"#utility.yul\":1188:1195   */\n  dup6\n    /* \"#utility.yul\":1179:1185   */\n  dup3\n    /* \"#utility.yul\":1168:1177   */\n  dup7\n    /* \"#utility.yul\":1164:1186   */\n  add\n    /* \"#utility.yul\":1132:1196   */\n  tag_15\n  jump\t// in\ntag_31:\n    /* \"#utility.yul\":1122:1196   */\n  swap3\n  pop\n    /* \"#utility.yul\":1078:1206   */\n  pop\n    /* \"#utility.yul\":1245:1247   */\n  0x20\n    /* \"#utility.yul\":1271:1335   */\n  tag_32\n    /* \"#utility.yul\":1327:1334   */\n  dup6\n    /* \"#utility.yul\":1318:1324   */\n  dup3\n    /* \"#utility.yul\":1307:1316   */\n  dup7\n    /* \"#utility.yul\":1303:1325   */\n  add\n    /* \"#utility.yul\":1271:1335   */\n  tag_15\n  jump\t// in\ntag_32:\n    /* \"#utility.yul\":1261:1335   */\n  swap2\n  pop\n    /* \"#utility.yul\":1216:1345   */\n  pop\n    /* \"#utility.yul\":845:1352   */\n  swap3\n  pop\n  swap3\n  swap1\n  pop\n  jump\t// out\n    /* \"smart-contracts/FileIntegrityRegistry.sol\":493:5672  contract FileIntegrityRegistry {... */\ntag_8:\n  mload(0x80)\n  mload(0xa0)\n  codecopy(0x00, dataOffset(sub_0), dataSize(sub_0))\n  0x00\n  assignImmutable(\"0x2e5129c19be59da29ff89133759e8d7e21d926bf22eda9cdfd27c0cd8774b8c2\")\n  0x00\n  assignImmutable(\"0x2a9063ed52b7d417e441f378325359c9ce274f5d6c3ecf11b7d42f24b9c90b7f\")\n  return(0x00, dataSize(sub_0))\nstop\n\nsub_0: assembly {\n        /* \"smart-contracts/FileIntegrityRegistry.sol\":493:5672  contract FileIntegrityRegistry {... */\n      mstore(0x40, 0x80)\n      callvalue\n      dup1\n      iszero\n      tag_1\n      jumpi\n      revert(0x00, 0x00)\n    tag_1:\n      pop\n      jumpi(tag_2, lt(calldatasize, 0x04))\n      shr(0xe0, calldataload(0x00))\n      dup1\n      0x4935e326\n      gt\n      tag_13\n      jumpi\n      dup1\n      0x4935e326\n      eq\n      tag_8\n      jumpi\n      dup1\n      0x81fd552f\n      eq\n      tag_9\n      jumpi\n      dup1\n      0x89b83a9b\n      eq\n      tag_10\n      jumpi\n      dup1\n      0xc45a0155\n      eq\n      tag_11\n      jumpi\n      dup1\n      0xcf04ff9f\n      eq\n      tag_12\n      jumpi\n      jump(tag_2)\n    tag_13:\n      dup1\n      0x04076482\n      eq\n      tag_3\n      jumpi\n      dup1\n      0x1828983a\n      eq\n      tag_4\n      jumpi\n      dup1\n      0x196bed7f\n      eq\n      tag_5\n      jumpi\n      dup1\n      0x2822853a\n      eq\n      tag_6\n      jumpi\n      dup1\n      0x2bfda313\n      eq\n      tag_7\n      jumpi\n    tag_2:\n      revert(0x00, 0x00)\n        /* \"smart-contracts/FileIntegrityRegistry.sol\":2221:2559  function grantEditorAccess(address user) external onlyOwner {... */\n    tag_3:\n      tag_14\n      0x04\n      dup1\n      calldatasize\n      sub\n      dup2\n      add\n      swap1\n      tag_15\n      swap2\n      swap1\n      tag_16\n      jump\t// in\n    tag_15:\n      tag_17\n      jump\t// in\n    tag_14:\n      stop\n        /* \"smart-contracts/FileIntegrityRegistry.sol\":1680:1727  mapping(address => bool) public authorizedUsers */\n    tag_4:\n      tag_18\n      0x04\n      dup1\n      calldatasize\n      sub\n      dup2\n      add\n      swap1\n      tag_19\n      swap2\n      swap1\n      tag_16\n      jump\t// in\n    tag_19:\n      tag_20\n      jump\t// in\n    tag_18:\n      mload(0x40)\n      tag_21\n      swap2\n      swap1\n      tag_22\n      jump\t// in\n    tag_21:\n      mload(0x40)\n      dup1\n      swap2\n      sub\n      swap1\n      return\n        /* \"smart-contracts/FileIntegrityRegistry.sol\":2923:4218  function createFile(... */\n    tag_5:\n      tag_23\n      0x04\n      dup1\n      calldatasize\n      sub\n      dup2\n      add\n      swap1\n      tag_24\n      swap2\n      swap1\n      tag_25\n      jump\t// in\n    tag_24:\n      tag_26\n      jump\t// in\n    tag_23:\n      stop\n        /* \"smart-contracts/FileIntegrityRegistry.sol\":2565:2917  function revokeEditorAccess(address user) external onlyOwner {... */\n    tag_6:\n      tag_27\n      0x04\n      dup1\n      calldatasize\n      sub\n      dup2\n      add\n      swap1\n      tag_28\n      swap2\n      swap1\n      tag_16\n      jump\t// in\n    tag_28:\n      tag_29\n      jump\t// in\n    tag_27:\n      stop\n        /* \"smart-contracts/FileIntegrityRegistry.sol\":5096:5267  function getFile(uint256 _fileId) external view returns (File memory) {... */\n    tag_7:\n      tag_30\n      0x04\n      dup1\n      calldatasize\n      sub\n      dup2\n      add\n      swap1\n      tag_31\n      swap2\n      swap1\n      tag_32\n      jump\t// in\n    tag_31:\n      tag_33\n      jump\t// in\n    tag_30:\n      mload(0x40)\n      tag_34\n      swap2\n      swap1\n      tag_35\n      jump\t// in\n    tag_34:\n      mload(0x40)\n      dup1\n      swap2\n      sub\n      swap1\n      return\n        /* \"smart-contracts/FileIntegrityRegistry.sol\":4224:5090  function addFileVersion(... */\n    tag_8:\n      tag_36\n      0x04\n      dup1\n      calldatasize\n      sub\n      dup2\n      add\n      swap1\n      tag_37\n      swap2\n      swap1\n      tag_38\n      jump\t// in\n    tag_37:\n      tag_39\n      jump\t// in\n    tag_36:\n      stop\n        /* \"smart-contracts/FileIntegrityRegistry.sol\":1441:1478  address public immutable storageOwner */\n    tag_9:\n      tag_40\n      tag_41\n      jump\t// in\n    tag_40:\n      mload(0x40)\n      tag_42\n      swap2\n      swap1\n      tag_43\n      jump\t// in\n    tag_42:\n      mload(0x40)\n      dup1\n      swap2\n      sub\n      swap1\n      return\n        /* \"smart-contracts/FileIntegrityRegistry.sol\":1522:1551  uint256 public nextFileId = 1 */\n    tag_10:\n      tag_44\n      tag_45\n      jump\t// in\n    tag_44:\n      mload(0x40)\n      tag_46\n      swap2\n      swap1\n      tag_47\n      jump\t// in\n    tag_46:\n      mload(0x40)\n      dup1\n      swap2\n      sub\n      swap1\n      return\n        /* \"smart-contracts/FileIntegrityRegistry.sol\":1484:1516  address public immutable factory */\n    tag_11:\n      tag_48\n      tag_49\n      jump\t// in\n    tag_48:\n      mload(0x40)\n      tag_50\n      swap2\n      swap1\n      tag_43\n      jump\t// in\n    tag_50:\n      mload(0x40)\n      dup1\n      swap2\n      sub\n      swap1\n      return\n        /* \"smart-contracts/FileIntegrityRegistry.sol\":5273:5670  function getFileVersion(... */\n    tag_12:\n      tag_51\n      0x04\n      dup1\n      calldatasize\n      sub\n      dup2\n      add\n      swap1\n      tag_52\n      swap2\n      swap1\n      tag_53\n      jump\t// in\n    tag_52:\n      tag_54\n      jump\t// in\n    tag_51:\n      mload(0x40)\n      tag_55\n      swap2\n      swap1\n      tag_56\n      jump\t// in\n    tag_55:\n      mload(0x40)\n      dup1\n      swap2\n      sub\n      swap1\n      return\n        /* \"smart-contracts/FileIntegrityRegistry.sol\":2221:2559  function grantEditorAccess(address user) external onlyOwner {... */\n    tag_17:\n        /* \"smart-contracts/FileIntegrityRegistry.sol\":2055:2067  storageOwner */\n      immutable(\"0x2a9063ed52b7d417e441f378325359c9ce274f5d6c3ecf11b7d42f24b9c90b7f\")\n        /* \"smart-contracts/FileIntegrityRegistry.sol\":2041:2067  msg.sender != storageOwner */\n      0xffffffffffffffffffffffffffffffffffffffff\n      and\n        /* \"smart-contracts/FileIntegrityRegistry.sol\":2041:2051  msg.sender */\n      caller\n        /* \"smart-contracts/FileIntegrityRegistry.sol\":2041:2067  msg.sender != storageOwner */\n      0xffffffffffffffffffffffffffffffffffffffff\n      and\n      eq\n        /* \"smart-contracts/FileIntegrityRegistry.sol\":2037:2086  if (msg.sender != storageOwner) revert NoAccess() */\n      tag_58\n      jumpi\n        /* \"smart-contracts/FileIntegrityRegistry.sol\":2076:2086  NoAccess() */\n      mload(0x40)\n      0x2c1a75e200000000000000000000000000000000000000000000000000000000\n      dup2\n      mstore\n      0x04\n      add\n      mload(0x40)\n      dup1\n      swap2\n      sub\n      swap1\n      revert\n        /* \"smart-contracts/FileIntegrityRegistry.sol\":2037:2086  if (msg.sender != storageOwner) revert NoAccess() */\n    tag_58:\n        /* \"smart-contracts/FileIntegrityRegistry.sol\":2311:2312  0 */\n      0x00\n        /* \"smart-contracts/FileIntegrityRegistry.sol\":2295:2313  user == address(0) */\n      0xffffffffffffffffffffffffffffffffffffffff\n      and\n        /* \"smart-contracts/FileIntegrityRegistry.sol\":2295:2299  user */\n      dup2\n        /* \"smart-contracts/FileIntegrityRegistry.sol\":2295:2313  user == address(0) */\n      0xffffffffffffffffffffffffffffffffffffffff\n      and\n      sub\n        /* \"smart-contracts/FileIntegrityRegistry.sol\":2291:2338  if (user == address(0)) revert InvalidAddress() */\n      tag_60\n      jumpi\n        /* \"smart-contracts/FileIntegrityRegistry.sol\":2322:2338  InvalidAddress() */\n      mload(0x40)\n      0xe6c4247b00000000000000000000000000000000000000000000000000000000\n      dup2\n      mstore\n      0x04\n      add\n      mload(0x40)\n      dup1\n      swap2\n      sub\n      swap1\n      revert\n        /* \"smart-contracts/FileIntegrityRegistry.sol\":2291:2338  if (user == address(0)) revert InvalidAddress() */\n    tag_60:\n        /* \"smart-contracts/FileIntegrityRegistry.sol\":2352:2367  authorizedUsers */\n      0x03\n        /* \"smart-contracts/FileIntegrityRegistry.sol\":2352:2373  authorizedUsers[user] */\n      0x00\n        /* \"smart-contracts/FileIntegrityRegistry.sol\":2368:2372  user */\n      dup3\n        /* \"smart-contracts/FileIntegrityRegistry.sol\":2352:2373  authorizedUsers[user] */\n      0xffffffffffffffffffffffffffffffffffffffff\n      and\n      0xffffffffffffffffffffffffffffffffffffffff\n      and\n      dup2\n      mstore\n      0x20\n      add\n      swap1\n      dup2\n      mstore\n      0x20\n      add\n      0x00\n      keccak256\n      0x00\n      swap1\n      sload\n      swap1\n      0x0100\n      exp\n      swap1\n      div\n      0xff\n      and\n        /* \"smart-contracts/FileIntegrityRegistry.sol\":2348:2401  if (authorizedUsers[user]) revert AlreadyAuthorized() */\n      iszero\n      tag_61\n      jumpi\n        /* \"smart-contracts/FileIntegrityRegistry.sol\":2382:2401  AlreadyAuthorized() */\n      mload(0x40)\n      0x6027d27e00000000000000000000000000000000000000000000000000000000\n      dup2\n      mstore\n      0x04\n      add\n      mload(0x40)\n      dup1\n      swap2\n      sub\n      swap1\n      revert\n        /* \"smart-contracts/FileIntegrityRegistry.sol\":2348:2401  if (authorizedUsers[user]) revert AlreadyAuthorized() */\n    tag_61:\n        /* \"smart-contracts/FileIntegrityRegistry.sol\":2436:2440  true */\n      0x01\n        /* \"smart-contracts/FileIntegrityRegistry.sol\":2412:2427  authorizedUsers */\n      0x03\n        /* \"smart-contracts/FileIntegrityRegistry.sol\":2412:2433  authorizedUsers[user] */\n      0x00\n        /* \"smart-contracts/FileIntegrityRegistry.sol\":2428:2432  user */\n      dup4\n        /* \"smart-contracts/FileIntegrityRegistry.sol\":2412:2433  authorizedUsers[user] */\n      0xffffffffffffffffffffffffffffffffffffffff\n      and\n      0xffffffffffffffffffffffffffffffffffffffff\n      and\n      dup2\n      mstore\n      0x20\n      add\n      swap1\n      dup2\n      mstore\n      0x20\n      add\n      0x00\n      keccak256\n      0x00\n        /* \"smart-contracts/FileIntegrityRegistry.sol\":2412:2440  authorizedUsers[user] = true */\n      0x0100\n      exp\n      dup2\n      sload\n      dup2\n      0xff\n      mul\n      not\n      and\n      swap1\n      dup4\n      iszero\n      iszero\n      mul\n      or\n      swap1\n      sstore\n      pop\n        /* \"smart-contracts/FileIntegrityRegistry.sol\":2481:2488  factory */\n      immutable(\"0x2e5129c19be59da29ff89133759e8d7e21d926bf22eda9cdfd27c0cd8774b8c2\")\n        /* \"smart-contracts/FileIntegrityRegistry.sol\":2451:2505  IFileIntegrityRegistryFactory(factory).onAccessGranted */\n      0xffffffffffffffffffffffffffffffffffffffff\n      and\n      0xeb02051f\n        /* \"smart-contracts/FileIntegrityRegistry.sol\":2506:2510  user */\n      dup3\n        /* \"smart-contracts/FileIntegrityRegistry.sol\":2451:2511  IFileIntegrityRegistryFactory(factory).onAccessGranted(user) */\n      mload(0x40)\n      dup3\n      0xffffffff\n      and\n      0xe0\n      shl\n      dup2\n      mstore\n      0x04\n      add\n      tag_62\n      swap2\n      swap1\n      tag_43\n      jump\t// in\n    tag_62:\n      0x00\n      mload(0x40)\n      dup1\n      dup4\n      sub\n      dup2\n      0x00\n      dup8\n      dup1\n      extcodesize\n      iszero\n      dup1\n      iszero\n      tag_63\n      jumpi\n      revert(0x00, 0x00)\n    tag_63:\n      pop\n      gas\n      call\n      iszero\n      dup1\n      iszero\n      tag_65\n      jumpi\n      returndatacopy(0x00, 0x00, returndatasize)\n      revert(0x00, returndatasize)\n    tag_65:\n      pop\n      pop\n      pop\n      pop\n        /* \"smart-contracts/FileIntegrityRegistry.sol\":2547:2551  user */\n      dup1\n        /* \"smart-contracts/FileIntegrityRegistry.sol\":2527:2552  EditorAccessGranted(user) */\n      0xffffffffffffffffffffffffffffffffffffffff\n      and\n      0x850482b9ceba86c8675400bfd35d4b6a92f7a27e0505e2243ba0a1b61302102c\n      mload(0x40)\n      mload(0x40)\n      dup1\n      swap2\n      sub\n      swap1\n      log2\n        /* \"smart-contracts/FileIntegrityRegistry.sol\":2221:2559  function grantEditorAccess(address user) external onlyOwner {... */\n      pop\n      jump\t// out\n        /* \"smart-contracts/FileIntegrityRegistry.sol\":1680:1727  mapping(address => bool) public authorizedUsers */\n    tag_20:\n      mstore(0x20, 0x03)\n      dup1\n      0x00\n      mstore\n      keccak256(0x00, 0x40)\n      0x00\n      swap2\n      pop\n      sload\n      swap1\n      0x0100\n      exp\n      swap1\n      div\n      0xff\n      and\n      dup2\n      jump\t// out\n        /* \"smart-contracts/FileIntegrityRegistry.sol\":2923:4218  function createFile(... */\n    tag_26:\n        /* \"smart-contracts/FileIntegrityRegistry.sol\":2151:2166  authorizedUsers */\n      0x03\n        /* \"smart-contracts/FileIntegrityRegistry.sol\":2151:2178  authorizedUsers[msg.sender] */\n      0x00\n        /* \"smart-contracts/FileIntegrityRegistry.sol\":2167:2177  msg.sender */\n      caller\n        /* \"smart-contracts/FileIntegrityRegistry.sol\":2151:2178  authorizedUsers[msg.sender] */\n      0xffffffffffffffffffffffffffffffffffffffff\n      and\n      0xffffffffffffffffffffffffffffffffffffffff\n      and\n      dup2\n      mstore\n      0x20\n      add\n      swap1\n      dup2\n      mstore\n      0x20\n      add\n      0x00\n      keccak256\n      0x00\n      swap1\n      sload\n      swap1\n      0x0100\n      exp\n      swap1\n      div\n      0xff\n      and\n        /* \"smart-contracts/FileIntegrityRegistry.sol\":2146:2197  if (!authorizedUsers[msg.sender]) revert NoAccess() */\n      tag_67\n      jumpi\n        /* \"smart-contracts/FileIntegrityRegistry.sol\":2187:2197  NoAccess() */\n      mload(0x40)\n      0x2c1a75e200000000000000000000000000000000000000000000000000000000\n      dup2\n      mstore\n      0x04\n      add\n      mload(0x40)\n      dup1\n      swap2\n      sub\n      swap1\n      revert\n        /* \"smart-contracts/FileIntegrityRegistry.sol\":2146:2197  if (!authorizedUsers[msg.sender]) revert NoAccess() */\n    tag_67:\n        /* \"smart-contracts/FileIntegrityRegistry.sol\":3153:3154  0 */\n      0x00\n        /* \"smart-contracts/FileIntegrityRegistry.sol\":3136:3141  _name */\n      dup6\n        /* \"smart-contracts/FileIntegrityRegistry.sol\":3130:3149  bytes(_name).length */\n      mload\n        /* \"smart-contracts/FileIntegrityRegistry.sol\":3130:3154  bytes(_name).length == 0 */\n      sub\n        /* \"smart-contracts/FileIntegrityRegistry.sol\":3126:3174  if (bytes(_name).length == 0) revert EmptyName() */\n      tag_69\n      jumpi\n        /* \"smart-contracts/FileIntegrityRegistry.sol\":3163:3174  EmptyName() */\n      mload(0x40)\n      0x2ef1310500000000000000000000000000000000000000000000000000000000\n      dup2\n      mstore\n      0x04\n      add\n      mload(0x40)\n      dup1\n      swap2\n      sub\n      swap1\n      revert\n        /* \"smart-contracts/FileIntegrityRegistry.sol\":3126:3174  if (bytes(_name).length == 0) revert EmptyName() */\n    tag_69:\n        /* \"smart-contracts/FileIntegrityRegistry.sol\":3210:3211  0 */\n      0x00\n        /* \"smart-contracts/FileIntegrityRegistry.sol\":3194:3198  _cid */\n      dup2\n        /* \"smart-contracts/FileIntegrityRegistry.sol\":3188:3206  bytes(_cid).length */\n      mload\n        /* \"smart-contracts/FileIntegrityRegistry.sol\":3188:3211  bytes(_cid).length == 0 */\n      sub\n        /* \"smart-contracts/FileIntegrityRegistry.sol\":3184:3230  if (bytes(_cid).length == 0) revert EmptyCID() */\n      tag_70\n      jumpi\n        /* \"smart-contracts/FileIntegrityRegistry.sol\":3220:3230  EmptyCID() */\n      mload(0x40)\n      0x63ee91d000000000000000000000000000000000000000000000000000000000\n      dup2\n      mstore\n      0x04\n      add\n      mload(0x40)\n      dup1\n      swap2\n      sub\n      swap1\n      revert\n        /* \"smart-contracts/FileIntegrityRegistry.sol\":3184:3230  if (bytes(_cid).length == 0) revert EmptyCID() */\n    tag_70:\n        /* \"smart-contracts/FileIntegrityRegistry.sol\":3265:3266  0 */\n      0x00\n        /* \"smart-contracts/FileIntegrityRegistry.sol\":3257:3267  bytes32(0) */\n      0x00\n      shl\n        /* \"smart-contracts/FileIntegrityRegistry.sol\":3244:3253  _fileHash */\n      dup3\n        /* \"smart-contracts/FileIntegrityRegistry.sol\":3244:3267  _fileHash == bytes32(0) */\n      sub\n        /* \"smart-contracts/FileIntegrityRegistry.sol\":3240:3287  if (_fileHash == bytes32(0)) revert EmptyHash() */\n      tag_71\n      jumpi\n        /* \"smart-contracts/FileIntegrityRegistry.sol\":3276:3287  EmptyHash() */\n      mload(0x40)\n      0x70df377c00000000000000000000000000000000000000000000000000000000\n      dup2\n      mstore\n      0x04\n      add\n      mload(0x40)\n      dup1\n      swap2\n      sub\n      swap1\n      revert\n        /* \"smart-contracts/FileIntegrityRegistry.sol\":3240:3287  if (_fileHash == bytes32(0)) revert EmptyHash() */\n    tag_71:\n        /* \"smart-contracts/FileIntegrityRegistry.sol\":3323:3326  200 */\n      0xc8\n        /* \"smart-contracts/FileIntegrityRegistry.sol\":3307:3312  _name */\n      dup6\n        /* \"smart-contracts/FileIntegrityRegistry.sol\":3301:3320  bytes(_name).length */\n      mload\n        /* \"smart-contracts/FileIntegrityRegistry.sol\":3301:3326  bytes(_name).length > 200 */\n      gt\n        /* \"smart-contracts/FileIntegrityRegistry.sol\":3297:3348  if (bytes(_name).length > 200) revert NameTooLong() */\n      iszero\n      tag_72\n      jumpi\n        /* \"smart-contracts/FileIntegrityRegistry.sol\":3335:3348  NameTooLong() */\n      mload(0x40)\n      0x680b6caf00000000000000000000000000000000000000000000000000000000\n      dup2\n      mstore\n      0x04\n      add\n      mload(0x40)\n      dup1\n      swap2\n      sub\n      swap1\n      revert\n        /* \"smart-contracts/FileIntegrityRegistry.sol\":3297:3348  if (bytes(_name).length > 200) revert NameTooLong() */\n    tag_72:\n        /* \"smart-contracts/FileIntegrityRegistry.sol\":3391:3395  1000 */\n      0x03e8\n        /* \"smart-contracts/FileIntegrityRegistry.sol\":3368:3380  _description */\n      dup5\n        /* \"smart-contracts/FileIntegrityRegistry.sol\":3362:3388  bytes(_description).length */\n      mload\n        /* \"smart-contracts/FileIntegrityRegistry.sol\":3362:3395  bytes(_description).length > 1000 */\n      gt\n        /* \"smart-contracts/FileIntegrityRegistry.sol\":3358:3424  if (bytes(_description).length > 1000) revert DescriptionTooLong() */\n      iszero\n      tag_73\n      jumpi\n        /* \"smart-contracts/FileIntegrityRegistry.sol\":3404:3424  DescriptionTooLong() */\n      mload(0x40)\n      0xd7cfc59000000000000000000000000000000000000000000000000000000000\n      dup2\n      mstore\n      0x04\n      add\n      mload(0x40)\n      dup1\n      swap2\n      sub\n      swap1\n      revert\n        /* \"smart-contracts/FileIntegrityRegistry.sol\":3358:3424  if (bytes(_description).length > 1000) revert DescriptionTooLong() */\n    tag_73:\n        /* \"smart-contracts/FileIntegrityRegistry.sol\":3435:3449  uint256 fileId */\n      0x00\n        /* \"smart-contracts/FileIntegrityRegistry.sol\":3452:3462  nextFileId */\n      sload(0x00)\n        /* \"smart-contracts/FileIntegrityRegistry.sol\":3435:3462  uint256 fileId = nextFileId */\n      swap1\n      pop\n        /* \"smart-contracts/FileIntegrityRegistry.sol\":3472:3493  uint256 versionNumber */\n      0x00\n        /* \"smart-contracts/FileIntegrityRegistry.sol\":3496:3497  1 */\n      0x01\n        /* \"smart-contracts/FileIntegrityRegistry.sol\":3472:3497  uint256 versionNumber = 1 */\n      swap1\n      pop\n        /* \"smart-contracts/FileIntegrityRegistry.sol\":3524:3743  File({... */\n      mload(0x40)\n      dup1\n      0xc0\n      add\n      0x40\n      mstore\n      dup1\n        /* \"smart-contracts/FileIntegrityRegistry.sol\":3551:3557  fileId */\n      dup4\n        /* \"smart-contracts/FileIntegrityRegistry.sol\":3524:3743  File({... */\n      dup2\n      mstore\n      0x20\n      add\n        /* \"smart-contracts/FileIntegrityRegistry.sol\":3577:3582  _name */\n      dup9\n        /* \"smart-contracts/FileIntegrityRegistry.sol\":3524:3743  File({... */\n      dup2\n      mstore\n      0x20\n      add\n        /* \"smart-contracts/FileIntegrityRegistry.sol\":3609:3621  _description */\n      dup8\n        /* \"smart-contracts/FileIntegrityRegistry.sol\":3524:3743  File({... */\n      dup2\n      mstore\n      0x20\n      add\n        /* \"smart-contracts/FileIntegrityRegistry.sol\":3648:3658  msg.sender */\n      caller\n        /* \"smart-contracts/FileIntegrityRegistry.sol\":3524:3743  File({... */\n      0xffffffffffffffffffffffffffffffffffffffff\n      and\n      dup2\n      mstore\n      0x20\n      add\n        /* \"smart-contracts/FileIntegrityRegistry.sol\":3693:3706  versionNumber */\n      dup3\n        /* \"smart-contracts/FileIntegrityRegistry.sol\":3524:3743  File({... */\n      dup2\n      mstore\n      0x20\n      add\n        /* \"smart-contracts/FileIntegrityRegistry.sol\":3728:3732  true */\n      0x01\n        /* \"smart-contracts/FileIntegrityRegistry.sol\":3524:3743  File({... */\n      iszero\n      iszero\n      dup2\n      mstore\n      pop\n        /* \"smart-contracts/FileIntegrityRegistry.sol\":3508:3513  files */\n      0x01\n        /* \"smart-contracts/FileIntegrityRegistry.sol\":3508:3521  files[fileId] */\n      0x00\n        /* \"smart-contracts/FileIntegrityRegistry.sol\":3514:3520  fileId */\n      dup5\n        /* \"smart-contracts/FileIntegrityRegistry.sol\":3508:3521  files[fileId] */\n      dup2\n      mstore\n      0x20\n      add\n      swap1\n      dup2\n      mstore\n      0x20\n      add\n      0x00\n      keccak256\n        /* \"smart-contracts/FileIntegrityRegistry.sol\":3508:3743  files[fileId] = File({... */\n      0x00\n      dup3\n      add\n      mload\n      dup2\n      0x00\n      add\n      sstore\n      0x20\n      dup3\n      add\n      mload\n      dup2\n      0x01\n      add\n      swap1\n      dup2\n      tag_74\n      swap2\n      swap1\n      tag_75\n      jump\t// in\n    tag_74:\n      pop\n      0x40\n      dup3\n      add\n      mload\n      dup2\n      0x02\n      add\n      swap1\n      dup2\n      tag_76\n      swap2\n      swap1\n      tag_75\n      jump\t// in\n    tag_76:\n      pop\n      0x60\n      dup3\n      add\n      mload\n      dup2\n      0x03\n      add\n      exp(0x0100, 0x00)\n      dup2\n      sload\n      dup2\n      0xffffffffffffffffffffffffffffffffffffffff\n      mul\n      not\n      and\n      swap1\n      dup4\n      0xffffffffffffffffffffffffffffffffffffffff\n      and\n      mul\n      or\n      swap1\n      sstore\n      pop\n      0x80\n      dup3\n      add\n      mload\n      dup2\n      0x04\n      add\n      sstore\n      0xa0\n      dup3\n      add\n      mload\n      dup2\n      0x05\n      add\n      exp(0x0100, 0x00)\n      dup2\n      sload\n      dup2\n      0xff\n      mul\n      not\n      and\n      swap1\n      dup4\n      iszero\n      iszero\n      mul\n      or\n      swap1\n      sstore\n      pop\n      swap1\n      pop\n      pop\n        /* \"smart-contracts/FileIntegrityRegistry.sol\":3792:3975  FileVersion({... */\n      mload(0x40)\n      dup1\n      0xa0\n      add\n      0x40\n      mstore\n      dup1\n        /* \"smart-contracts/FileIntegrityRegistry.sol\":3828:3837  _fileHash */\n      dup6\n        /* \"smart-contracts/FileIntegrityRegistry.sol\":3792:3975  FileVersion({... */\n      dup2\n      mstore\n      0x20\n      add\n        /* \"smart-contracts/FileIntegrityRegistry.sol\":3856:3860  _cid */\n      dup5\n        /* \"smart-contracts/FileIntegrityRegistry.sol\":3792:3975  FileVersion({... */\n      dup2\n      mstore\n      0x20\n      add\n        /* \"smart-contracts/FileIntegrityRegistry.sol\":3880:3885  _size */\n      dup7\n        /* \"smart-contracts/FileIntegrityRegistry.sol\":3792:3975  FileVersion({... */\n      dup2\n      mstore\n      0x20\n      add\n        /* \"smart-contracts/FileIntegrityRegistry.sol\":3914:3927  versionNumber */\n      dup3\n        /* \"smart-contracts/FileIntegrityRegistry.sol\":3792:3975  FileVersion({... */\n      dup2\n      mstore\n      0x20\n      add\n        /* \"smart-contracts/FileIntegrityRegistry.sol\":3954:3964  msg.sender */\n      caller\n        /* \"smart-contracts/FileIntegrityRegistry.sol\":3792:3975  FileVersion({... */\n      0xffffffffffffffffffffffffffffffffffffffff\n      and\n      dup2\n      mstore\n      pop\n        /* \"smart-contracts/FileIntegrityRegistry.sol\":3754:3766  fileVersions */\n      0x02\n        /* \"smart-contracts/FileIntegrityRegistry.sol\":3754:3774  fileVersions[fileId] */\n      0x00\n        /* \"smart-contracts/FileIntegrityRegistry.sol\":3767:3773  fileId */\n      dup5\n        /* \"smart-contracts/FileIntegrityRegistry.sol\":3754:3774  fileVersions[fileId] */\n      dup2\n      mstore\n      0x20\n      add\n      swap1\n      dup2\n      mstore\n      0x20\n      add\n      0x00\n      keccak256\n        /* \"smart-contracts/FileIntegrityRegistry.sol\":3754:3789  fileVersions[fileId][versionNumber] */\n      0x00\n        /* \"smart-contracts/FileIntegrityRegistry.sol\":3775:3788  versionNumber */\n      dup4\n        /* \"smart-contracts/FileIntegrityRegistry.sol\":3754:3789  fileVersions[fileId][versionNumber] */\n      dup2\n      mstore\n      0x20\n      add\n      swap1\n      dup2\n      mstore\n      0x20\n      add\n      0x00\n      keccak256\n        /* \"smart-contracts/FileIntegrityRegistry.sol\":3754:3975  fileVersions[fileId][versionNumber] = FileVersion({... */\n      0x00\n      dup3\n      add\n      mload\n      dup2\n      0x00\n      add\n      sstore\n      0x20\n      dup3\n      add\n      mload\n      dup2\n      0x01\n      add\n      swap1\n      dup2\n      tag_77\n      swap2\n      swap1\n      tag_75\n      jump\t// in\n    tag_77:\n      pop\n      0x40\n      dup3\n      add\n      mload\n      dup2\n      0x02\n      add\n      sstore\n      0x60\n      dup3\n      add\n      mload\n      dup2\n      0x03\n      add\n      sstore\n      0x80\n      dup3\n      add\n      mload\n      dup2\n      0x04\n      add\n      exp(0x0100, 0x00)\n      dup2\n      sload\n      dup2\n      0xffffffffffffffffffffffffffffffffffffffff\n      mul\n      not\n      and\n      swap1\n      dup4\n      0xffffffffffffffffffffffffffffffffffffffff\n      and\n      mul\n      or\n      swap1\n      sstore\n      pop\n      swap1\n      pop\n      pop\n        /* \"smart-contracts/FileIntegrityRegistry.sol\":3986:3996  nextFileId */\n      0x00\n      0x00\n        /* \"smart-contracts/FileIntegrityRegistry.sol\":3986:3998  nextFileId++ */\n      dup2\n      sload\n      dup1\n      swap3\n      swap2\n      swap1\n      tag_78\n      swap1\n      tag_79\n      jump\t// in\n    tag_78:\n      swap2\n      swap1\n      pop\n      sstore\n      pop\n        /* \"smart-contracts/FileIntegrityRegistry.sol\":4086:4096  msg.sender */\n      caller\n        /* \"smart-contracts/FileIntegrityRegistry.sol\":4014:4211  FileCreated(... */\n      0xffffffffffffffffffffffffffffffffffffffff\n      and\n        /* \"smart-contracts/FileIntegrityRegistry.sol\":4059:4072  versionNumber */\n      dup2\n        /* \"smart-contracts/FileIntegrityRegistry.sol\":4039:4045  fileId */\n      dup4\n        /* \"smart-contracts/FileIntegrityRegistry.sol\":4014:4211  FileCreated(... */\n      0xaeb0f2e6dfdadf38ab7896e5a964f4bb11d3536bf90e4cfc93efa311a7672f53\n        /* \"smart-contracts/FileIntegrityRegistry.sol\":4110:4115  _name */\n      dup11\n        /* \"smart-contracts/FileIntegrityRegistry.sol\":4129:4141  _description */\n      dup11\n        /* \"smart-contracts/FileIntegrityRegistry.sol\":4155:4160  _size */\n      dup11\n        /* \"smart-contracts/FileIntegrityRegistry.sol\":4174:4183  _fileHash */\n      dup11\n        /* \"smart-contracts/FileIntegrityRegistry.sol\":4197:4201  _cid */\n      dup11\n        /* \"smart-contracts/FileIntegrityRegistry.sol\":4014:4211  FileCreated(... */\n      mload(0x40)\n      tag_80\n      swap6\n      swap5\n      swap4\n      swap3\n      swap2\n      swap1\n      tag_81\n      jump\t// in\n    tag_80:\n      mload(0x40)\n      dup1\n      swap2\n      sub\n      swap1\n      log4\n        /* \"smart-contracts/FileIntegrityRegistry.sol\":3116:4218  {... */\n      pop\n      pop\n        /* \"smart-contracts/FileIntegrityRegistry.sol\":2923:4218  function createFile(... */\n      pop\n      pop\n      pop\n      pop\n      pop\n      jump\t// out\n        /* \"smart-contracts/FileIntegrityRegistry.sol\":2565:2917  function revokeEditorAccess(address user) external onlyOwner {... */\n    tag_29:\n        /* \"smart-contracts/FileIntegrityRegistry.sol\":2055:2067  storageOwner */\n      immutable(\"0x2a9063ed52b7d417e441f378325359c9ce274f5d6c3ecf11b7d42f24b9c90b7f\")\n        /* \"smart-contracts/FileIntegrityRegistry.sol\":2041:2067  msg.sender != storageOwner */\n      0xffffffffffffffffffffffffffffffffffffffff\n      and\n        /* \"smart-contracts/FileIntegrityRegistry.sol\":2041:2051  msg.sender */\n      caller\n        /* \"smart-contracts/FileIntegrityRegistry.sol\":2041:2067  msg.sender != storageOwner */\n      0xffffffffffffffffffffffffffffffffffffffff\n      and\n      eq\n        /* \"smart-contracts/FileIntegrityRegistry.sol\":2037:2086  if (msg.sender != storageOwner) revert NoAccess() */\n      tag_83\n      jumpi\n        /* \"smart-contracts/FileIntegrityRegistry.sol\":2076:2086  NoAccess() */\n      mload(0x40)\n      0x2c1a75e200000000000000000000000000000000000000000000000000000000\n      dup2\n      mstore\n      0x04\n      add\n      mload(0x40)\n      dup1\n      swap2\n      sub\n      swap1\n      revert\n        /* \"smart-contracts/FileIntegrityRegistry.sol\":2037:2086  if (msg.sender != storageOwner) revert NoAccess() */\n    tag_83:\n        /* \"smart-contracts/FileIntegrityRegistry.sol\":2648:2660  storageOwner */\n      immutable(\"0x2a9063ed52b7d417e441f378325359c9ce274f5d6c3ecf11b7d42f24b9c90b7f\")\n        /* \"smart-contracts/FileIntegrityRegistry.sol\":2640:2660  user == storageOwner */\n      0xffffffffffffffffffffffffffffffffffffffff\n      and\n        /* \"smart-contracts/FileIntegrityRegistry.sol\":2640:2644  user */\n      dup2\n        /* \"smart-contracts/FileIntegrityRegistry.sol\":2640:2660  user == storageOwner */\n      0xffffffffffffffffffffffffffffffffffffffff\n      and\n      sub\n        /* \"smart-contracts/FileIntegrityRegistry.sol\":2636:2694  if (user == storageOwner) revert CannotRevokeOwnerAccess() */\n      tag_85\n      jumpi\n        /* \"smart-contracts/FileIntegrityRegistry.sol\":2669:2694  CannotRevokeOwnerAccess() */\n      mload(0x40)\n      0xf7569fbf00000000000000000000000000000000000000000000000000000000\n      dup2\n      mstore\n      0x04\n      add\n      mload(0x40)\n      dup1\n      swap2\n      sub\n      swap1\n      revert\n        /* \"smart-contracts/FileIntegrityRegistry.sol\":2636:2694  if (user == storageOwner) revert CannotRevokeOwnerAccess() */\n    tag_85:\n        /* \"smart-contracts/FileIntegrityRegistry.sol\":2709:2724  authorizedUsers */\n      0x03\n        /* \"smart-contracts/FileIntegrityRegistry.sol\":2709:2730  authorizedUsers[user] */\n      0x00\n        /* \"smart-contracts/FileIntegrityRegistry.sol\":2725:2729  user */\n      dup3\n        /* \"smart-contracts/FileIntegrityRegistry.sol\":2709:2730  authorizedUsers[user] */\n      0xffffffffffffffffffffffffffffffffffffffff\n      and\n      0xffffffffffffffffffffffffffffffffffffffff\n      and\n      dup2\n      mstore\n      0x20\n      add\n      swap1\n      dup2\n      mstore\n      0x20\n      add\n      0x00\n      keccak256\n      0x00\n      swap1\n      sload\n      swap1\n      0x0100\n      exp\n      swap1\n      div\n      0xff\n      and\n        /* \"smart-contracts/FileIntegrityRegistry.sol\":2704:2758  if (!authorizedUsers[user]) revert UserNotAuthorized() */\n      tag_86\n      jumpi\n        /* \"smart-contracts/FileIntegrityRegistry.sol\":2739:2758  UserNotAuthorized() */\n      mload(0x40)\n      0xb040852e00000000000000000000000000000000000000000000000000000000\n      dup2\n      mstore\n      0x04\n      add\n      mload(0x40)\n      dup1\n      swap2\n      sub\n      swap1\n      revert\n        /* \"smart-contracts/FileIntegrityRegistry.sol\":2704:2758  if (!authorizedUsers[user]) revert UserNotAuthorized() */\n    tag_86:\n        /* \"smart-contracts/FileIntegrityRegistry.sol\":2793:2798  false */\n      0x00\n        /* \"smart-contracts/FileIntegrityRegistry.sol\":2769:2784  authorizedUsers */\n      0x03\n        /* \"smart-contracts/FileIntegrityRegistry.sol\":2769:2790  authorizedUsers[user] */\n      0x00\n        /* \"smart-contracts/FileIntegrityRegistry.sol\":2785:2789  user */\n      dup4\n        /* \"smart-contracts/FileIntegrityRegistry.sol\":2769:2790  authorizedUsers[user] */\n      0xffffffffffffffffffffffffffffffffffffffff\n      and\n      0xffffffffffffffffffffffffffffffffffffffff\n      and\n      dup2\n      mstore\n      0x20\n      add\n      swap1\n      dup2\n      mstore\n      0x20\n      add\n      0x00\n      keccak256\n      0x00\n        /* \"smart-contracts/FileIntegrityRegistry.sol\":2769:2798  authorizedUsers[user] = false */\n      0x0100\n      exp\n      dup2\n      sload\n      dup2\n      0xff\n      mul\n      not\n      and\n      swap1\n      dup4\n      iszero\n      iszero\n      mul\n      or\n      swap1\n      sstore\n      pop\n        /* \"smart-contracts/FileIntegrityRegistry.sol\":2839:2846  factory */\n      immutable(\"0x2e5129c19be59da29ff89133759e8d7e21d926bf22eda9cdfd27c0cd8774b8c2\")\n        /* \"smart-contracts/FileIntegrityRegistry.sol\":2809:2863  IFileIntegrityRegistryFactory(factory).onAccessRevoked */\n      0xffffffffffffffffffffffffffffffffffffffff\n      and\n      0x2547792f\n        /* \"smart-contracts/FileIntegrityRegistry.sol\":2864:2868  user */\n      dup3\n        /* \"smart-contracts/FileIntegrityRegistry.sol\":2809:2869  IFileIntegrityRegistryFactory(factory).onAccessRevoked(user) */\n      mload(0x40)\n      dup3\n      0xffffffff\n      and\n      0xe0\n      shl\n      dup2\n      mstore\n      0x04\n      add\n      tag_87\n      swap2\n      swap1\n      tag_43\n      jump\t// in\n    tag_87:\n      0x00\n      mload(0x40)\n      dup1\n      dup4\n      sub\n      dup2\n      0x00\n      dup8\n      dup1\n      extcodesize\n      iszero\n      dup1\n      iszero\n      tag_88\n      jumpi\n      revert(0x00, 0x00)\n    tag_88:\n      pop\n      gas\n      call\n      iszero\n      dup1\n      iszero\n      tag_90\n      jumpi\n      returndatacopy(0x00, 0x00, returndatasize)\n      revert(0x00, returndatasize)\n    tag_90:\n      pop\n      pop\n      pop\n      pop\n        /* \"smart-contracts/FileIntegrityRegistry.sol\":2905:2909  user */\n      dup1\n        /* \"smart-contracts/FileIntegrityRegistry.sol\":2885:2910  EditorAccessRevoked(user) */\n      0xffffffffffffffffffffffffffffffffffffffff\n      and\n      0xc3cc70e6a330c32edd01ea56d21dda57946cee3a0281b157dbf5cf84f2fed731\n      mload(0x40)\n      mload(0x40)\n      dup1\n      swap2\n      sub\n      swap1\n      log2\n        /* \"smart-contracts/FileIntegrityRegistry.sol\":2565:2917  function revokeEditorAccess(address user) external onlyOwner {... */\n      pop\n      jump\t// out\n        /* \"smart-contracts/FileIntegrityRegistry.sol\":5096:5267  function getFile(uint256 _fileId) external view returns (File memory) {... */\n    tag_33:\n        /* \"smart-contracts/FileIntegrityRegistry.sol\":5153:5164  File memory */\n      tag_91\n      tag_92\n      jump\t// in\n    tag_91:\n        /* \"smart-contracts/FileIntegrityRegistry.sol\":5181:5186  files */\n      0x01\n        /* \"smart-contracts/FileIntegrityRegistry.sol\":5181:5195  files[_fileId] */\n      0x00\n        /* \"smart-contracts/FileIntegrityRegistry.sol\":5187:5194  _fileId */\n      dup4\n        /* \"smart-contracts/FileIntegrityRegistry.sol\":5181:5195  files[_fileId] */\n      dup2\n      mstore\n      0x20\n      add\n      swap1\n      dup2\n      mstore\n      0x20\n      add\n      0x00\n      keccak256\n        /* \"smart-contracts/FileIntegrityRegistry.sol\":5181:5202  files[_fileId].exists */\n      0x05\n      add\n      0x00\n      swap1\n      sload\n      swap1\n      0x0100\n      exp\n      swap1\n      div\n      0xff\n      and\n        /* \"smart-contracts/FileIntegrityRegistry.sol\":5176:5229  if (!files[_fileId].exists) revert FileDoesNotExist() */\n      tag_94\n      jumpi\n        /* \"smart-contracts/FileIntegrityRegistry.sol\":5211:5229  FileDoesNotExist() */\n      mload(0x40)\n      0x3bcbb0de00000000000000000000000000000000000000000000000000000000\n      dup2\n      mstore\n      0x04\n      add\n      mload(0x40)\n      dup1\n      swap2\n      sub\n      swap1\n      revert\n        /* \"smart-contracts/FileIntegrityRegistry.sol\":5176:5229  if (!files[_fileId].exists) revert FileDoesNotExist() */\n    tag_94:\n        /* \"smart-contracts/FileIntegrityRegistry.sol\":5246:5251  files */\n      0x01\n        /* \"smart-contracts/FileIntegrityRegistry.sol\":5246:5260  files[_fileId] */\n      0x00\n        /* \"smart-contracts/FileIntegrityRegistry.sol\":5252:5259  _fileId */\n      dup4\n        /* \"smart-contracts/FileIntegrityRegistry.sol\":5246:5260  files[_fileId] */\n      dup2\n      mstore\n      0x20\n      add\n      swap1\n      dup2\n      mstore\n      0x20\n      add\n      0x00\n      keccak256\n        /* \"smart-contracts/FileIntegrityRegistry.sol\":5239:5260  return files[_fileId] */\n      mload(0x40)\n      dup1\n      0xc0\n      add\n      0x40\n      mstore\n      swap1\n      dup2\n      0x00\n      dup3\n      add\n      sload\n      dup2\n      mstore\n      0x20\n      add\n      0x01\n      dup3\n      add\n      dup1\n      sload\n      tag_95\n      swap1\n      tag_96\n      jump\t// in\n    tag_95:\n      dup1\n      0x1f\n      add\n      0x20\n      dup1\n      swap2\n      div\n      mul\n      0x20\n      add\n      mload(0x40)\n      swap1\n      dup2\n      add\n      0x40\n      mstore\n      dup1\n      swap3\n      swap2\n      swap1\n      dup2\n      dup2\n      mstore\n      0x20\n      add\n      dup3\n      dup1\n      sload\n      tag_97\n      swap1\n      tag_96\n      jump\t// in\n    tag_97:\n      dup1\n      iszero\n      tag_98\n      jumpi\n      dup1\n      0x1f\n      lt\n      tag_99\n      jumpi\n      0x0100\n      dup1\n      dup4\n      sload\n      div\n      mul\n      dup4\n      mstore\n      swap2\n      0x20\n      add\n      swap2\n      jump(tag_98)\n    tag_99:\n      dup3\n      add\n      swap2\n      swap1\n      0x00\n      mstore\n      keccak256(0x00, 0x20)\n      swap1\n    tag_100:\n      dup2\n      sload\n      dup2\n      mstore\n      swap1\n      0x01\n      add\n      swap1\n      0x20\n      add\n      dup1\n      dup4\n      gt\n      tag_100\n      jumpi\n      dup3\n      swap1\n      sub\n      0x1f\n      and\n      dup3\n      add\n      swap2\n    tag_98:\n      pop\n      pop\n      pop\n      pop\n      pop\n      dup2\n      mstore\n      0x20\n      add\n      0x02\n      dup3\n      add\n      dup1\n      sload\n      tag_101\n      swap1\n      tag_96\n      jump\t// in\n    tag_101:\n      dup1\n      0x1f\n      add\n      0x20\n      dup1\n      swap2\n      div\n      mul\n      0x20\n      add\n      mload(0x40)\n      swap1\n      dup2\n      add\n      0x40\n      mstore\n      dup1\n      swap3\n      swap2\n      swap1\n      dup2\n      dup2\n      mstore\n      0x20\n      add\n      dup3\n      dup1\n      sload\n      tag_102\n      swap1\n      tag_96\n      jump\t// in\n    tag_102:\n      dup1\n      iszero\n      tag_103\n      jumpi\n      dup1\n      0x1f\n      lt\n      tag_104\n      jumpi\n      0x0100\n      dup1\n      dup4\n      sload\n      div\n      mul\n      dup4\n      mstore\n      swap2\n      0x20\n      add\n      swap2\n      jump(tag_103)\n    tag_104:\n      dup3\n      add\n      swap2\n      swap1\n      0x00\n      mstore\n      keccak256(0x00, 0x20)\n      swap1\n    tag_105:\n      dup2\n      sload\n      dup2\n      mstore\n      swap1\n      0x01\n      add\n      swap1\n      0x20\n      add\n      dup1\n      dup4\n      gt\n      tag_105\n      jumpi\n      dup3\n      swap1\n      sub\n      0x1f\n      and\n      dup3\n      add\n      swap2\n    tag_103:\n      pop\n      pop\n      pop\n      pop\n      pop\n      dup2\n      mstore\n      0x20\n      add\n      0x03\n      dup3\n      add\n      0x00\n      swap1\n      sload\n      swap1\n      0x0100\n      exp\n      swap1\n      div\n      0xffffffffffffffffffffffffffffffffffffffff\n      and\n      0xffffffffffffffffffffffffffffffffffffffff\n      and\n      0xffffffffffffffffffffffffffffffffffffffff\n      and\n      dup2\n      mstore\n      0x20\n      add\n      0x04\n      dup3\n      add\n      sload\n      dup2\n      mstore\n      0x20\n      add\n      0x05\n      dup3\n      add\n      0x00\n      swap1\n      sload\n      swap1\n      0x0100\n      exp\n      swap1\n      div\n      0xff\n      and\n      iszero\n      iszero\n      iszero\n      iszero\n      dup2\n      mstore\n      pop\n      pop\n      swap1\n      pop\n        /* \"smart-contracts/FileIntegrityRegistry.sol\":5096:5267  function getFile(uint256 _fileId) external view returns (File memory) {... */\n      swap2\n      swap1\n      pop\n      jump\t// out\n        /* \"smart-contracts/FileIntegrityRegistry.sol\":4224:5090  function addFileVersion(... */\n    tag_39:\n        /* \"smart-contracts/FileIntegrityRegistry.sol\":2151:2166  authorizedUsers */\n      0x03\n        /* \"smart-contracts/FileIntegrityRegistry.sol\":2151:2178  authorizedUsers[msg.sender] */\n      0x00\n        /* \"smart-contracts/FileIntegrityRegistry.sol\":2167:2177  msg.sender */\n      caller\n        /* \"smart-contracts/FileIntegrityRegistry.sol\":2151:2178  authorizedUsers[msg.sender] */\n      0xffffffffffffffffffffffffffffffffffffffff\n      and\n      0xffffffffffffffffffffffffffffffffffffffff\n      and\n      dup2\n      mstore\n      0x20\n      add\n      swap1\n      dup2\n      mstore\n      0x20\n      add\n      0x00\n      keccak256\n      0x00\n      swap1\n      sload\n      swap1\n      0x0100\n      exp\n      swap1\n      div\n      0xff\n      and\n        /* \"smart-contracts/FileIntegrityRegistry.sol\":2146:2197  if (!authorizedUsers[msg.sender]) revert NoAccess() */\n      tag_107\n      jumpi\n        /* \"smart-contracts/FileIntegrityRegistry.sol\":2187:2197  NoAccess() */\n      mload(0x40)\n      0x2c1a75e200000000000000000000000000000000000000000000000000000000\n      dup2\n      mstore\n      0x04\n      add\n      mload(0x40)\n      dup1\n      swap2\n      sub\n      swap1\n      revert\n        /* \"smart-contracts/FileIntegrityRegistry.sol\":2146:2197  if (!authorizedUsers[msg.sender]) revert NoAccess() */\n    tag_107:\n        /* \"smart-contracts/FileIntegrityRegistry.sol\":4396:4401  files */\n      0x01\n        /* \"smart-contracts/FileIntegrityRegistry.sol\":4396:4410  files[_fileId] */\n      0x00\n        /* \"smart-contracts/FileIntegrityRegistry.sol\":4402:4409  _fileId */\n      dup6\n        /* \"smart-contracts/FileIntegrityRegistry.sol\":4396:4410  files[_fileId] */\n      dup2\n      mstore\n      0x20\n      add\n      swap1\n      dup2\n      mstore\n      0x20\n      add\n      0x00\n      keccak256\n        /* \"smart-contracts/FileIntegrityRegistry.sol\":4396:4417  files[_fileId].exists */\n      0x05\n      add\n      0x00\n      swap1\n      sload\n      swap1\n      0x0100\n      exp\n      swap1\n      div\n      0xff\n      and\n        /* \"smart-contracts/FileIntegrityRegistry.sol\":4391:4444  if (!files[_fileId].exists) revert FileDoesNotExist() */\n      tag_109\n      jumpi\n        /* \"smart-contracts/FileIntegrityRegistry.sol\":4426:4444  FileDoesNotExist() */\n      mload(0x40)\n      0x3bcbb0de00000000000000000000000000000000000000000000000000000000\n      dup2\n      mstore\n      0x04\n      add\n      mload(0x40)\n      dup1\n      swap2\n      sub\n      swap1\n      revert\n        /* \"smart-contracts/FileIntegrityRegistry.sol\":4391:4444  if (!files[_fileId].exists) revert FileDoesNotExist() */\n    tag_109:\n        /* \"smart-contracts/FileIntegrityRegistry.sol\":4480:4481  0 */\n      0x00\n        /* \"smart-contracts/FileIntegrityRegistry.sol\":4464:4468  _cid */\n      dup2\n        /* \"smart-contracts/FileIntegrityRegistry.sol\":4458:4476  bytes(_cid).length */\n      mload\n        /* \"smart-contracts/FileIntegrityRegistry.sol\":4458:4481  bytes(_cid).length == 0 */\n      sub\n        /* \"smart-contracts/FileIntegrityRegistry.sol\":4454:4500  if (bytes(_cid).length == 0) revert EmptyCID() */\n      tag_110\n      jumpi\n        /* \"smart-contracts/FileIntegrityRegistry.sol\":4490:4500  EmptyCID() */\n      mload(0x40)\n      0x63ee91d000000000000000000000000000000000000000000000000000000000\n      dup2\n      mstore\n      0x04\n      add\n      mload(0x40)\n      dup1\n      swap2\n      sub\n      swap1\n      revert\n        /* \"smart-contracts/FileIntegrityRegistry.sol\":4454:4500  if (bytes(_cid).length == 0) revert EmptyCID() */\n    tag_110:\n        /* \"smart-contracts/FileIntegrityRegistry.sol\":4535:4536  0 */\n      0x00\n        /* \"smart-contracts/FileIntegrityRegistry.sol\":4527:4537  bytes32(0) */\n      0x00\n      shl\n        /* \"smart-contracts/FileIntegrityRegistry.sol\":4514:4523  _fileHash */\n      dup3\n        /* \"smart-contracts/FileIntegrityRegistry.sol\":4514:4537  _fileHash == bytes32(0) */\n      sub\n        /* \"smart-contracts/FileIntegrityRegistry.sol\":4510:4557  if (_fileHash == bytes32(0)) revert EmptyHash() */\n      tag_111\n      jumpi\n        /* \"smart-contracts/FileIntegrityRegistry.sol\":4546:4557  EmptyHash() */\n      mload(0x40)\n      0x70df377c00000000000000000000000000000000000000000000000000000000\n      dup2\n      mstore\n      0x04\n      add\n      mload(0x40)\n      dup1\n      swap2\n      sub\n      swap1\n      revert\n        /* \"smart-contracts/FileIntegrityRegistry.sol\":4510:4557  if (_fileHash == bytes32(0)) revert EmptyHash() */\n    tag_111:\n        /* \"smart-contracts/FileIntegrityRegistry.sol\":4568:4586  uint256 newVersion */\n      0x00\n        /* \"smart-contracts/FileIntegrityRegistry.sol\":4626:4627  1 */\n      0x01\n        /* \"smart-contracts/FileIntegrityRegistry.sol\":4589:4594  files */\n      dup1\n        /* \"smart-contracts/FileIntegrityRegistry.sol\":4589:4603  files[_fileId] */\n      0x00\n        /* \"smart-contracts/FileIntegrityRegistry.sol\":4595:4602  _fileId */\n      dup8\n        /* \"smart-contracts/FileIntegrityRegistry.sol\":4589:4603  files[_fileId] */\n      dup2\n      mstore\n      0x20\n      add\n      swap1\n      dup2\n      mstore\n      0x20\n      add\n      0x00\n      keccak256\n        /* \"smart-contracts/FileIntegrityRegistry.sol\":4589:4623  files[_fileId].latestVersionNumber */\n      0x04\n      add\n      sload\n        /* \"smart-contracts/FileIntegrityRegistry.sol\":4589:4627  files[_fileId].latestVersionNumber + 1 */\n      tag_112\n      swap2\n      swap1\n      tag_113\n      jump\t// in\n    tag_112:\n        /* \"smart-contracts/FileIntegrityRegistry.sol\":4568:4627  uint256 newVersion = files[_fileId].latestVersionNumber + 1 */\n      swap1\n      pop\n        /* \"smart-contracts/FileIntegrityRegistry.sol\":4674:4854  FileVersion({... */\n      mload(0x40)\n      dup1\n      0xa0\n      add\n      0x40\n      mstore\n      dup1\n        /* \"smart-contracts/FileIntegrityRegistry.sol\":4710:4719  _fileHash */\n      dup5\n        /* \"smart-contracts/FileIntegrityRegistry.sol\":4674:4854  FileVersion({... */\n      dup2\n      mstore\n      0x20\n      add\n        /* \"smart-contracts/FileIntegrityRegistry.sol\":4738:4742  _cid */\n      dup4\n        /* \"smart-contracts/FileIntegrityRegistry.sol\":4674:4854  FileVersion({... */\n      dup2\n      mstore\n      0x20\n      add\n        /* \"smart-contracts/FileIntegrityRegistry.sol\":4762:4767  _size */\n      dup6\n        /* \"smart-contracts/FileIntegrityRegistry.sol\":4674:4854  FileVersion({... */\n      dup2\n      mstore\n      0x20\n      add\n        /* \"smart-contracts/FileIntegrityRegistry.sol\":4796:4806  newVersion */\n      dup3\n        /* \"smart-contracts/FileIntegrityRegistry.sol\":4674:4854  FileVersion({... */\n      dup2\n      mstore\n      0x20\n      add\n        /* \"smart-contracts/FileIntegrityRegistry.sol\":4833:4843  msg.sender */\n      caller\n        /* \"smart-contracts/FileIntegrityRegistry.sol\":4674:4854  FileVersion({... */\n      0xffffffffffffffffffffffffffffffffffffffff\n      and\n      dup2\n      mstore\n      pop\n        /* \"smart-contracts/FileIntegrityRegistry.sol\":4638:4650  fileVersions */\n      0x02\n        /* \"smart-contracts/FileIntegrityRegistry.sol\":4638:4659  fileVersions[_fileId] */\n      0x00\n        /* \"smart-contracts/FileIntegrityRegistry.sol\":4651:4658  _fileId */\n      dup8\n        /* \"smart-contracts/FileIntegrityRegistry.sol\":4638:4659  fileVersions[_fileId] */\n      dup2\n      mstore\n      0x20\n      add\n      swap1\n      dup2\n      mstore\n      0x20\n      add\n      0x00\n      keccak256\n        /* \"smart-contracts/FileIntegrityRegistry.sol\":4638:4671  fileVersions[_fileId][newVersion] */\n      0x00\n        /* \"smart-contracts/FileIntegrityRegistry.sol\":4660:4670  newVersion */\n      dup4\n        /* \"smart-contracts/FileIntegrityRegistry.sol\":4638:4671  fileVersions[_fileId][newVersion] */\n      dup2\n      mstore\n      0x20\n      add\n      swap1\n      dup2\n      mstore\n      0x20\n      add\n      0x00\n      keccak256\n        /* \"smart-contracts/FileIntegrityRegistry.sol\":4638:4854  fileVersions[_fileId][newVersion] = FileVersion({... */\n      0x00\n      dup3\n      add\n      mload\n      dup2\n      0x00\n      add\n      sstore\n      0x20\n      dup3\n      add\n      mload\n      dup2\n      0x01\n      add\n      swap1\n      dup2\n      tag_114\n      swap2\n      swap1\n      tag_75\n      jump\t// in\n    tag_114:\n      pop\n      0x40\n      dup3\n      add\n      mload\n      dup2\n      0x02\n      add\n      sstore\n      0x60\n      dup3\n      add\n      mload\n      dup2\n      0x03\n      add\n      sstore\n      0x80\n      dup3\n      add\n      mload\n      dup2\n      0x04\n      add\n      exp(0x0100, 0x00)\n      dup2\n      sload\n      dup2\n      0xffffffffffffffffffffffffffffffffffffffff\n      mul\n      not\n      and\n      swap1\n      dup4\n      0xffffffffffffffffffffffffffffffffffffffff\n      and\n      mul\n      or\n      swap1\n      sstore\n      pop\n      swap1\n      pop\n      pop\n        /* \"smart-contracts/FileIntegrityRegistry.sol\":4902:4912  newVersion */\n      dup1\n        /* \"smart-contracts/FileIntegrityRegistry.sol\":4865:4870  files */\n      0x01\n        /* \"smart-contracts/FileIntegrityRegistry.sol\":4865:4879  files[_fileId] */\n      0x00\n        /* \"smart-contracts/FileIntegrityRegistry.sol\":4871:4878  _fileId */\n      dup8\n        /* \"smart-contracts/FileIntegrityRegistry.sol\":4865:4879  files[_fileId] */\n      dup2\n      mstore\n      0x20\n      add\n      swap1\n      dup2\n      mstore\n      0x20\n      add\n      0x00\n      keccak256\n        /* \"smart-contracts/FileIntegrityRegistry.sol\":4865:4899  files[_fileId].latestVersionNumber */\n      0x04\n      add\n        /* \"smart-contracts/FileIntegrityRegistry.sol\":4865:4912  files[_fileId].latestVersionNumber = newVersion */\n      dup2\n      swap1\n      sstore\n      pop\n        /* \"smart-contracts/FileIntegrityRegistry.sol\":5003:5013  msg.sender */\n      caller\n        /* \"smart-contracts/FileIntegrityRegistry.sol\":4928:5083  FileVersionAdded(... */\n      0xffffffffffffffffffffffffffffffffffffffff\n      and\n        /* \"smart-contracts/FileIntegrityRegistry.sol\":4979:4989  newVersion */\n      dup2\n        /* \"smart-contracts/FileIntegrityRegistry.sol\":4958:4965  _fileId */\n      dup7\n        /* \"smart-contracts/FileIntegrityRegistry.sol\":4928:5083  FileVersionAdded(... */\n      0xd45405bebd56f938a9252239e7194222450aa11223c9c894e32007a1720a9d7e\n        /* \"smart-contracts/FileIntegrityRegistry.sol\":5027:5032  _size */\n      dup8\n        /* \"smart-contracts/FileIntegrityRegistry.sol\":5046:5055  _fileHash */\n      dup8\n        /* \"smart-contracts/FileIntegrityRegistry.sol\":5069:5073  _cid */\n      dup8\n        /* \"smart-contracts/FileIntegrityRegistry.sol\":4928:5083  FileVersionAdded(... */\n      mload(0x40)\n      tag_115\n      swap4\n      swap3\n      swap2\n      swap1\n      tag_116\n      jump\t// in\n    tag_115:\n      mload(0x40)\n      dup1\n      swap2\n      sub\n      swap1\n      log4\n        /* \"smart-contracts/FileIntegrityRegistry.sol\":4381:5090  {... */\n      pop\n        /* \"smart-contracts/FileIntegrityRegistry.sol\":4224:5090  function addFileVersion(... */\n      pop\n      pop\n      pop\n      pop\n      jump\t// out\n        /* \"smart-contracts/FileIntegrityRegistry.sol\":1441:1478  address public immutable storageOwner */\n    tag_41:\n      immutable(\"0x2a9063ed52b7d417e441f378325359c9ce274f5d6c3ecf11b7d42f24b9c90b7f\")\n      dup2\n      jump\t// out\n        /* \"smart-contracts/FileIntegrityRegistry.sol\":1522:1551  uint256 public nextFileId = 1 */\n    tag_45:\n      sload(0x00)\n      dup2\n      jump\t// out\n        /* \"smart-contracts/FileIntegrityRegistry.sol\":1484:1516  address public immutable factory */\n    tag_49:\n      immutable(\"0x2e5129c19be59da29ff89133759e8d7e21d926bf22eda9cdfd27c0cd8774b8c2\")\n      dup2\n      jump\t// out\n        /* \"smart-contracts/FileIntegrityRegistry.sol\":5273:5670  function getFileVersion(... */\n    tag_54:\n        /* \"smart-contracts/FileIntegrityRegistry.sol\":5383:5401  FileVersion memory */\n      tag_117\n      tag_118\n      jump\t// in\n    tag_117:\n        /* \"smart-contracts/FileIntegrityRegistry.sol\":5418:5423  files */\n      0x01\n        /* \"smart-contracts/FileIntegrityRegistry.sol\":5418:5432  files[_fileId] */\n      0x00\n        /* \"smart-contracts/FileIntegrityRegistry.sol\":5424:5431  _fileId */\n      dup5\n        /* \"smart-contracts/FileIntegrityRegistry.sol\":5418:5432  files[_fileId] */\n      dup2\n      mstore\n      0x20\n      add\n      swap1\n      dup2\n      mstore\n      0x20\n      add\n      0x00\n      keccak256\n        /* \"smart-contracts/FileIntegrityRegistry.sol\":5418:5439  files[_fileId].exists */\n      0x05\n      add\n      0x00\n      swap1\n      sload\n      swap1\n      0x0100\n      exp\n      swap1\n      div\n      0xff\n      and\n        /* \"smart-contracts/FileIntegrityRegistry.sol\":5413:5466  if (!files[_fileId].exists) revert FileDoesNotExist() */\n      tag_120\n      jumpi\n        /* \"smart-contracts/FileIntegrityRegistry.sol\":5448:5466  FileDoesNotExist() */\n      mload(0x40)\n      0x3bcbb0de00000000000000000000000000000000000000000000000000000000\n      dup2\n      mstore\n      0x04\n      add\n      mload(0x40)\n      dup1\n      swap2\n      sub\n      swap1\n      revert\n        /* \"smart-contracts/FileIntegrityRegistry.sol\":5413:5466  if (!files[_fileId].exists) revert FileDoesNotExist() */\n    tag_120:\n        /* \"smart-contracts/FileIntegrityRegistry.sol\":5498:5499  0 */\n      0x00\n        /* \"smart-contracts/FileIntegrityRegistry.sol\":5480:5494  _versionNumber */\n      dup3\n        /* \"smart-contracts/FileIntegrityRegistry.sol\":5480:5499  _versionNumber == 0 */\n      eq\n        /* \"smart-contracts/FileIntegrityRegistry.sol\":5480:5554  _versionNumber == 0 || _versionNumber > files[_fileId].latestVersionNumber */\n      dup1\n      tag_121\n      jumpi\n      pop\n        /* \"smart-contracts/FileIntegrityRegistry.sol\":5520:5525  files */\n      0x01\n        /* \"smart-contracts/FileIntegrityRegistry.sol\":5520:5534  files[_fileId] */\n      0x00\n        /* \"smart-contracts/FileIntegrityRegistry.sol\":5526:5533  _fileId */\n      dup5\n        /* \"smart-contracts/FileIntegrityRegistry.sol\":5520:5534  files[_fileId] */\n      dup2\n      mstore\n      0x20\n      add\n      swap1\n      dup2\n      mstore\n      0x20\n      add\n      0x00\n      keccak256\n        /* \"smart-contracts/FileIntegrityRegistry.sol\":5520:5554  files[_fileId].latestVersionNumber */\n      0x04\n      add\n      sload\n        /* \"smart-contracts/FileIntegrityRegistry.sol\":5503:5517  _versionNumber */\n      dup3\n        /* \"smart-contracts/FileIntegrityRegistry.sol\":5503:5554  _versionNumber > files[_fileId].latestVersionNumber */\n      gt\n        /* \"smart-contracts/FileIntegrityRegistry.sol\":5480:5554  _versionNumber == 0 || _versionNumber > files[_fileId].latestVersionNumber */\n    tag_121:\n        /* \"smart-contracts/FileIntegrityRegistry.sol\":5476:5609  if (_versionNumber == 0 || _versionNumber > files[_fileId].latestVersionNumber) {... */\n      iszero\n      tag_122\n      jumpi\n        /* \"smart-contracts/FileIntegrityRegistry.sol\":5577:5598  VersionDoesNotExist() */\n      mload(0x40)\n      0x0a6b8aa300000000000000000000000000000000000000000000000000000000\n      dup2\n      mstore\n      0x04\n      add\n      mload(0x40)\n      dup1\n      swap2\n      sub\n      swap1\n      revert\n        /* \"smart-contracts/FileIntegrityRegistry.sol\":5476:5609  if (_versionNumber == 0 || _versionNumber > files[_fileId].latestVersionNumber) {... */\n    tag_122:\n        /* \"smart-contracts/FileIntegrityRegistry.sol\":5626:5638  fileVersions */\n      0x02\n        /* \"smart-contracts/FileIntegrityRegistry.sol\":5626:5647  fileVersions[_fileId] */\n      0x00\n        /* \"smart-contracts/FileIntegrityRegistry.sol\":5639:5646  _fileId */\n      dup5\n        /* \"smart-contracts/FileIntegrityRegistry.sol\":5626:5647  fileVersions[_fileId] */\n      dup2\n      mstore\n      0x20\n      add\n      swap1\n      dup2\n      mstore\n      0x20\n      add\n      0x00\n      keccak256\n        /* \"smart-contracts/FileIntegrityRegistry.sol\":5626:5663  fileVersions[_fileId][_versionNumber] */\n      0x00\n        /* \"smart-contracts/FileIntegrityRegistry.sol\":5648:5662  _versionNumber */\n      dup4\n        /* \"smart-contracts/FileIntegrityRegistry.sol\":5626:5663  fileVersions[_fileId][_versionNumber] */\n      dup2\n      mstore\n      0x20\n      add\n      swap1\n      dup2\n      mstore\n      0x20\n      add\n      0x00\n      keccak256\n        /* \"smart-contracts/FileIntegrityRegistry.sol\":5619:5663  return fileVersions[_fileId][_versionNumber] */\n      mload(0x40)\n      dup1\n      0xa0\n      add\n      0x40\n      mstore\n      swap1\n      dup2\n      0x00\n      dup3\n      add\n      sload\n      dup2\n      mstore\n      0x20\n      add\n      0x01\n      dup3\n      add\n      dup1\n      sload\n      tag_123\n      swap1\n      tag_96\n      jump\t// in\n    tag_123:\n      dup1\n      0x1f\n      add\n      0x20\n      dup1\n      swap2\n      div\n      mul\n      0x20\n      add\n      mload(0x40)\n      swap1\n      dup2\n      add\n      0x40\n      mstore\n      dup1\n      swap3\n      swap2\n      swap1\n      dup2\n      dup2\n      mstore\n      0x20\n      add\n      dup3\n      dup1\n      sload\n      tag_124\n      swap1\n      tag_96\n      jump\t// in\n    tag_124:\n      dup1\n      iszero\n      tag_125\n      jumpi\n      dup1\n      0x1f\n      lt\n      tag_126\n      jumpi\n      0x0100\n      dup1\n      dup4\n      sload\n      div\n      mul\n      dup4\n      mstore\n      swap2\n      0x20\n      add\n      swap2\n      jump(tag_125)\n    tag_126:\n      dup3\n      add\n      swap2\n      swap1\n      0x00\n      mstore\n      keccak256(0x00, 0x20)\n      swap1\n    tag_127:\n      dup2\n      sload\n      dup2\n      mstore\n      swap1\n      0x01\n      add\n      swap1\n      0x20\n      add\n      dup1\n      dup4\n      gt\n      tag_127\n      jumpi\n      dup3\n      swap1\n      sub\n      0x1f\n      and\n      dup3\n      add\n      swap2\n    tag_125:\n      pop\n      pop\n      pop\n      pop\n      pop\n      dup2\n      mstore\n      0x20\n      add\n      0x02\n      dup3\n      add\n      sload\n      dup2\n      mstore\n      0x20\n      add\n      0x03\n      dup3\n      add\n      sload\n      dup2\n      mstore\n      0x20\n      add\n      0x04\n      dup3\n      add\n      0x00\n      swap1\n      sload\n      swap1\n      0x0100\n      exp\n      swap1\n      div\n      0xffffffffffffffffffffffffffffffffffffffff\n      and\n      0xffffffffffffffffffffffffffffffffffffffff\n      and\n      0xffffffffffffffffffffffffffffffffffffffff\n      and\n      dup2\n      mstore\n      pop\n      pop\n      swap1\n      pop\n        /* \"smart-contracts/FileIntegrityRegistry.sol\":5273:5670  function getFileVersion(... */\n      swap3\n      swap2\n      pop\n      pop\n      jump\t// out\n    tag_92:\n      mload(0x40)\n      dup1\n      0xc0\n      add\n      0x40\n      mstore\n      dup1\n      0x00\n      dup2\n      mstore\n      0x20\n      add\n      0x60\n      dup2\n      mstore\n      0x20\n      add\n      0x60\n      dup2\n      mstore\n      0x20\n      add\n      and(0xffffffffffffffffffffffffffffffffffffffff, 0x00)\n      dup2\n      mstore\n      0x20\n      add\n      0x00\n      dup2\n      mstore\n      0x20\n      add\n      iszero(iszero(0x00))\n      dup2\n      mstore\n      pop\n      swap1\n      jump\t// out\n    tag_118:\n      mload(0x40)\n      dup1\n      0xa0\n      add\n      0x40\n      mstore\n      dup1\n      0x00\n      dup2\n      mstore\n      0x20\n      add\n      0x60\n      dup2\n      mstore\n      0x20\n      add\n      0x00\n      dup2\n      mstore\n      0x20\n      add\n      0x00\n      dup2\n      mstore\n      0x20\n      add\n      and(0xffffffffffffffffffffffffffffffffffffffff, 0x00)\n      dup2\n      mstore\n      pop\n      swap1\n      jump\t// out\n        /* \"#utility.yul\":7:82   */\n    tag_128:\n        /* \"#utility.yul\":40:46   */\n      0x00\n        /* \"#utility.yul\":73:75   */\n      0x40\n        /* \"#utility.yul\":67:76   */\n      mload\n        /* \"#utility.yul\":57:76   */\n      swap1\n      pop\n        /* \"#utility.yul\":7:82   */\n      swap1\n      jump\t// out\n        /* \"#utility.yul\":88:205   */\n    tag_129:\n        /* \"#utility.yul\":197:198   */\n      0x00\n        /* \"#utility.yul\":194:195   */\n      0x00\n        /* \"#utility.yul\":187:199   */\n      revert\n        /* \"#utility.yul\":211:328   */\n    tag_130:\n        /* \"#utility.yul\":320:321   */\n      0x00\n        /* \"#utility.yul\":317:318   */\n      0x00\n        /* \"#utility.yul\":310:322   */\n      revert\n        /* \"#utility.yul\":334:460   */\n    tag_131:\n        /* \"#utility.yul\":371:378   */\n      0x00\n        /* \"#utility.yul\":411:453   */\n      0xffffffffffffffffffffffffffffffffffffffff\n        /* \"#utility.yul\":404:409   */\n      dup3\n        /* \"#utility.yul\":400:454   */\n      and\n        /* \"#utility.yul\":389:454   */\n      swap1\n      pop\n        /* \"#utility.yul\":334:460   */\n      swap2\n      swap1\n      pop\n      jump\t// out\n        /* \"#utility.yul\":466:562   */\n    tag_132:\n        /* \"#utility.yul\":503:510   */\n      0x00\n        /* \"#utility.yul\":532:556   */\n      tag_191\n        /* \"#utility.yul\":550:555   */\n      dup3\n        /* \"#utility.yul\":532:556   */\n      tag_131\n      jump\t// in\n    tag_191:\n        /* \"#utility.yul\":521:556   */\n      swap1\n      pop\n        /* \"#utility.yul\":466:562   */\n      swap2\n      swap1\n      pop\n      jump\t// out\n        /* \"#utility.yul\":568:690   */\n    tag_133:\n        /* \"#utility.yul\":641:665   */\n      tag_193\n        /* \"#utility.yul\":659:664   */\n      dup2\n        /* \"#utility.yul\":641:665   */\n      tag_132\n      jump\t// in\n    tag_193:\n        /* \"#utility.yul\":634:639   */\n      dup2\n        /* \"#utility.yul\":631:666   */\n      eq\n        /* \"#utility.yul\":621:684   */\n      tag_194\n      jumpi\n        /* \"#utility.yul\":680:681   */\n      0x00\n        /* \"#utility.yul\":677:678   */\n      0x00\n        /* \"#utility.yul\":670:682   */\n      revert\n        /* \"#utility.yul\":621:684   */\n    tag_194:\n        /* \"#utility.yul\":568:690   */\n      pop\n      jump\t// out\n        /* \"#utility.yul\":696:835   */\n    tag_134:\n        /* \"#utility.yul\":742:747   */\n      0x00\n        /* \"#utility.yul\":780:786   */\n      dup2\n        /* \"#utility.yul\":767:787   */\n      calldataload\n        /* \"#utility.yul\":758:787   */\n      swap1\n      pop\n        /* \"#utility.yul\":796:829   */\n      tag_196\n        /* \"#utility.yul\":823:828   */\n      dup2\n        /* \"#utility.yul\":796:829   */\n      tag_133\n      jump\t// in\n    tag_196:\n        /* \"#utility.yul\":696:835   */\n      swap3\n      swap2\n      pop\n      pop\n      jump\t// out\n        /* \"#utility.yul\":841:1170   */\n    tag_16:\n        /* \"#utility.yul\":900:906   */\n      0x00\n        /* \"#utility.yul\":949:951   */\n      0x20\n        /* \"#utility.yul\":937:946   */\n      dup3\n        /* \"#utility.yul\":928:935   */\n      dup5\n        /* \"#utility.yul\":924:947   */\n      sub\n        /* \"#utility.yul\":920:952   */\n      slt\n        /* \"#utility.yul\":917:1036   */\n      iszero\n      tag_198\n      jumpi\n        /* \"#utility.yul\":955:1034   */\n      tag_199\n      tag_129\n      jump\t// in\n    tag_199:\n        /* \"#utility.yul\":917:1036   */\n    tag_198:\n        /* \"#utility.yul\":1075:1076   */\n      0x00\n        /* \"#utility.yul\":1100:1153   */\n      tag_200\n        /* \"#utility.yul\":1145:1152   */\n      dup5\n        /* \"#utility.yul\":1136:1142   */\n      dup3\n        /* \"#utility.yul\":1125:1134   */\n      dup6\n        /* \"#utility.yul\":1121:1143   */\n      add\n        /* \"#utility.yul\":1100:1153   */\n      tag_134\n      jump\t// in\n    tag_200:\n        /* \"#utility.yul\":1090:1153   */\n      swap2\n      pop\n        /* \"#utility.yul\":1046:1163   */\n      pop\n        /* \"#utility.yul\":841:1170   */\n      swap3\n      swap2\n      pop\n      pop\n      jump\t// out\n        /* \"#utility.yul\":1176:1266   */\n    tag_135:\n        /* \"#utility.yul\":1210:1217   */\n      0x00\n        /* \"#utility.yul\":1253:1258   */\n      dup2\n        /* \"#utility.yul\":1246:1259   */\n      iszero\n        /* \"#utility.yul\":1239:1260   */\n      iszero\n        /* \"#utility.yul\":1228:1260   */\n      swap1\n      pop\n        /* \"#utility.yul\":1176:1266   */\n      swap2\n      swap1\n      pop\n      jump\t// out\n        /* \"#utility.yul\":1272:1381   */\n    tag_136:\n        /* \"#utility.yul\":1353:1374   */\n      tag_203\n        /* \"#utility.yul\":1368:1373   */\n      dup2\n        /* \"#utility.yul\":1353:1374   */\n      tag_135\n      jump\t// in\n    tag_203:\n        /* \"#utility.yul\":1348:1351   */\n      dup3\n        /* \"#utility.yul\":1341:1375   */\n      mstore\n        /* \"#utility.yul\":1272:1381   */\n      pop\n      pop\n      jump\t// out\n        /* \"#utility.yul\":1387:1597   */\n    tag_22:\n        /* \"#utility.yul\":1474:1478   */\n      0x00\n        /* \"#utility.yul\":1512:1514   */\n      0x20\n        /* \"#utility.yul\":1501:1510   */\n      dup3\n        /* \"#utility.yul\":1497:1515   */\n      add\n        /* \"#utility.yul\":1489:1515   */\n      swap1\n      pop\n        /* \"#utility.yul\":1525:1590   */\n      tag_205\n        /* \"#utility.yul\":1587:1588   */\n      0x00\n        /* \"#utility.yul\":1576:1585   */\n      dup4\n        /* \"#utility.yul\":1572:1589   */\n      add\n        /* \"#utility.yul\":1563:1569   */\n      dup5\n        /* \"#utility.yul\":1525:1590   */\n      tag_136\n      jump\t// in\n    tag_205:\n        /* \"#utility.yul\":1387:1597   */\n      swap3\n      swap2\n      pop\n      pop\n      jump\t// out\n        /* \"#utility.yul\":1603:1720   */\n    tag_137:\n        /* \"#utility.yul\":1712:1713   */\n      0x00\n        /* \"#utility.yul\":1709:1710   */\n      0x00\n        /* \"#utility.yul\":1702:1714   */\n      revert\n        /* \"#utility.yul\":1726:1843   */\n    tag_138:\n        /* \"#utility.yul\":1835:1836   */\n      0x00\n        /* \"#utility.yul\":1832:1833   */\n      0x00\n        /* \"#utility.yul\":1825:1837   */\n      revert\n        /* \"#utility.yul\":1849:1951   */\n    tag_139:\n        /* \"#utility.yul\":1890:1896   */\n      0x00\n        /* \"#utility.yul\":1941:1943   */\n      0x1f\n        /* \"#utility.yul\":1937:1944   */\n      not\n        /* \"#utility.yul\":1932:1934   */\n      0x1f\n        /* \"#utility.yul\":1925:1930   */\n      dup4\n        /* \"#utility.yul\":1921:1935   */\n      add\n        /* \"#utility.yul\":1917:1945   */\n      and\n        /* \"#utility.yul\":1907:1945   */\n      swap1\n      pop\n        /* \"#utility.yul\":1849:1951   */\n      swap2\n      swap1\n      pop\n      jump\t// out\n        /* \"#utility.yul\":1957:2137   */\n    tag_140:\n        /* \"#utility.yul\":2005:2082   */\n      0x4e487b7100000000000000000000000000000000000000000000000000000000\n        /* \"#utility.yul\":2002:2003   */\n      0x00\n        /* \"#utility.yul\":1995:2083   */\n      mstore\n        /* \"#utility.yul\":2102:2106   */\n      0x41\n        /* \"#utility.yul\":2099:2100   */\n      0x04\n        /* \"#utility.yul\":2092:2107   */\n      mstore\n        /* \"#utility.yul\":2126:2130   */\n      0x24\n        /* \"#utility.yul\":2123:2124   */\n      0x00\n        /* \"#utility.yul\":2116:2131   */\n      revert\n        /* \"#utility.yul\":2143:2424   */\n    tag_141:\n        /* \"#utility.yul\":2226:2253   */\n      tag_211\n        /* \"#utility.yul\":2248:2252   */\n      dup3\n        /* \"#utility.yul\":2226:2253   */\n      tag_139\n      jump\t// in\n    tag_211:\n        /* \"#utility.yul\":2218:2224   */\n      dup2\n        /* \"#utility.yul\":2214:2254   */\n      add\n        /* \"#utility.yul\":2356:2362   */\n      dup2\n        /* \"#utility.yul\":2344:2354   */\n      dup2\n        /* \"#utility.yul\":2341:2363   */\n      lt\n        /* \"#utility.yul\":2320:2338   */\n      0xffffffffffffffff\n        /* \"#utility.yul\":2308:2318   */\n      dup3\n        /* \"#utility.yul\":2305:2339   */\n      gt\n        /* \"#utility.yul\":2302:2364   */\n      or\n        /* \"#utility.yul\":2299:2387   */\n      iszero\n      tag_212\n      jumpi\n        /* \"#utility.yul\":2367:2385   */\n      tag_213\n      tag_140\n      jump\t// in\n    tag_213:\n        /* \"#utility.yul\":2299:2387   */\n    tag_212:\n        /* \"#utility.yul\":2407:2417   */\n      dup1\n        /* \"#utility.yul\":2403:2405   */\n      0x40\n        /* \"#utility.yul\":2396:2418   */\n      mstore\n        /* \"#utility.yul\":2186:2424   */\n      pop\n        /* \"#utility.yul\":2143:2424   */\n      pop\n      pop\n      jump\t// out\n        /* \"#utility.yul\":2430:2559   */\n    tag_142:\n        /* \"#utility.yul\":2464:2470   */\n      0x00\n        /* \"#utility.yul\":2491:2511   */\n      tag_215\n      tag_128\n      jump\t// in\n    tag_215:\n        /* \"#utility.yul\":2481:2511   */\n      swap1\n      pop\n        /* \"#utility.yul\":2520:2553   */\n      tag_216\n        /* \"#utility.yul\":2548:2552   */\n      dup3\n        /* \"#utility.yul\":2540:2546   */\n      dup3\n        /* \"#utility.yul\":2520:2553   */\n      tag_141\n      jump\t// in\n    tag_216:\n        /* \"#utility.yul\":2430:2559   */\n      swap2\n      swap1\n      pop\n      jump\t// out\n        /* \"#utility.yul\":2565:2873   */\n    tag_143:\n        /* \"#utility.yul\":2627:2631   */\n      0x00\n        /* \"#utility.yul\":2717:2735   */\n      0xffffffffffffffff\n        /* \"#utility.yul\":2709:2715   */\n      dup3\n        /* \"#utility.yul\":2706:2736   */\n      gt\n        /* \"#utility.yul\":2703:2759   */\n      iszero\n      tag_218\n      jumpi\n        /* \"#utility.yul\":2739:2757   */\n      tag_219\n      tag_140\n      jump\t// in\n    tag_219:\n        /* \"#utility.yul\":2703:2759   */\n    tag_218:\n        /* \"#utility.yul\":2777:2806   */\n      tag_220\n        /* \"#utility.yul\":2799:2805   */\n      dup3\n        /* \"#utility.yul\":2777:2806   */\n      tag_139\n      jump\t// in\n    tag_220:\n        /* \"#utility.yul\":2769:2806   */\n      swap1\n      pop\n        /* \"#utility.yul\":2861:2865   */\n      0x20\n        /* \"#utility.yul\":2855:2859   */\n      dup2\n        /* \"#utility.yul\":2851:2866   */\n      add\n        /* \"#utility.yul\":2843:2866   */\n      swap1\n      pop\n        /* \"#utility.yul\":2565:2873   */\n      swap2\n      swap1\n      pop\n      jump\t// out\n        /* \"#utility.yul\":2879:3027   */\n    tag_144:\n        /* \"#utility.yul\":2977:2983   */\n      dup3\n        /* \"#utility.yul\":2972:2975   */\n      dup2\n        /* \"#utility.yul\":2967:2970   */\n      dup4\n        /* \"#utility.yul\":2954:2984   */\n      calldatacopy\n        /* \"#utility.yul\":3018:3019   */\n      0x00\n        /* \"#utility.yul\":3009:3015   */\n      dup4\n        /* \"#utility.yul\":3004:3007   */\n      dup4\n        /* \"#utility.yul\":3000:3016   */\n      add\n        /* \"#utility.yul\":2993:3020   */\n      mstore\n        /* \"#utility.yul\":2879:3027   */\n      pop\n      pop\n      pop\n      jump\t// out\n        /* \"#utility.yul\":3033:3458   */\n    tag_145:\n        /* \"#utility.yul\":3111:3116   */\n      0x00\n        /* \"#utility.yul\":3136:3202   */\n      tag_223\n        /* \"#utility.yul\":3152:3201   */\n      tag_224\n        /* \"#utility.yul\":3194:3200   */\n      dup5\n        /* \"#utility.yul\":3152:3201   */\n      tag_143\n      jump\t// in\n    tag_224:\n        /* \"#utility.yul\":3136:3202   */\n      tag_142\n      jump\t// in\n    tag_223:\n        /* \"#utility.yul\":3127:3202   */\n      swap1\n      pop\n        /* \"#utility.yul\":3225:3231   */\n      dup3\n        /* \"#utility.yul\":3218:3223   */\n      dup2\n        /* \"#utility.yul\":3211:3232   */\n      mstore\n        /* \"#utility.yul\":3263:3267   */\n      0x20\n        /* \"#utility.yul\":3256:3261   */\n      dup2\n        /* \"#utility.yul\":3252:3268   */\n      add\n        /* \"#utility.yul\":3301:3304   */\n      dup5\n        /* \"#utility.yul\":3292:3298   */\n      dup5\n        /* \"#utility.yul\":3287:3290   */\n      dup5\n        /* \"#utility.yul\":3283:3299   */\n      add\n        /* \"#utility.yul\":3280:3305   */\n      gt\n        /* \"#utility.yul\":3277:3389   */\n      iszero\n      tag_225\n      jumpi\n        /* \"#utility.yul\":3308:3387   */\n      tag_226\n      tag_138\n      jump\t// in\n    tag_226:\n        /* \"#utility.yul\":3277:3389   */\n    tag_225:\n        /* \"#utility.yul\":3398:3452   */\n      tag_227\n        /* \"#utility.yul\":3445:3451   */\n      dup5\n        /* \"#utility.yul\":3440:3443   */\n      dup3\n        /* \"#utility.yul\":3435:3438   */\n      dup6\n        /* \"#utility.yul\":3398:3452   */\n      tag_144\n      jump\t// in\n    tag_227:\n        /* \"#utility.yul\":3117:3458   */\n      pop\n        /* \"#utility.yul\":3033:3458   */\n      swap4\n      swap3\n      pop\n      pop\n      pop\n      jump\t// out\n        /* \"#utility.yul\":3478:3818   */\n    tag_146:\n        /* \"#utility.yul\":3534:3539   */\n      0x00\n        /* \"#utility.yul\":3583:3586   */\n      dup3\n        /* \"#utility.yul\":3576:3580   */\n      0x1f\n        /* \"#utility.yul\":3568:3574   */\n      dup4\n        /* \"#utility.yul\":3564:3581   */\n      add\n        /* \"#utility.yul\":3560:3587   */\n      slt\n        /* \"#utility.yul\":3550:3672   */\n      tag_229\n      jumpi\n        /* \"#utility.yul\":3591:3670   */\n      tag_230\n      tag_137\n      jump\t// in\n    tag_230:\n        /* \"#utility.yul\":3550:3672   */\n    tag_229:\n        /* \"#utility.yul\":3708:3714   */\n      dup2\n        /* \"#utility.yul\":3695:3715   */\n      calldataload\n        /* \"#utility.yul\":3733:3812   */\n      tag_231\n        /* \"#utility.yul\":3808:3811   */\n      dup5\n        /* \"#utility.yul\":3800:3806   */\n      dup3\n        /* \"#utility.yul\":3793:3797   */\n      0x20\n        /* \"#utility.yul\":3785:3791   */\n      dup7\n        /* \"#utility.yul\":3781:3798   */\n      add\n        /* \"#utility.yul\":3733:3812   */\n      tag_145\n      jump\t// in\n    tag_231:\n        /* \"#utility.yul\":3724:3812   */\n      swap2\n      pop\n        /* \"#utility.yul\":3540:3818   */\n      pop\n        /* \"#utility.yul\":3478:3818   */\n      swap3\n      swap2\n      pop\n      pop\n      jump\t// out\n        /* \"#utility.yul\":3824:3901   */\n    tag_147:\n        /* \"#utility.yul\":3861:3868   */\n      0x00\n        /* \"#utility.yul\":3890:3895   */\n      dup2\n        /* \"#utility.yul\":3879:3895   */\n      swap1\n      pop\n        /* \"#utility.yul\":3824:3901   */\n      swap2\n      swap1\n      pop\n      jump\t// out\n        /* \"#utility.yul\":3907:4029   */\n    tag_148:\n        /* \"#utility.yul\":3980:4004   */\n      tag_234\n        /* \"#utility.yul\":3998:4003   */\n      dup2\n        /* \"#utility.yul\":3980:4004   */\n      tag_147\n      jump\t// in\n    tag_234:\n        /* \"#utility.yul\":3973:3978   */\n      dup2\n        /* \"#utility.yul\":3970:4005   */\n      eq\n        /* \"#utility.yul\":3960:4023   */\n      tag_235\n      jumpi\n        /* \"#utility.yul\":4019:4020   */\n      0x00\n        /* \"#utility.yul\":4016:4017   */\n      0x00\n        /* \"#utility.yul\":4009:4021   */\n      revert\n        /* \"#utility.yul\":3960:4023   */\n    tag_235:\n        /* \"#utility.yul\":3907:4029   */\n      pop\n      jump\t// out\n        /* \"#utility.yul\":4035:4174   */\n    tag_149:\n        /* \"#utility.yul\":4081:4086   */\n      0x00\n        /* \"#utility.yul\":4119:4125   */\n      dup2\n        /* \"#utility.yul\":4106:4126   */\n      calldataload\n        /* \"#utility.yul\":4097:4126   */\n      swap1\n      pop\n        /* \"#utility.yul\":4135:4168   */\n      tag_237\n        /* \"#utility.yul\":4162:4167   */\n      dup2\n        /* \"#utility.yul\":4135:4168   */\n      tag_148\n      jump\t// in\n    tag_237:\n        /* \"#utility.yul\":4035:4174   */\n      swap3\n      swap2\n      pop\n      pop\n      jump\t// out\n        /* \"#utility.yul\":4180:4257   */\n    tag_150:\n        /* \"#utility.yul\":4217:4224   */\n      0x00\n        /* \"#utility.yul\":4246:4251   */\n      dup2\n        /* \"#utility.yul\":4235:4251   */\n      swap1\n      pop\n        /* \"#utility.yul\":4180:4257   */\n      swap2\n      swap1\n      pop\n      jump\t// out\n        /* \"#utility.yul\":4263:4385   */\n    tag_151:\n        /* \"#utility.yul\":4336:4360   */\n      tag_240\n        /* \"#utility.yul\":4354:4359   */\n      dup2\n        /* \"#utility.yul\":4336:4360   */\n      tag_150\n      jump\t// in\n    tag_240:\n        /* \"#utility.yul\":4329:4334   */\n      dup2\n        /* \"#utility.yul\":4326:4361   */\n      eq\n        /* \"#utility.yul\":4316:4379   */\n      tag_241\n      jumpi\n        /* \"#utility.yul\":4375:4376   */\n      0x00\n        /* \"#utility.yul\":4372:4373   */\n      0x00\n        /* \"#utility.yul\":4365:4377   */\n      revert\n        /* \"#utility.yul\":4316:4379   */\n    tag_241:\n        /* \"#utility.yul\":4263:4385   */\n      pop\n      jump\t// out\n        /* \"#utility.yul\":4391:4530   */\n    tag_152:\n        /* \"#utility.yul\":4437:4442   */\n      0x00\n        /* \"#utility.yul\":4475:4481   */\n      dup2\n        /* \"#utility.yul\":4462:4482   */\n      calldataload\n        /* \"#utility.yul\":4453:4482   */\n      swap1\n      pop\n        /* \"#utility.yul\":4491:4524   */\n      tag_243\n        /* \"#utility.yul\":4518:4523   */\n      dup2\n        /* \"#utility.yul\":4491:4524   */\n      tag_151\n      jump\t// in\n    tag_243:\n        /* \"#utility.yul\":4391:4530   */\n      swap3\n      swap2\n      pop\n      pop\n      jump\t// out\n        /* \"#utility.yul\":4536:5987   */\n    tag_25:\n        /* \"#utility.yul\":4661:4667   */\n      0x00\n        /* \"#utility.yul\":4669:4675   */\n      0x00\n        /* \"#utility.yul\":4677:4683   */\n      0x00\n        /* \"#utility.yul\":4685:4691   */\n      0x00\n        /* \"#utility.yul\":4693:4699   */\n      0x00\n        /* \"#utility.yul\":4742:4745   */\n      0xa0\n        /* \"#utility.yul\":4730:4739   */\n      dup7\n        /* \"#utility.yul\":4721:4728   */\n      dup9\n        /* \"#utility.yul\":4717:4740   */\n      sub\n        /* \"#utility.yul\":4713:4746   */\n      slt\n        /* \"#utility.yul\":4710:4830   */\n      iszero\n      tag_245\n      jumpi\n        /* \"#utility.yul\":4749:4828   */\n      tag_246\n      tag_129\n      jump\t// in\n    tag_246:\n        /* \"#utility.yul\":4710:4830   */\n    tag_245:\n        /* \"#utility.yul\":4897:4898   */\n      0x00\n        /* \"#utility.yul\":4886:4895   */\n      dup7\n        /* \"#utility.yul\":4882:4899   */\n      add\n        /* \"#utility.yul\":4869:4900   */\n      calldataload\n        /* \"#utility.yul\":4927:4945   */\n      0xffffffffffffffff\n        /* \"#utility.yul\":4919:4925   */\n      dup2\n        /* \"#utility.yul\":4916:4946   */\n      gt\n        /* \"#utility.yul\":4913:5030   */\n      iszero\n      tag_247\n      jumpi\n        /* \"#utility.yul\":4949:5028   */\n      tag_248\n      tag_130\n      jump\t// in\n    tag_248:\n        /* \"#utility.yul\":4913:5030   */\n    tag_247:\n        /* \"#utility.yul\":5054:5117   */\n      tag_249\n        /* \"#utility.yul\":5109:5116   */\n      dup9\n        /* \"#utility.yul\":5100:5106   */\n      dup3\n        /* \"#utility.yul\":5089:5098   */\n      dup10\n        /* \"#utility.yul\":5085:5107   */\n      add\n        /* \"#utility.yul\":5054:5117   */\n      tag_146\n      jump\t// in\n    tag_249:\n        /* \"#utility.yul\":5044:5117   */\n      swap6\n      pop\n        /* \"#utility.yul\":4840:5127   */\n      pop\n        /* \"#utility.yul\":5194:5196   */\n      0x20\n        /* \"#utility.yul\":5183:5192   */\n      dup7\n        /* \"#utility.yul\":5179:5197   */\n      add\n        /* \"#utility.yul\":5166:5198   */\n      calldataload\n        /* \"#utility.yul\":5225:5243   */\n      0xffffffffffffffff\n        /* \"#utility.yul\":5217:5223   */\n      dup2\n        /* \"#utility.yul\":5214:5244   */\n      gt\n        /* \"#utility.yul\":5211:5328   */\n      iszero\n      tag_250\n      jumpi\n        /* \"#utility.yul\":5247:5326   */\n      tag_251\n      tag_130\n      jump\t// in\n    tag_251:\n        /* \"#utility.yul\":5211:5328   */\n    tag_250:\n        /* \"#utility.yul\":5352:5415   */\n      tag_252\n        /* \"#utility.yul\":5407:5414   */\n      dup9\n        /* \"#utility.yul\":5398:5404   */\n      dup3\n        /* \"#utility.yul\":5387:5396   */\n      dup10\n        /* \"#utility.yul\":5383:5405   */\n      add\n        /* \"#utility.yul\":5352:5415   */\n      tag_146\n      jump\t// in\n    tag_252:\n        /* \"#utility.yul\":5342:5415   */\n      swap5\n      pop\n        /* \"#utility.yul\":5137:5425   */\n      pop\n        /* \"#utility.yul\":5464:5466   */\n      0x40\n        /* \"#utility.yul\":5490:5543   */\n      tag_253\n        /* \"#utility.yul\":5535:5542   */\n      dup9\n        /* \"#utility.yul\":5526:5532   */\n      dup3\n        /* \"#utility.yul\":5515:5524   */\n      dup10\n        /* \"#utility.yul\":5511:5533   */\n      add\n        /* \"#utility.yul\":5490:5543   */\n      tag_149\n      jump\t// in\n    tag_253:\n        /* \"#utility.yul\":5480:5543   */\n      swap4\n      pop\n        /* \"#utility.yul\":5435:5553   */\n      pop\n        /* \"#utility.yul\":5592:5594   */\n      0x60\n        /* \"#utility.yul\":5618:5671   */\n      tag_254\n        /* \"#utility.yul\":5663:5670   */\n      dup9\n        /* \"#utility.yul\":5654:5660   */\n      dup3\n        /* \"#utility.yul\":5643:5652   */\n      dup10\n        /* \"#utility.yul\":5639:5661   */\n      add\n        /* \"#utility.yul\":5618:5671   */\n      tag_152\n      jump\t// in\n    tag_254:\n        /* \"#utility.yul\":5608:5671   */\n      swap3\n      pop\n        /* \"#utility.yul\":5563:5681   */\n      pop\n        /* \"#utility.yul\":5748:5751   */\n      0x80\n        /* \"#utility.yul\":5737:5746   */\n      dup7\n        /* \"#utility.yul\":5733:5752   */\n      add\n        /* \"#utility.yul\":5720:5753   */\n      calldataload\n        /* \"#utility.yul\":5780:5798   */\n      0xffffffffffffffff\n        /* \"#utility.yul\":5772:5778   */\n      dup2\n        /* \"#utility.yul\":5769:5799   */\n      gt\n        /* \"#utility.yul\":5766:5883   */\n      iszero\n      tag_255\n      jumpi\n        /* \"#utility.yul\":5802:5881   */\n      tag_256\n      tag_130\n      jump\t// in\n    tag_256:\n        /* \"#utility.yul\":5766:5883   */\n    tag_255:\n        /* \"#utility.yul\":5907:5970   */\n      tag_257\n        /* \"#utility.yul\":5962:5969   */\n      dup9\n        /* \"#utility.yul\":5953:5959   */\n      dup3\n        /* \"#utility.yul\":5942:5951   */\n      dup10\n        /* \"#utility.yul\":5938:5960   */\n      add\n        /* \"#utility.yul\":5907:5970   */\n      tag_146\n      jump\t// in\n    tag_257:\n        /* \"#utility.yul\":5897:5970   */\n      swap2\n      pop\n        /* \"#utility.yul\":5691:5980   */\n      pop\n        /* \"#utility.yul\":4536:5987   */\n      swap3\n      swap6\n      pop\n      swap3\n      swap6\n      swap1\n      swap4\n      pop\n      jump\t// out\n        /* \"#utility.yul\":5993:6322   */\n    tag_32:\n        /* \"#utility.yul\":6052:6058   */\n      0x00\n        /* \"#utility.yul\":6101:6103   */\n      0x20\n        /* \"#utility.yul\":6089:6098   */\n      dup3\n        /* \"#utility.yul\":6080:6087   */\n      dup5\n        /* \"#utility.yul\":6076:6099   */\n      sub\n        /* \"#utility.yul\":6072:6104   */\n      slt\n        /* \"#utility.yul\":6069:6188   */\n      iszero\n      tag_259\n      jumpi\n        /* \"#utility.yul\":6107:6186   */\n      tag_260\n      tag_129\n      jump\t// in\n    tag_260:\n        /* \"#utility.yul\":6069:6188   */\n    tag_259:\n        /* \"#utility.yul\":6227:6228   */\n      0x00\n        /* \"#utility.yul\":6252:6305   */\n      tag_261\n        /* \"#utility.yul\":6297:6304   */\n      dup5\n        /* \"#utility.yul\":6288:6294   */\n      dup3\n        /* \"#utility.yul\":6277:6286   */\n      dup6\n        /* \"#utility.yul\":6273:6295   */\n      add\n        /* \"#utility.yul\":6252:6305   */\n      tag_149\n      jump\t// in\n    tag_261:\n        /* \"#utility.yul\":6242:6305   */\n      swap2\n      pop\n        /* \"#utility.yul\":6198:6315   */\n      pop\n        /* \"#utility.yul\":5993:6322   */\n      swap3\n      swap2\n      pop\n      pop\n      jump\t// out\n        /* \"#utility.yul\":6328:6436   */\n    tag_153:\n        /* \"#utility.yul\":6405:6429   */\n      tag_263\n        /* \"#utility.yul\":6423:6428   */\n      dup2\n        /* \"#utility.yul\":6405:6429   */\n      tag_147\n      jump\t// in\n    tag_263:\n        /* \"#utility.yul\":6400:6403   */\n      dup3\n        /* \"#utility.yul\":6393:6430   */\n      mstore\n        /* \"#utility.yul\":6328:6436   */\n      pop\n      pop\n      jump\t// out\n        /* \"#utility.yul\":6442:6541   */\n    tag_154:\n        /* \"#utility.yul\":6494:6500   */\n      0x00\n        /* \"#utility.yul\":6528:6533   */\n      dup2\n        /* \"#utility.yul\":6522:6534   */\n      mload\n        /* \"#utility.yul\":6512:6534   */\n      swap1\n      pop\n        /* \"#utility.yul\":6442:6541   */\n      swap2\n      swap1\n      pop\n      jump\t// out\n        /* \"#utility.yul\":6547:6706   */\n    tag_155:\n        /* \"#utility.yul\":6621:6632   */\n      0x00\n        /* \"#utility.yul\":6655:6661   */\n      dup3\n        /* \"#utility.yul\":6650:6653   */\n      dup3\n        /* \"#utility.yul\":6643:6662   */\n      mstore\n        /* \"#utility.yul\":6695:6699   */\n      0x20\n        /* \"#utility.yul\":6690:6693   */\n      dup3\n        /* \"#utility.yul\":6686:6700   */\n      add\n        /* \"#utility.yul\":6671:6700   */\n      swap1\n      pop\n        /* \"#utility.yul\":6547:6706   */\n      swap3\n      swap2\n      pop\n      pop\n      jump\t// out\n        /* \"#utility.yul\":6712:6851   */\n    tag_156:\n        /* \"#utility.yul\":6801:6807   */\n      dup3\n        /* \"#utility.yul\":6796:6799   */\n      dup2\n        /* \"#utility.yul\":6791:6794   */\n      dup4\n        /* \"#utility.yul\":6785:6808   */\n      mcopy\n        /* \"#utility.yul\":6842:6843   */\n      0x00\n        /* \"#utility.yul\":6833:6839   */\n      dup4\n        /* \"#utility.yul\":6828:6831   */\n      dup4\n        /* \"#utility.yul\":6824:6840   */\n      add\n        /* \"#utility.yul\":6817:6844   */\n      mstore\n        /* \"#utility.yul\":6712:6851   */\n      pop\n      pop\n      pop\n      jump\t// out\n        /* \"#utility.yul\":6857:7214   */\n    tag_157:\n        /* \"#utility.yul\":6935:6938   */\n      0x00\n        /* \"#utility.yul\":6963:7002   */\n      tag_268\n        /* \"#utility.yul\":6996:7001   */\n      dup3\n        /* \"#utility.yul\":6963:7002   */\n      tag_154\n      jump\t// in\n    tag_268:\n        /* \"#utility.yul\":7018:7079   */\n      tag_269\n        /* \"#utility.yul\":7072:7078   */\n      dup2\n        /* \"#utility.yul\":7067:7070   */\n      dup6\n        /* \"#utility.yul\":7018:7079   */\n      tag_155\n      jump\t// in\n    tag_269:\n        /* \"#utility.yul\":7011:7079   */\n      swap4\n      pop\n        /* \"#utility.yul\":7088:7153   */\n      tag_270\n        /* \"#utility.yul\":7146:7152   */\n      dup2\n        /* \"#utility.yul\":7141:7144   */\n      dup6\n        /* \"#utility.yul\":7134:7138   */\n      0x20\n        /* \"#utility.yul\":7127:7132   */\n      dup7\n        /* \"#utility.yul\":7123:7139   */\n      add\n        /* \"#utility.yul\":7088:7153   */\n      tag_156\n      jump\t// in\n    tag_270:\n        /* \"#utility.yul\":7178:7207   */\n      tag_271\n        /* \"#utility.yul\":7200:7206   */\n      dup2\n        /* \"#utility.yul\":7178:7207   */\n      tag_139\n      jump\t// in\n    tag_271:\n        /* \"#utility.yul\":7173:7176   */\n      dup5\n        /* \"#utility.yul\":7169:7208   */\n      add\n        /* \"#utility.yul\":7162:7208   */\n      swap2\n      pop\n        /* \"#utility.yul\":6939:7214   */\n      pop\n        /* \"#utility.yul\":6857:7214   */\n      swap3\n      swap2\n      pop\n      pop\n      jump\t// out\n        /* \"#utility.yul\":7220:7328   */\n    tag_158:\n        /* \"#utility.yul\":7297:7321   */\n      tag_273\n        /* \"#utility.yul\":7315:7320   */\n      dup2\n        /* \"#utility.yul\":7297:7321   */\n      tag_132\n      jump\t// in\n    tag_273:\n        /* \"#utility.yul\":7292:7295   */\n      dup3\n        /* \"#utility.yul\":7285:7322   */\n      mstore\n        /* \"#utility.yul\":7220:7328   */\n      pop\n      pop\n      jump\t// out\n        /* \"#utility.yul\":7334:7433   */\n    tag_159:\n        /* \"#utility.yul\":7405:7426   */\n      tag_275\n        /* \"#utility.yul\":7420:7425   */\n      dup2\n        /* \"#utility.yul\":7405:7426   */\n      tag_135\n      jump\t// in\n    tag_275:\n        /* \"#utility.yul\":7400:7403   */\n      dup3\n        /* \"#utility.yul\":7393:7427   */\n      mstore\n        /* \"#utility.yul\":7334:7433   */\n      pop\n      pop\n      jump\t// out\n        /* \"#utility.yul\":7473:8863   */\n    tag_160:\n        /* \"#utility.yul\":7582:7585   */\n      0x00\n        /* \"#utility.yul\":7618:7622   */\n      0xc0\n        /* \"#utility.yul\":7613:7616   */\n      dup4\n        /* \"#utility.yul\":7609:7623   */\n      add\n        /* \"#utility.yul\":7707:7711   */\n      0x00\n        /* \"#utility.yul\":7700:7705   */\n      dup4\n        /* \"#utility.yul\":7696:7712   */\n      add\n        /* \"#utility.yul\":7690:7713   */\n      mload\n        /* \"#utility.yul\":7726:7789   */\n      tag_277\n        /* \"#utility.yul\":7783:7787   */\n      0x00\n        /* \"#utility.yul\":7778:7781   */\n      dup7\n        /* \"#utility.yul\":7774:7788   */\n      add\n        /* \"#utility.yul\":7760:7772   */\n      dup3\n        /* \"#utility.yul\":7726:7789   */\n      tag_153\n      jump\t// in\n    tag_277:\n        /* \"#utility.yul\":7633:7799   */\n      pop\n        /* \"#utility.yul\":7881:7885   */\n      0x20\n        /* \"#utility.yul\":7874:7879   */\n      dup4\n        /* \"#utility.yul\":7870:7886   */\n      add\n        /* \"#utility.yul\":7864:7887   */\n      mload\n        /* \"#utility.yul\":7934:7937   */\n      dup5\n        /* \"#utility.yul\":7928:7932   */\n      dup3\n        /* \"#utility.yul\":7924:7938   */\n      sub\n        /* \"#utility.yul\":7917:7921   */\n      0x20\n        /* \"#utility.yul\":7912:7915   */\n      dup7\n        /* \"#utility.yul\":7908:7922   */\n      add\n        /* \"#utility.yul\":7901:7939   */\n      mstore\n        /* \"#utility.yul\":7960:8033   */\n      tag_278\n        /* \"#utility.yul\":8028:8032   */\n      dup3\n        /* \"#utility.yul\":8014:8026   */\n      dup3\n        /* \"#utility.yul\":7960:8033   */\n      tag_157\n      jump\t// in\n    tag_278:\n        /* \"#utility.yul\":7952:8033   */\n      swap2\n      pop\n        /* \"#utility.yul\":7809:8044   */\n      pop\n        /* \"#utility.yul\":8133:8137   */\n      0x40\n        /* \"#utility.yul\":8126:8131   */\n      dup4\n        /* \"#utility.yul\":8122:8138   */\n      add\n        /* \"#utility.yul\":8116:8139   */\n      mload\n        /* \"#utility.yul\":8186:8189   */\n      dup5\n        /* \"#utility.yul\":8180:8184   */\n      dup3\n        /* \"#utility.yul\":8176:8190   */\n      sub\n        /* \"#utility.yul\":8169:8173   */\n      0x40\n        /* \"#utility.yul\":8164:8167   */\n      dup7\n        /* \"#utility.yul\":8160:8174   */\n      add\n        /* \"#utility.yul\":8153:8191   */\n      mstore\n        /* \"#utility.yul\":8212:8285   */\n      tag_279\n        /* \"#utility.yul\":8280:8284   */\n      dup3\n        /* \"#utility.yul\":8266:8278   */\n      dup3\n        /* \"#utility.yul\":8212:8285   */\n      tag_157\n      jump\t// in\n    tag_279:\n        /* \"#utility.yul\":8204:8285   */\n      swap2\n      pop\n        /* \"#utility.yul\":8054:8296   */\n      pop\n        /* \"#utility.yul\":8385:8389   */\n      0x60\n        /* \"#utility.yul\":8378:8383   */\n      dup4\n        /* \"#utility.yul\":8374:8390   */\n      add\n        /* \"#utility.yul\":8368:8391   */\n      mload\n        /* \"#utility.yul\":8404:8467   */\n      tag_280\n        /* \"#utility.yul\":8461:8465   */\n      0x60\n        /* \"#utility.yul\":8456:8459   */\n      dup7\n        /* \"#utility.yul\":8452:8466   */\n      add\n        /* \"#utility.yul\":8438:8450   */\n      dup3\n        /* \"#utility.yul\":8404:8467   */\n      tag_158\n      jump\t// in\n    tag_280:\n        /* \"#utility.yul\":8306:8477   */\n      pop\n        /* \"#utility.yul\":8574:8578   */\n      0x80\n        /* \"#utility.yul\":8567:8572   */\n      dup4\n        /* \"#utility.yul\":8563:8579   */\n      add\n        /* \"#utility.yul\":8557:8580   */\n      mload\n        /* \"#utility.yul\":8593:8656   */\n      tag_281\n        /* \"#utility.yul\":8650:8654   */\n      0x80\n        /* \"#utility.yul\":8645:8648   */\n      dup7\n        /* \"#utility.yul\":8641:8655   */\n      add\n        /* \"#utility.yul\":8627:8639   */\n      dup3\n        /* \"#utility.yul\":8593:8656   */\n      tag_153\n      jump\t// in\n    tag_281:\n        /* \"#utility.yul\":8487:8666   */\n      pop\n        /* \"#utility.yul\":8750:8754   */\n      0xa0\n        /* \"#utility.yul\":8743:8748   */\n      dup4\n        /* \"#utility.yul\":8739:8755   */\n      add\n        /* \"#utility.yul\":8733:8756   */\n      mload\n        /* \"#utility.yul\":8769:8826   */\n      tag_282\n        /* \"#utility.yul\":8820:8824   */\n      0xa0\n        /* \"#utility.yul\":8815:8818   */\n      dup7\n        /* \"#utility.yul\":8811:8825   */\n      add\n        /* \"#utility.yul\":8797:8809   */\n      dup3\n        /* \"#utility.yul\":8769:8826   */\n      tag_159\n      jump\t// in\n    tag_282:\n        /* \"#utility.yul\":8676:8836   */\n      pop\n        /* \"#utility.yul\":8853:8857   */\n      dup1\n        /* \"#utility.yul\":8846:8857   */\n      swap2\n      pop\n        /* \"#utility.yul\":7587:8863   */\n      pop\n        /* \"#utility.yul\":7473:8863   */\n      swap3\n      swap2\n      pop\n      pop\n      jump\t// out\n        /* \"#utility.yul\":8869:9222   */\n    tag_35:\n        /* \"#utility.yul\":9002:9006   */\n      0x00\n        /* \"#utility.yul\":9040:9042   */\n      0x20\n        /* \"#utility.yul\":9029:9038   */\n      dup3\n        /* \"#utility.yul\":9025:9043   */\n      add\n        /* \"#utility.yul\":9017:9043   */\n      swap1\n      pop\n        /* \"#utility.yul\":9089:9098   */\n      dup2\n        /* \"#utility.yul\":9083:9087   */\n      dup2\n        /* \"#utility.yul\":9079:9099   */\n      sub\n        /* \"#utility.yul\":9075:9076   */\n      0x00\n        /* \"#utility.yul\":9064:9073   */\n      dup4\n        /* \"#utility.yul\":9060:9077   */\n      add\n        /* \"#utility.yul\":9053:9100   */\n      mstore\n        /* \"#utility.yul\":9117:9215   */\n      tag_284\n        /* \"#utility.yul\":9210:9214   */\n      dup2\n        /* \"#utility.yul\":9201:9207   */\n      dup5\n        /* \"#utility.yul\":9117:9215   */\n      tag_160\n      jump\t// in\n    tag_284:\n        /* \"#utility.yul\":9109:9215   */\n      swap1\n      pop\n        /* \"#utility.yul\":8869:9222   */\n      swap3\n      swap2\n      pop\n      pop\n      jump\t// out\n        /* \"#utility.yul\":9228:10173   */\n    tag_38:\n        /* \"#utility.yul\":9324:9330   */\n      0x00\n        /* \"#utility.yul\":9332:9338   */\n      0x00\n        /* \"#utility.yul\":9340:9346   */\n      0x00\n        /* \"#utility.yul\":9348:9354   */\n      0x00\n        /* \"#utility.yul\":9397:9400   */\n      0x80\n        /* \"#utility.yul\":9385:9394   */\n      dup6\n        /* \"#utility.yul\":9376:9383   */\n      dup8\n        /* \"#utility.yul\":9372:9395   */\n      sub\n        /* \"#utility.yul\":9368:9401   */\n      slt\n        /* \"#utility.yul\":9365:9485   */\n      iszero\n      tag_286\n      jumpi\n        /* \"#utility.yul\":9404:9483   */\n      tag_287\n      tag_129\n      jump\t// in\n    tag_287:\n        /* \"#utility.yul\":9365:9485   */\n    tag_286:\n        /* \"#utility.yul\":9524:9525   */\n      0x00\n        /* \"#utility.yul\":9549:9602   */\n      tag_288\n        /* \"#utility.yul\":9594:9601   */\n      dup8\n        /* \"#utility.yul\":9585:9591   */\n      dup3\n        /* \"#utility.yul\":9574:9583   */\n      dup9\n        /* \"#utility.yul\":9570:9592   */\n      add\n        /* \"#utility.yul\":9549:9602   */\n      tag_149\n      jump\t// in\n    tag_288:\n        /* \"#utility.yul\":9539:9602   */\n      swap5\n      pop\n        /* \"#utility.yul\":9495:9612   */\n      pop\n        /* \"#utility.yul\":9651:9653   */\n      0x20\n        /* \"#utility.yul\":9677:9730   */\n      tag_289\n        /* \"#utility.yul\":9722:9729   */\n      dup8\n        /* \"#utility.yul\":9713:9719   */\n      dup3\n        /* \"#utility.yul\":9702:9711   */\n      dup9\n        /* \"#utility.yul\":9698:9720   */\n      add\n        /* \"#utility.yul\":9677:9730   */\n      tag_149\n      jump\t// in\n    tag_289:\n        /* \"#utility.yul\":9667:9730   */\n      swap4\n      pop\n        /* \"#utility.yul\":9622:9740   */\n      pop\n        /* \"#utility.yul\":9779:9781   */\n      0x40\n        /* \"#utility.yul\":9805:9858   */\n      tag_290\n        /* \"#utility.yul\":9850:9857   */\n      dup8\n        /* \"#utility.yul\":9841:9847   */\n      dup3\n        /* \"#utility.yul\":9830:9839   */\n      dup9\n        /* \"#utility.yul\":9826:9848   */\n      add\n        /* \"#utility.yul\":9805:9858   */\n      tag_152\n      jump\t// in\n    tag_290:\n        /* \"#utility.yul\":9795:9858   */\n      swap3\n      pop\n        /* \"#utility.yul\":9750:9868   */\n      pop\n        /* \"#utility.yul\":9935:9937   */\n      0x60\n        /* \"#utility.yul\":9924:9933   */\n      dup6\n        /* \"#utility.yul\":9920:9938   */\n      add\n        /* \"#utility.yul\":9907:9939   */\n      calldataload\n        /* \"#utility.yul\":9966:9984   */\n      0xffffffffffffffff\n        /* \"#utility.yul\":9958:9964   */\n      dup2\n        /* \"#utility.yul\":9955:9985   */\n      gt\n        /* \"#utility.yul\":9952:10069   */\n      iszero\n      tag_291\n      jumpi\n        /* \"#utility.yul\":9988:10067   */\n      tag_292\n      tag_130\n      jump\t// in\n    tag_292:\n        /* \"#utility.yul\":9952:10069   */\n    tag_291:\n        /* \"#utility.yul\":10093:10156   */\n      tag_293\n        /* \"#utility.yul\":10148:10155   */\n      dup8\n        /* \"#utility.yul\":10139:10145   */\n      dup3\n        /* \"#utility.yul\":10128:10137   */\n      dup9\n        /* \"#utility.yul\":10124:10146   */\n      add\n        /* \"#utility.yul\":10093:10156   */\n      tag_146\n      jump\t// in\n    tag_293:\n        /* \"#utility.yul\":10083:10156   */\n      swap2\n      pop\n        /* \"#utility.yul\":9878:10166   */\n      pop\n        /* \"#utility.yul\":9228:10173   */\n      swap3\n      swap6\n      swap2\n      swap5\n      pop\n      swap3\n      pop\n      jump\t// out\n        /* \"#utility.yul\":10179:10297   */\n    tag_161:\n        /* \"#utility.yul\":10266:10290   */\n      tag_295\n        /* \"#utility.yul\":10284:10289   */\n      dup2\n        /* \"#utility.yul\":10266:10290   */\n      tag_132\n      jump\t// in\n    tag_295:\n        /* \"#utility.yul\":10261:10264   */\n      dup3\n        /* \"#utility.yul\":10254:10291   */\n      mstore\n        /* \"#utility.yul\":10179:10297   */\n      pop\n      pop\n      jump\t// out\n        /* \"#utility.yul\":10303:10525   */\n    tag_43:\n        /* \"#utility.yul\":10396:10400   */\n      0x00\n        /* \"#utility.yul\":10434:10436   */\n      0x20\n        /* \"#utility.yul\":10423:10432   */\n      dup3\n        /* \"#utility.yul\":10419:10437   */\n      add\n        /* \"#utility.yul\":10411:10437   */\n      swap1\n      pop\n        /* \"#utility.yul\":10447:10518   */\n      tag_297\n        /* \"#utility.yul\":10515:10516   */\n      0x00\n        /* \"#utility.yul\":10504:10513   */\n      dup4\n        /* \"#utility.yul\":10500:10517   */\n      add\n        /* \"#utility.yul\":10491:10497   */\n      dup5\n        /* \"#utility.yul\":10447:10518   */\n      tag_161\n      jump\t// in\n    tag_297:\n        /* \"#utility.yul\":10303:10525   */\n      swap3\n      swap2\n      pop\n      pop\n      jump\t// out\n        /* \"#utility.yul\":10531:10649   */\n    tag_162:\n        /* \"#utility.yul\":10618:10642   */\n      tag_299\n        /* \"#utility.yul\":10636:10641   */\n      dup2\n        /* \"#utility.yul\":10618:10642   */\n      tag_147\n      jump\t// in\n    tag_299:\n        /* \"#utility.yul\":10613:10616   */\n      dup3\n        /* \"#utility.yul\":10606:10643   */\n      mstore\n        /* \"#utility.yul\":10531:10649   */\n      pop\n      pop\n      jump\t// out\n        /* \"#utility.yul\":10655:10877   */\n    tag_47:\n        /* \"#utility.yul\":10748:10752   */\n      0x00\n        /* \"#utility.yul\":10786:10788   */\n      0x20\n        /* \"#utility.yul\":10775:10784   */\n      dup3\n        /* \"#utility.yul\":10771:10789   */\n      add\n        /* \"#utility.yul\":10763:10789   */\n      swap1\n      pop\n        /* \"#utility.yul\":10799:10870   */\n      tag_301\n        /* \"#utility.yul\":10867:10868   */\n      0x00\n        /* \"#utility.yul\":10856:10865   */\n      dup4\n        /* \"#utility.yul\":10852:10869   */\n      add\n        /* \"#utility.yul\":10843:10849   */\n      dup5\n        /* \"#utility.yul\":10799:10870   */\n      tag_162\n      jump\t// in\n    tag_301:\n        /* \"#utility.yul\":10655:10877   */\n      swap3\n      swap2\n      pop\n      pop\n      jump\t// out\n        /* \"#utility.yul\":10883:11357   */\n    tag_53:\n        /* \"#utility.yul\":10951:10957   */\n      0x00\n        /* \"#utility.yul\":10959:10965   */\n      0x00\n        /* \"#utility.yul\":11008:11010   */\n      0x40\n        /* \"#utility.yul\":10996:11005   */\n      dup4\n        /* \"#utility.yul\":10987:10994   */\n      dup6\n        /* \"#utility.yul\":10983:11006   */\n      sub\n        /* \"#utility.yul\":10979:11011   */\n      slt\n        /* \"#utility.yul\":10976:11095   */\n      iszero\n      tag_303\n      jumpi\n        /* \"#utility.yul\":11014:11093   */\n      tag_304\n      tag_129\n      jump\t// in\n    tag_304:\n        /* \"#utility.yul\":10976:11095   */\n    tag_303:\n        /* \"#utility.yul\":11134:11135   */\n      0x00\n        /* \"#utility.yul\":11159:11212   */\n      tag_305\n        /* \"#utility.yul\":11204:11211   */\n      dup6\n        /* \"#utility.yul\":11195:11201   */\n      dup3\n        /* \"#utility.yul\":11184:11193   */\n      dup7\n        /* \"#utility.yul\":11180:11202   */\n      add\n        /* \"#utility.yul\":11159:11212   */\n      tag_149\n      jump\t// in\n    tag_305:\n        /* \"#utility.yul\":11149:11212   */\n      swap3\n      pop\n        /* \"#utility.yul\":11105:11222   */\n      pop\n        /* \"#utility.yul\":11261:11263   */\n      0x20\n        /* \"#utility.yul\":11287:11340   */\n      tag_306\n        /* \"#utility.yul\":11332:11339   */\n      dup6\n        /* \"#utility.yul\":11323:11329   */\n      dup3\n        /* \"#utility.yul\":11312:11321   */\n      dup7\n        /* \"#utility.yul\":11308:11330   */\n      add\n        /* \"#utility.yul\":11287:11340   */\n      tag_149\n      jump\t// in\n    tag_306:\n        /* \"#utility.yul\":11277:11340   */\n      swap2\n      pop\n        /* \"#utility.yul\":11232:11350   */\n      pop\n        /* \"#utility.yul\":10883:11357   */\n      swap3\n      pop\n      swap3\n      swap1\n      pop\n      jump\t// out\n        /* \"#utility.yul\":11363:11471   */\n    tag_163:\n        /* \"#utility.yul\":11440:11464   */\n      tag_308\n        /* \"#utility.yul\":11458:11463   */\n      dup2\n        /* \"#utility.yul\":11440:11464   */\n      tag_150\n      jump\t// in\n    tag_308:\n        /* \"#utility.yul\":11435:11438   */\n      dup3\n        /* \"#utility.yul\":11428:11465   */\n      mstore\n        /* \"#utility.yul\":11363:11471   */\n      pop\n      pop\n      jump\t// out\n        /* \"#utility.yul\":11525:12676   */\n    tag_164:\n        /* \"#utility.yul\":11648:11651   */\n      0x00\n        /* \"#utility.yul\":11684:11688   */\n      0xa0\n        /* \"#utility.yul\":11679:11682   */\n      dup4\n        /* \"#utility.yul\":11675:11689   */\n      add\n        /* \"#utility.yul\":11775:11779   */\n      0x00\n        /* \"#utility.yul\":11768:11773   */\n      dup4\n        /* \"#utility.yul\":11764:11780   */\n      add\n        /* \"#utility.yul\":11758:11781   */\n      mload\n        /* \"#utility.yul\":11794:11857   */\n      tag_310\n        /* \"#utility.yul\":11851:11855   */\n      0x00\n        /* \"#utility.yul\":11846:11849   */\n      dup7\n        /* \"#utility.yul\":11842:11856   */\n      add\n        /* \"#utility.yul\":11828:11840   */\n      dup3\n        /* \"#utility.yul\":11794:11857   */\n      tag_163\n      jump\t// in\n    tag_310:\n        /* \"#utility.yul\":11699:11867   */\n      pop\n        /* \"#utility.yul\":11948:11952   */\n      0x20\n        /* \"#utility.yul\":11941:11946   */\n      dup4\n        /* \"#utility.yul\":11937:11953   */\n      add\n        /* \"#utility.yul\":11931:11954   */\n      mload\n        /* \"#utility.yul\":12001:12004   */\n      dup5\n        /* \"#utility.yul\":11995:11999   */\n      dup3\n        /* \"#utility.yul\":11991:12005   */\n      sub\n        /* \"#utility.yul\":11984:11988   */\n      0x20\n        /* \"#utility.yul\":11979:11982   */\n      dup7\n        /* \"#utility.yul\":11975:11989   */\n      add\n        /* \"#utility.yul\":11968:12006   */\n      mstore\n        /* \"#utility.yul\":12027:12100   */\n      tag_311\n        /* \"#utility.yul\":12095:12099   */\n      dup3\n        /* \"#utility.yul\":12081:12093   */\n      dup3\n        /* \"#utility.yul\":12027:12100   */\n      tag_157\n      jump\t// in\n    tag_311:\n        /* \"#utility.yul\":12019:12100   */\n      swap2\n      pop\n        /* \"#utility.yul\":11877:12111   */\n      pop\n        /* \"#utility.yul\":12193:12197   */\n      0x40\n        /* \"#utility.yul\":12186:12191   */\n      dup4\n        /* \"#utility.yul\":12182:12198   */\n      add\n        /* \"#utility.yul\":12176:12199   */\n      mload\n        /* \"#utility.yul\":12212:12275   */\n      tag_312\n        /* \"#utility.yul\":12269:12273   */\n      0x40\n        /* \"#utility.yul\":12264:12267   */\n      dup7\n        /* \"#utility.yul\":12260:12274   */\n      add\n        /* \"#utility.yul\":12246:12258   */\n      dup3\n        /* \"#utility.yul\":12212:12275   */\n      tag_153\n      jump\t// in\n    tag_312:\n        /* \"#utility.yul\":12121:12285   */\n      pop\n        /* \"#utility.yul\":12376:12380   */\n      0x60\n        /* \"#utility.yul\":12369:12374   */\n      dup4\n        /* \"#utility.yul\":12365:12381   */\n      add\n        /* \"#utility.yul\":12359:12382   */\n      mload\n        /* \"#utility.yul\":12395:12458   */\n      tag_313\n        /* \"#utility.yul\":12452:12456   */\n      0x60\n        /* \"#utility.yul\":12447:12450   */\n      dup7\n        /* \"#utility.yul\":12443:12457   */\n      add\n        /* \"#utility.yul\":12429:12441   */\n      dup3\n        /* \"#utility.yul\":12395:12458   */\n      tag_153\n      jump\t// in\n    tag_313:\n        /* \"#utility.yul\":12295:12468   */\n      pop\n        /* \"#utility.yul\":12557:12561   */\n      0x80\n        /* \"#utility.yul\":12550:12555   */\n      dup4\n        /* \"#utility.yul\":12546:12562   */\n      add\n        /* \"#utility.yul\":12540:12563   */\n      mload\n        /* \"#utility.yul\":12576:12639   */\n      tag_314\n        /* \"#utility.yul\":12633:12637   */\n      0x80\n        /* \"#utility.yul\":12628:12631   */\n      dup7\n        /* \"#utility.yul\":12624:12638   */\n      add\n        /* \"#utility.yul\":12610:12622   */\n      dup3\n        /* \"#utility.yul\":12576:12639   */\n      tag_158\n      jump\t// in\n    tag_314:\n        /* \"#utility.yul\":12478:12649   */\n      pop\n        /* \"#utility.yul\":12666:12670   */\n      dup1\n        /* \"#utility.yul\":12659:12670   */\n      swap2\n      pop\n        /* \"#utility.yul\":11653:12676   */\n      pop\n        /* \"#utility.yul\":11525:12676   */\n      swap3\n      swap2\n      pop\n      pop\n      jump\t// out\n        /* \"#utility.yul\":12682:13063   */\n    tag_56:\n        /* \"#utility.yul\":12829:12833   */\n      0x00\n        /* \"#utility.yul\":12867:12869   */\n      0x20\n        /* \"#utility.yul\":12856:12865   */\n      dup3\n        /* \"#utility.yul\":12852:12870   */\n      add\n        /* \"#utility.yul\":12844:12870   */\n      swap1\n      pop\n        /* \"#utility.yul\":12916:12925   */\n      dup2\n        /* \"#utility.yul\":12910:12914   */\n      dup2\n        /* \"#utility.yul\":12906:12926   */\n      sub\n        /* \"#utility.yul\":12902:12903   */\n      0x00\n        /* \"#utility.yul\":12891:12900   */\n      dup4\n        /* \"#utility.yul\":12887:12904   */\n      add\n        /* \"#utility.yul\":12880:12927   */\n      mstore\n        /* \"#utility.yul\":12944:13056   */\n      tag_316\n        /* \"#utility.yul\":13051:13055   */\n      dup2\n        /* \"#utility.yul\":13042:13048   */\n      dup5\n        /* \"#utility.yul\":12944:13056   */\n      tag_164\n      jump\t// in\n    tag_316:\n        /* \"#utility.yul\":12936:13056   */\n      swap1\n      pop\n        /* \"#utility.yul\":12682:13063   */\n      swap3\n      swap2\n      pop\n      pop\n      jump\t// out\n        /* \"#utility.yul\":13069:13249   */\n    tag_165:\n        /* \"#utility.yul\":13117:13194   */\n      0x4e487b7100000000000000000000000000000000000000000000000000000000\n        /* \"#utility.yul\":13114:13115   */\n      0x00\n        /* \"#utility.yul\":13107:13195   */\n      mstore\n        /* \"#utility.yul\":13214:13218   */\n      0x22\n        /* \"#utility.yul\":13211:13212   */\n      0x04\n        /* \"#utility.yul\":13204:13219   */\n      mstore\n        /* \"#utility.yul\":13238:13242   */\n      0x24\n        /* \"#utility.yul\":13235:13236   */\n      0x00\n        /* \"#utility.yul\":13228:13243   */\n      revert\n        /* \"#utility.yul\":13255:13575   */\n    tag_96:\n        /* \"#utility.yul\":13299:13305   */\n      0x00\n        /* \"#utility.yul\":13336:13337   */\n      0x02\n        /* \"#utility.yul\":13330:13334   */\n      dup3\n        /* \"#utility.yul\":13326:13338   */\n      div\n        /* \"#utility.yul\":13316:13338   */\n      swap1\n      pop\n        /* \"#utility.yul\":13383:13384   */\n      0x01\n        /* \"#utility.yul\":13377:13381   */\n      dup3\n        /* \"#utility.yul\":13373:13385   */\n      and\n        /* \"#utility.yul\":13404:13422   */\n      dup1\n        /* \"#utility.yul\":13394:13475   */\n      tag_319\n      jumpi\n        /* \"#utility.yul\":13460:13464   */\n      0x7f\n        /* \"#utility.yul\":13452:13458   */\n      dup3\n        /* \"#utility.yul\":13448:13465   */\n      and\n        /* \"#utility.yul\":13438:13465   */\n      swap2\n      pop\n        /* \"#utility.yul\":13394:13475   */\n    tag_319:\n        /* \"#utility.yul\":13522:13524   */\n      0x20\n        /* \"#utility.yul\":13514:13520   */\n      dup3\n        /* \"#utility.yul\":13511:13525   */\n      lt\n        /* \"#utility.yul\":13491:13509   */\n      dup2\n        /* \"#utility.yul\":13488:13526   */\n      sub\n        /* \"#utility.yul\":13485:13569   */\n      tag_320\n      jumpi\n        /* \"#utility.yul\":13541:13559   */\n      tag_321\n      tag_165\n      jump\t// in\n    tag_321:\n        /* \"#utility.yul\":13485:13569   */\n    tag_320:\n        /* \"#utility.yul\":13306:13575   */\n      pop\n        /* \"#utility.yul\":13255:13575   */\n      swap2\n      swap1\n      pop\n      jump\t// out\n        /* \"#utility.yul\":13581:13722   */\n    tag_166:\n        /* \"#utility.yul\":13630:13634   */\n      0x00\n        /* \"#utility.yul\":13653:13656   */\n      dup2\n        /* \"#utility.yul\":13645:13656   */\n      swap1\n      pop\n        /* \"#utility.yul\":13676:13679   */\n      dup2\n        /* \"#utility.yul\":13673:13674   */\n      0x00\n        /* \"#utility.yul\":13666:13680   */\n      mstore\n        /* \"#utility.yul\":13710:13714   */\n      0x20\n        /* \"#utility.yul\":13707:13708   */\n      0x00\n        /* \"#utility.yul\":13697:13715   */\n      keccak256\n        /* \"#utility.yul\":13689:13715   */\n      swap1\n      pop\n        /* \"#utility.yul\":13581:13722   */\n      swap2\n      swap1\n      pop\n      jump\t// out\n        /* \"#utility.yul\":13728:13821   */\n    tag_167:\n        /* \"#utility.yul\":13765:13771   */\n      0x00\n        /* \"#utility.yul\":13812:13814   */\n      0x20\n        /* \"#utility.yul\":13807:13809   */\n      0x1f\n        /* \"#utility.yul\":13800:13805   */\n      dup4\n        /* \"#utility.yul\":13796:13810   */\n      add\n        /* \"#utility.yul\":13792:13815   */\n      div\n        /* \"#utility.yul\":13782:13815   */\n      swap1\n      pop\n        /* \"#utility.yul\":13728:13821   */\n      swap2\n      swap1\n      pop\n      jump\t// out\n        /* \"#utility.yul\":13827:13934   */\n    tag_168:\n        /* \"#utility.yul\":13871:13879   */\n      0x00\n        /* \"#utility.yul\":13921:13926   */\n      dup3\n        /* \"#utility.yul\":13915:13919   */\n      dup3\n        /* \"#utility.yul\":13911:13927   */\n      shl\n        /* \"#utility.yul\":13890:13927   */\n      swap1\n      pop\n        /* \"#utility.yul\":13827:13934   */\n      swap3\n      swap2\n      pop\n      pop\n      jump\t// out\n        /* \"#utility.yul\":13940:14333   */\n    tag_169:\n        /* \"#utility.yul\":14009:14015   */\n      0x00\n        /* \"#utility.yul\":14059:14060   */\n      0x08\n        /* \"#utility.yul\":14047:14057   */\n      dup4\n        /* \"#utility.yul\":14043:14061   */\n      mul\n        /* \"#utility.yul\":14082:14179   */\n      tag_326\n        /* \"#utility.yul\":14112:14178   */\n      0xffffffffffffffffffffffffffffffffffffffffffffffffffffffffffffffff\n        /* \"#utility.yul\":14101:14110   */\n      dup3\n        /* \"#utility.yul\":14082:14179   */\n      tag_168\n      jump\t// in\n    tag_326:\n        /* \"#utility.yul\":14200:14239   */\n      tag_327\n        /* \"#utility.yul\":14230:14238   */\n      dup7\n        /* \"#utility.yul\":14219:14228   */\n      dup4\n        /* \"#utility.yul\":14200:14239   */\n      tag_168\n      jump\t// in\n    tag_327:\n        /* \"#utility.yul\":14188:14239   */\n      swap6\n      pop\n        /* \"#utility.yul\":14272:14276   */\n      dup1\n        /* \"#utility.yul\":14268:14277   */\n      not\n        /* \"#utility.yul\":14261:14266   */\n      dup5\n        /* \"#utility.yul\":14257:14278   */\n      and\n        /* \"#utility.yul\":14248:14278   */\n      swap4\n      pop\n        /* \"#utility.yul\":14321:14325   */\n      dup1\n        /* \"#utility.yul\":14311:14319   */\n      dup7\n        /* \"#utility.yul\":14307:14326   */\n      and\n        /* \"#utility.yul\":14300:14305   */\n      dup5\n        /* \"#utility.yul\":14297:14327   */\n      or\n        /* \"#utility.yul\":14287:14327   */\n      swap3\n      pop\n        /* \"#utility.yul\":14016:14333   */\n      pop\n      pop\n        /* \"#utility.yul\":13940:14333   */\n      swap4\n      swap3\n      pop\n      pop\n      pop\n      jump\t// out\n        /* \"#utility.yul\":14339:14399   */\n    tag_170:\n        /* \"#utility.yul\":14367:14370   */\n      0x00\n        /* \"#utility.yul\":14388:14393   */\n      dup2\n        /* \"#utility.yul\":14381:14393   */\n      swap1\n      pop\n        /* \"#utility.yul\":14339:14399   */\n      swap2\n      swap1\n      pop\n      jump\t// out\n        /* \"#utility.yul\":14405:14547   */\n    tag_171:\n        /* \"#utility.yul\":14455:14464   */\n      0x00\n        /* \"#utility.yul\":14488:14541   */\n      tag_330\n        /* \"#utility.yul\":14506:14540   */\n      tag_331\n        /* \"#utility.yul\":14515:14539   */\n      tag_332\n        /* \"#utility.yul\":14533:14538   */\n      dup5\n        /* \"#utility.yul\":14515:14539   */\n      tag_147\n      jump\t// in\n    tag_332:\n        /* \"#utility.yul\":14506:14540   */\n      tag_170\n      jump\t// in\n    tag_331:\n        /* \"#utility.yul\":14488:14541   */\n      tag_147\n      jump\t// in\n    tag_330:\n        /* \"#utility.yul\":14475:14541   */\n      swap1\n      pop\n        /* \"#utility.yul\":14405:14547   */\n      swap2\n      swap1\n      pop\n      jump\t// out\n        /* \"#utility.yul\":14553:14628   */\n    tag_172:\n        /* \"#utility.yul\":14596:14599   */\n      0x00\n        /* \"#utility.yul\":14617:14622   */\n      dup2\n        /* \"#utility.yul\":14610:14622   */\n      swap1\n      pop\n        /* \"#utility.yul\":14553:14628   */\n      swap2\n      swap1\n      pop\n      jump\t// out\n        /* \"#utility.yul\":14634:14903   */\n    tag_173:\n        /* \"#utility.yul\":14744:14783   */\n      tag_335\n        /* \"#utility.yul\":14775:14782   */\n      dup4\n        /* \"#utility.yul\":14744:14783   */\n      tag_171\n      jump\t// in\n    tag_335:\n        /* \"#utility.yul\":14805:14896   */\n      tag_336\n        /* \"#utility.yul\":14854:14895   */\n      tag_337\n        /* \"#utility.yul\":14878:14894   */\n      dup3\n        /* \"#utility.yul\":14854:14895   */\n      tag_172\n      jump\t// in\n    tag_337:\n        /* \"#utility.yul\":14846:14852   */\n      dup5\n        /* \"#utility.yul\":14839:14843   */\n      dup5\n        /* \"#utility.yul\":14833:14844   */\n      sload\n        /* \"#utility.yul\":14805:14896   */\n      tag_169\n      jump\t// in\n    tag_336:\n        /* \"#utility.yul\":14799:14803   */\n      dup3\n        /* \"#utility.yul\":14792:14897   */\n      sstore\n        /* \"#utility.yul\":14710:14903   */\n      pop\n        /* \"#utility.yul\":14634:14903   */\n      pop\n      pop\n      pop\n      jump\t// out\n        /* \"#utility.yul\":14909:14982   */\n    tag_174:\n        /* \"#utility.yul\":14954:14957   */\n      0x00\n        /* \"#utility.yul\":14975:14976   */\n      0x00\n        /* \"#utility.yul\":14968:14976   */\n      swap1\n      pop\n        /* \"#utility.yul\":14909:14982   */\n      swap1\n      jump\t// out\n        /* \"#utility.yul\":14988:15177   */\n    tag_175:\n        /* \"#utility.yul\":15065:15097   */\n      tag_340\n      tag_174\n      jump\t// in\n    tag_340:\n        /* \"#utility.yul\":15106:15171   */\n      tag_341\n        /* \"#utility.yul\":15164:15170   */\n      dup2\n        /* \"#utility.yul\":15156:15162   */\n      dup5\n        /* \"#utility.yul\":15150:15154   */\n      dup5\n        /* \"#utility.yul\":15106:15171   */\n      tag_173\n      jump\t// in\n    tag_341:\n        /* \"#utility.yul\":15041:15177   */\n      pop\n        /* \"#utility.yul\":14988:15177   */\n      pop\n      pop\n      jump\t// out\n        /* \"#utility.yul\":15183:15397   */\n    tag_176:\n        /* \"#utility.yul\":15268:15269   */\n      0x00\n        /* \"#utility.yul\":15253:15391   */\n    tag_343:\n        /* \"#utility.yul\":15278:15287   */\n      dup3\n        /* \"#utility.yul\":15275:15276   */\n      dup2\n        /* \"#utility.yul\":15272:15288   */\n      lt\n        /* \"#utility.yul\":15253:15391   */\n      iszero\n      tag_345\n      jumpi\n        /* \"#utility.yul\":15330:15381   */\n      tag_346\n        /* \"#utility.yul\":15379:15380   */\n      0x00\n        /* \"#utility.yul\":15375:15376   */\n      dup3\n        /* \"#utility.yul\":15364:15373   */\n      dup5\n        /* \"#utility.yul\":15360:15377   */\n      add\n        /* \"#utility.yul\":15330:15381   */\n      tag_175\n      jump\t// in\n    tag_346:\n        /* \"#utility.yul\":15303:15304   */\n      0x01\n        /* \"#utility.yul\":15300:15301   */\n      dup2\n        /* \"#utility.yul\":15296:15305   */\n      add\n        /* \"#utility.yul\":15291:15305   */\n      swap1\n      pop\n        /* \"#utility.yul\":15253:15391   */\n      jump(tag_343)\n    tag_345:\n        /* \"#utility.yul\":15257:15271   */\n      pop\n        /* \"#utility.yul\":15183:15397   */\n      pop\n      pop\n      jump\t// out\n        /* \"#utility.yul\":15403:16149   */\n    tag_177:\n        /* \"#utility.yul\":15504:15506   */\n      0x1f\n        /* \"#utility.yul\":15499:15502   */\n      dup3\n        /* \"#utility.yul\":15496:15507   */\n      gt\n        /* \"#utility.yul\":15493:16142   */\n      iszero\n      tag_348\n      jumpi\n        /* \"#utility.yul\":15533:15543   */\n      dup3\n        /* \"#utility.yul\":15528:15531   */\n      dup3\n        /* \"#utility.yul\":15525:15544   */\n      gt\n        /* \"#utility.yul\":15522:16132   */\n      iszero\n      tag_349\n      jumpi\n        /* \"#utility.yul\":15579:15617   */\n      tag_350\n        /* \"#utility.yul\":15611:15616   */\n      dup2\n        /* \"#utility.yul\":15579:15617   */\n      tag_166\n      jump\t// in\n    tag_350:\n        /* \"#utility.yul\":15654:15676   */\n      tag_351\n        /* \"#utility.yul\":15672:15675   */\n      dup4\n        /* \"#utility.yul\":15654:15676   */\n      tag_167\n      jump\t// in\n    tag_351:\n        /* \"#utility.yul\":15713:15742   */\n      tag_352\n        /* \"#utility.yul\":15731:15741   */\n      dup6\n        /* \"#utility.yul\":15713:15742   */\n      tag_167\n      jump\t// in\n    tag_352:\n        /* \"#utility.yul\":15903:15905   */\n      0x20\n        /* \"#utility.yul\":15891:15901   */\n      dup7\n        /* \"#utility.yul\":15888:15906   */\n      lt\n        /* \"#utility.yul\":15885:15964   */\n      iszero\n      tag_353\n      jumpi\n        /* \"#utility.yul\":15945:15946   */\n      0x00\n        /* \"#utility.yul\":15929:15946   */\n      swap1\n      pop\n        /* \"#utility.yul\":15885:15964   */\n    tag_353:\n        /* \"#utility.yul\":16014:16026   */\n      dup1\n        /* \"#utility.yul\":16004:16012   */\n      dup4\n        /* \"#utility.yul\":16000:16027   */\n      add\n        /* \"#utility.yul\":16044:16118   */\n      tag_354\n        /* \"#utility.yul\":16104:16116   */\n      dup3\n        /* \"#utility.yul\":16090:16102   */\n      dup5\n        /* \"#utility.yul\":16086:16117   */\n      sub\n        /* \"#utility.yul\":16073:16084   */\n      dup3\n        /* \"#utility.yul\":16044:16118   */\n      tag_176\n      jump\t// in\n    tag_354:\n        /* \"#utility.yul\":15545:16132   */\n      pop\n      pop\n      pop\n      pop\n        /* \"#utility.yul\":15522:16132   */\n    tag_349:\n        /* \"#utility.yul\":15493:16142   */\n    tag_348:\n        /* \"#utility.yul\":15403:16149   */\n      pop\n      pop\n      pop\n      jump\t// out\n        /* \"#utility.yul\":16155:16272   */\n    tag_178:\n        /* \"#utility.yul\":16209:16217   */\n      0x00\n        /* \"#utility.yul\":16259:16264   */\n      dup3\n        /* \"#utility.yul\":16253:16257   */\n      dup3\n        /* \"#utility.yul\":16249:16265   */\n      shr\n        /* \"#utility.yul\":16228:16265   */\n      swap1\n      pop\n        /* \"#utility.yul\":16155:16272   */\n      swap3\n      swap2\n      pop\n      pop\n      jump\t// out\n        /* \"#utility.yul\":16278:16447   */\n    tag_179:\n        /* \"#utility.yul\":16322:16328   */\n      0x00\n        /* \"#utility.yul\":16355:16406   */\n      tag_357\n        /* \"#utility.yul\":16403:16404   */\n      0x00\n        /* \"#utility.yul\":16399:16405   */\n      not\n        /* \"#utility.yul\":16391:16396   */\n      dup5\n        /* \"#utility.yul\":16388:16389   */\n      0x08\n        /* \"#utility.yul\":16384:16397   */\n      mul\n        /* \"#utility.yul\":16355:16406   */\n      tag_178\n      jump\t// in\n    tag_357:\n        /* \"#utility.yul\":16351:16407   */\n      not\n        /* \"#utility.yul\":16436:16440   */\n      dup1\n        /* \"#utility.yul\":16430:16434   */\n      dup4\n        /* \"#utility.yul\":16426:16441   */\n      and\n        /* \"#utility.yul\":16416:16441   */\n      swap2\n      pop\n        /* \"#utility.yul\":16329:16447   */\n      pop\n        /* \"#utility.yul\":16278:16447   */\n      swap3\n      swap2\n      pop\n      pop\n      jump\t// out\n        /* \"#utility.yul\":16452:16747   */\n    tag_180:\n        /* \"#utility.yul\":16528:16532   */\n      0x00\n        /* \"#utility.yul\":16674:16703   */\n      tag_359\n        /* \"#utility.yul\":16699:16702   */\n      dup4\n        /* \"#utility.yul\":16693:16697   */\n      dup4\n        /* \"#utility.yul\":16674:16703   */\n      tag_179\n      jump\t// in\n    tag_359:\n        /* \"#utility.yul\":16666:16703   */\n      swap2\n      pop\n        /* \"#utility.yul\":16736:16739   */\n      dup3\n        /* \"#utility.yul\":16733:16734   */\n      0x02\n        /* \"#utility.yul\":16729:16740   */\n      mul\n        /* \"#utility.yul\":16723:16727   */\n      dup3\n        /* \"#utility.yul\":16720:16741   */\n      or\n        /* \"#utility.yul\":16712:16741   */\n      swap1\n      pop\n        /* \"#utility.yul\":16452:16747   */\n      swap3\n      swap2\n      pop\n      pop\n      jump\t// out\n        /* \"#utility.yul\":16752:18147   */\n    tag_75:\n        /* \"#utility.yul\":16869:16906   */\n      tag_361\n        /* \"#utility.yul\":16902:16905   */\n      dup3\n        /* \"#utility.yul\":16869:16906   */\n      tag_154\n      jump\t// in\n    tag_361:\n        /* \"#utility.yul\":16971:16989   */\n      0xffffffffffffffff\n        /* \"#utility.yul\":16963:16969   */\n      dup2\n        /* \"#utility.yul\":16960:16990   */\n      gt\n        /* \"#utility.yul\":16957:17013   */\n      iszero\n      tag_362\n      jumpi\n        /* \"#utility.yul\":16993:17011   */\n      tag_363\n      tag_140\n      jump\t// in\n    tag_363:\n        /* \"#utility.yul\":16957:17013   */\n    tag_362:\n        /* \"#utility.yul\":17037:17075   */\n      tag_364\n        /* \"#utility.yul\":17069:17073   */\n      dup3\n        /* \"#utility.yul\":17063:17074   */\n      sload\n        /* \"#utility.yul\":17037:17075   */\n      tag_96\n      jump\t// in\n    tag_364:\n        /* \"#utility.yul\":17122:17189   */\n      tag_365\n        /* \"#utility.yul\":17182:17188   */\n      dup3\n        /* \"#utility.yul\":17174:17180   */\n      dup3\n        /* \"#utility.yul\":17168:17172   */\n      dup6\n        /* \"#utility.yul\":17122:17189   */\n      tag_177\n      jump\t// in\n    tag_365:\n        /* \"#utility.yul\":17216:17217   */\n      0x00\n        /* \"#utility.yul\":17240:17244   */\n      0x20\n        /* \"#utility.yul\":17227:17244   */\n      swap1\n      pop\n        /* \"#utility.yul\":17272:17274   */\n      0x1f\n        /* \"#utility.yul\":17264:17270   */\n      dup4\n        /* \"#utility.yul\":17261:17275   */\n      gt\n        /* \"#utility.yul\":17289:17290   */\n      0x01\n        /* \"#utility.yul\":17284:17902   */\n      dup2\n      eq\n      tag_367\n      jumpi\n        /* \"#utility.yul\":17946:17947   */\n      0x00\n        /* \"#utility.yul\":17963:17969   */\n      dup5\n        /* \"#utility.yul\":17960:18037   */\n      iszero\n      tag_368\n      jumpi\n        /* \"#utility.yul\":18012:18021   */\n      dup3\n        /* \"#utility.yul\":18007:18010   */\n      dup8\n        /* \"#utility.yul\":18003:18022   */\n      add\n        /* \"#utility.yul\":17997:18023   */\n      mload\n        /* \"#utility.yul\":17988:18023   */\n      swap1\n      pop\n        /* \"#utility.yul\":17960:18037   */\n    tag_368:\n        /* \"#utility.yul\":18063:18130   */\n      tag_369\n        /* \"#utility.yul\":18123:18129   */\n      dup6\n        /* \"#utility.yul\":18116:18121   */\n      dup3\n        /* \"#utility.yul\":18063:18130   */\n      tag_180\n      jump\t// in\n    tag_369:\n        /* \"#utility.yul\":18057:18061   */\n      dup7\n        /* \"#utility.yul\":18050:18131   */\n      sstore\n        /* \"#utility.yul\":17919:18141   */\n      pop\n        /* \"#utility.yul\":17254:18141   */\n      jump(tag_366)\n        /* \"#utility.yul\":17284:17902   */\n    tag_367:\n        /* \"#utility.yul\":17336:17340   */\n      0x1f\n        /* \"#utility.yul\":17332:17341   */\n      not\n        /* \"#utility.yul\":17324:17330   */\n      dup5\n        /* \"#utility.yul\":17320:17342   */\n      and\n        /* \"#utility.yul\":17370:17407   */\n      tag_370\n        /* \"#utility.yul\":17402:17406   */\n      dup7\n        /* \"#utility.yul\":17370:17407   */\n      tag_166\n      jump\t// in\n    tag_370:\n        /* \"#utility.yul\":17429:17430   */\n      0x00\n        /* \"#utility.yul\":17443:17651   */\n    tag_371:\n        /* \"#utility.yul\":17457:17464   */\n      dup3\n        /* \"#utility.yul\":17454:17455   */\n      dup2\n        /* \"#utility.yul\":17451:17465   */\n      lt\n        /* \"#utility.yul\":17443:17651   */\n      iszero\n      tag_373\n      jumpi\n        /* \"#utility.yul\":17536:17545   */\n      dup5\n        /* \"#utility.yul\":17531:17534   */\n      dup10\n        /* \"#utility.yul\":17527:17546   */\n      add\n        /* \"#utility.yul\":17521:17547   */\n      mload\n        /* \"#utility.yul\":17513:17519   */\n      dup3\n        /* \"#utility.yul\":17506:17548   */\n      sstore\n        /* \"#utility.yul\":17587:17588   */\n      0x01\n        /* \"#utility.yul\":17579:17585   */\n      dup3\n        /* \"#utility.yul\":17575:17589   */\n      add\n        /* \"#utility.yul\":17565:17589   */\n      swap2\n      pop\n        /* \"#utility.yul\":17634:17636   */\n      0x20\n        /* \"#utility.yul\":17623:17632   */\n      dup6\n        /* \"#utility.yul\":17619:17637   */\n      add\n        /* \"#utility.yul\":17606:17637   */\n      swap5\n      pop\n        /* \"#utility.yul\":17480:17484   */\n      0x20\n        /* \"#utility.yul\":17477:17478   */\n      dup2\n        /* \"#utility.yul\":17473:17485   */\n      add\n        /* \"#utility.yul\":17468:17485   */\n      swap1\n      pop\n        /* \"#utility.yul\":17443:17651   */\n      jump(tag_371)\n    tag_373:\n        /* \"#utility.yul\":17679:17685   */\n      dup7\n        /* \"#utility.yul\":17670:17677   */\n      dup4\n        /* \"#utility.yul\":17667:17686   */\n      lt\n        /* \"#utility.yul\":17664:17843   */\n      iszero\n      tag_374\n      jumpi\n        /* \"#utility.yul\":17737:17746   */\n      dup5\n        /* \"#utility.yul\":17732:17735   */\n      dup10\n        /* \"#utility.yul\":17728:17747   */\n      add\n        /* \"#utility.yul\":17722:17748   */\n      mload\n        /* \"#utility.yul\":17780:17828   */\n      tag_375\n        /* \"#utility.yul\":17822:17826   */\n      0x1f\n        /* \"#utility.yul\":17814:17820   */\n      dup10\n        /* \"#utility.yul\":17810:17827   */\n      and\n        /* \"#utility.yul\":17799:17808   */\n      dup3\n        /* \"#utility.yul\":17780:17828   */\n      tag_179\n      jump\t// in\n    tag_375:\n        /* \"#utility.yul\":17772:17778   */\n      dup4\n        /* \"#utility.yul\":17765:17829   */\n      sstore\n        /* \"#utility.yul\":17687:17843   */\n      pop\n        /* \"#utility.yul\":17664:17843   */\n    tag_374:\n        /* \"#utility.yul\":17889:17890   */\n      0x01\n        /* \"#utility.yul\":17885:17886   */\n      0x02\n        /* \"#utility.yul\":17877:17883   */\n      dup9\n        /* \"#utility.yul\":17873:17887   */\n      mul\n        /* \"#utility.yul\":17869:17891   */\n      add\n        /* \"#utility.yul\":17863:17867   */\n      dup9\n        /* \"#utility.yul\":17856:17892   */\n      sstore\n        /* \"#utility.yul\":17291:17902   */\n      pop\n      pop\n      pop\n        /* \"#utility.yul\":17254:18141   */\n    tag_366:\n      pop\n        /* \"#utility.yul\":16844:18147   */\n      pop\n      pop\n      pop\n        /* \"#utility.yul\":16752:18147   */\n      pop\n      pop\n      jump\t// out\n        /* \"#utility.yul\":18153:18333   */\n    tag_181:\n        /* \"#utility.yul\":18201:18278   */\n      0x4e487b7100000000000000000000000000000000000000000000000000000000\n        /* \"#utility.yul\":18198:18199   */\n      0x00\n        /* \"#utility.yul\":18191:18279   */\n      mstore\n        /* \"#utility.yul\":18298:18302   */\n      0x11\n        /* \"#utility.yul\":18295:18296   */\n      0x04\n        /* \"#utility.yul\":18288:18303   */\n      mstore\n        /* \"#utility.yul\":18322:18326   */\n      0x24\n        /* \"#utility.yul\":18319:18320   */\n      0x00\n        /* \"#utility.yul\":18312:18327   */\n      revert\n        /* \"#utility.yul\":18339:18572   */\n    tag_79:\n        /* \"#utility.yul\":18378:18381   */\n      0x00\n        /* \"#utility.yul\":18401:18425   */\n      tag_378\n        /* \"#utility.yul\":18419:18424   */\n      dup3\n        /* \"#utility.yul\":18401:18425   */\n      tag_147\n      jump\t// in\n    tag_378:\n        /* \"#utility.yul\":18392:18425   */\n      swap2\n      pop\n        /* \"#utility.yul\":18447:18513   */\n      0xffffffffffffffffffffffffffffffffffffffffffffffffffffffffffffffff\n        /* \"#utility.yul\":18440:18445   */\n      dup3\n        /* \"#utility.yul\":18437:18514   */\n      sub\n        /* \"#utility.yul\":18434:18537   */\n      tag_379\n      jumpi\n        /* \"#utility.yul\":18517:18535   */\n      tag_380\n      tag_181\n      jump\t// in\n    tag_380:\n        /* \"#utility.yul\":18434:18537   */\n    tag_379:\n        /* \"#utility.yul\":18564:18565   */\n      0x01\n        /* \"#utility.yul\":18557:18562   */\n      dup3\n        /* \"#utility.yul\":18553:18566   */\n      add\n        /* \"#utility.yul\":18546:18566   */\n      swap1\n      pop\n        /* \"#utility.yul\":18339:18572   */\n      swap2\n      swap1\n      pop\n      jump\t// out\n        /* \"#utility.yul\":18578:18747   */\n    tag_182:\n        /* \"#utility.yul\":18662:18673   */\n      0x00\n        /* \"#utility.yul\":18696:18702   */\n      dup3\n        /* \"#utility.yul\":18691:18694   */\n      dup3\n        /* \"#utility.yul\":18684:18703   */\n      mstore\n        /* \"#utility.yul\":18736:18740   */\n      0x20\n        /* \"#utility.yul\":18731:18734   */\n      dup3\n        /* \"#utility.yul\":18727:18741   */\n      add\n        /* \"#utility.yul\":18712:18741   */\n      swap1\n      pop\n        /* \"#utility.yul\":18578:18747   */\n      swap3\n      swap2\n      pop\n      pop\n      jump\t// out\n        /* \"#utility.yul\":18753:19130   */\n    tag_183:\n        /* \"#utility.yul\":18841:18844   */\n      0x00\n        /* \"#utility.yul\":18869:18908   */\n      tag_383\n        /* \"#utility.yul\":18902:18907   */\n      dup3\n        /* \"#utility.yul\":18869:18908   */\n      tag_154\n      jump\t// in\n    tag_383:\n        /* \"#utility.yul\":18924:18995   */\n      tag_384\n        /* \"#utility.yul\":18988:18994   */\n      dup2\n        /* \"#utility.yul\":18983:18986   */\n      dup6\n        /* \"#utility.yul\":18924:18995   */\n      tag_182\n      jump\t// in\n    tag_384:\n        /* \"#utility.yul\":18917:18995   */\n      swap4\n      pop\n        /* \"#utility.yul\":19004:19069   */\n      tag_385\n        /* \"#utility.yul\":19062:19068   */\n      dup2\n        /* \"#utility.yul\":19057:19060   */\n      dup6\n        /* \"#utility.yul\":19050:19054   */\n      0x20\n        /* \"#utility.yul\":19043:19048   */\n      dup7\n        /* \"#utility.yul\":19039:19055   */\n      add\n        /* \"#utility.yul\":19004:19069   */\n      tag_156\n      jump\t// in\n    tag_385:\n        /* \"#utility.yul\":19094:19123   */\n      tag_386\n        /* \"#utility.yul\":19116:19122   */\n      dup2\n        /* \"#utility.yul\":19094:19123   */\n      tag_139\n      jump\t// in\n    tag_386:\n        /* \"#utility.yul\":19089:19092   */\n      dup5\n        /* \"#utility.yul\":19085:19124   */\n      add\n        /* \"#utility.yul\":19078:19124   */\n      swap2\n      pop\n        /* \"#utility.yul\":18845:19130   */\n      pop\n        /* \"#utility.yul\":18753:19130   */\n      swap3\n      swap2\n      pop\n      pop\n      jump\t// out\n        /* \"#utility.yul\":19136:19254   */\n    tag_184:\n        /* \"#utility.yul\":19223:19247   */\n      tag_388\n        /* \"#utility.yul\":19241:19246   */\n      dup2\n        /* \"#utility.yul\":19223:19247   */\n      tag_150\n      jump\t// in\n    tag_388:\n        /* \"#utility.yul\":19218:19221   */\n      dup3\n        /* \"#utility.yul\":19211:19248   */\n      mstore\n        /* \"#utility.yul\":19136:19254   */\n      pop\n      pop\n      jump\t// out\n        /* \"#utility.yul\":19260:20197   */\n    tag_81:\n        /* \"#utility.yul\":19525:19529   */\n      0x00\n        /* \"#utility.yul\":19563:19566   */\n      0xa0\n        /* \"#utility.yul\":19552:19561   */\n      dup3\n        /* \"#utility.yul\":19548:19567   */\n      add\n        /* \"#utility.yul\":19540:19567   */\n      swap1\n      pop\n        /* \"#utility.yul\":19613:19622   */\n      dup2\n        /* \"#utility.yul\":19607:19611   */\n      dup2\n        /* \"#utility.yul\":19603:19623   */\n      sub\n        /* \"#utility.yul\":19599:19600   */\n      0x00\n        /* \"#utility.yul\":19588:19597   */\n      dup4\n        /* \"#utility.yul\":19584:19601   */\n      add\n        /* \"#utility.yul\":19577:19624   */\n      mstore\n        /* \"#utility.yul\":19641:19719   */\n      tag_390\n        /* \"#utility.yul\":19714:19718   */\n      dup2\n        /* \"#utility.yul\":19705:19711   */\n      dup9\n        /* \"#utility.yul\":19641:19719   */\n      tag_183\n      jump\t// in\n    tag_390:\n        /* \"#utility.yul\":19633:19719   */\n      swap1\n      pop\n        /* \"#utility.yul\":19766:19775   */\n      dup2\n        /* \"#utility.yul\":19760:19764   */\n      dup2\n        /* \"#utility.yul\":19756:19776   */\n      sub\n        /* \"#utility.yul\":19751:19753   */\n      0x20\n        /* \"#utility.yul\":19740:19749   */\n      dup4\n        /* \"#utility.yul\":19736:19754   */\n      add\n        /* \"#utility.yul\":19729:19777   */\n      mstore\n        /* \"#utility.yul\":19794:19872   */\n      tag_391\n        /* \"#utility.yul\":19867:19871   */\n      dup2\n        /* \"#utility.yul\":19858:19864   */\n      dup8\n        /* \"#utility.yul\":19794:19872   */\n      tag_183\n      jump\t// in\n    tag_391:\n        /* \"#utility.yul\":19786:19872   */\n      swap1\n      pop\n        /* \"#utility.yul\":19882:19954   */\n      tag_392\n        /* \"#utility.yul\":19950:19952   */\n      0x40\n        /* \"#utility.yul\":19939:19948   */\n      dup4\n        /* \"#utility.yul\":19935:19953   */\n      add\n        /* \"#utility.yul\":19926:19932   */\n      dup7\n        /* \"#utility.yul\":19882:19954   */\n      tag_162\n      jump\t// in\n    tag_392:\n        /* \"#utility.yul\":19964:20036   */\n      tag_393\n        /* \"#utility.yul\":20032:20034   */\n      0x60\n        /* \"#utility.yul\":20021:20030   */\n      dup4\n        /* \"#utility.yul\":20017:20035   */\n      add\n        /* \"#utility.yul\":20008:20014   */\n      dup6\n        /* \"#utility.yul\":19964:20036   */\n      tag_184\n      jump\t// in\n    tag_393:\n        /* \"#utility.yul\":20084:20093   */\n      dup2\n        /* \"#utility.yul\":20078:20082   */\n      dup2\n        /* \"#utility.yul\":20074:20094   */\n      sub\n        /* \"#utility.yul\":20068:20071   */\n      0x80\n        /* \"#utility.yul\":20057:20066   */\n      dup4\n        /* \"#utility.yul\":20053:20072   */\n      add\n        /* \"#utility.yul\":20046:20095   */\n      mstore\n        /* \"#utility.yul\":20112:20190   */\n      tag_394\n        /* \"#utility.yul\":20185:20189   */\n      dup2\n        /* \"#utility.yul\":20176:20182   */\n      dup5\n        /* \"#utility.yul\":20112:20190   */\n      tag_183\n      jump\t// in\n    tag_394:\n        /* \"#utility.yul\":20104:20190   */\n      swap1\n      pop\n        /* \"#utility.yul\":19260:20197   */\n      swap7\n      swap6\n      pop\n      pop\n      pop\n      pop\n      pop\n      pop\n      jump\t// out\n        /* \"#utility.yul\":20203:20394   */\n    tag_113:\n        /* \"#utility.yul\":20243:20246   */\n      0x00\n        /* \"#utility.yul\":20262:20282   */\n      tag_396\n        /* \"#utility.yul\":20280:20281   */\n      dup3\n        /* \"#utility.yul\":20262:20282   */\n      tag_147\n      jump\t// in\n    tag_396:\n        /* \"#utility.yul\":20257:20282   */\n      swap2\n      pop\n        /* \"#utility.yul\":20296:20316   */\n      tag_397\n        /* \"#utility.yul\":20314:20315   */\n      dup4\n        /* \"#utility.yul\":20296:20316   */\n      tag_147\n      jump\t// in\n    tag_397:\n        /* \"#utility.yul\":20291:20316   */\n      swap3\n      pop\n        /* \"#utility.yul\":20339:20340   */\n      dup3\n        /* \"#utility.yul\":20336:20337   */\n      dup3\n        /* \"#utility.yul\":20332:20341   */\n      add\n        /* \"#utility.yul\":20325:20341   */\n      swap1\n      pop\n        /* \"#utility.yul\":20360:20363   */\n      dup1\n        /* \"#utility.yul\":20357:20358   */\n      dup3\n        /* \"#utility.yul\":20354:20364   */\n      gt\n        /* \"#utility.yul\":20351:20387   */\n      iszero\n      tag_398\n      jumpi\n        /* \"#utility.yul\":20367:20385   */\n      tag_399\n      tag_181\n      jump\t// in\n    tag_399:\n        /* \"#utility.yul\":20351:20387   */\n    tag_398:\n        /* \"#utility.yul\":20203:20394   */\n      swap3\n      swap2\n      pop\n      pop\n      jump\t// out\n        /* \"#utility.yul\":20400:20933   */\n    tag_116:\n        /* \"#utility.yul\":20569:20573   */\n      0x00\n        /* \"#utility.yul\":20607:20609   */\n      0x60\n        /* \"#utility.yul\":20596:20605   */\n      dup3\n        /* \"#utility.yul\":20592:20610   */\n      add\n        /* \"#utility.yul\":20584:20610   */\n      swap1\n      pop\n        /* \"#utility.yul\":20620:20691   */\n      tag_401\n        /* \"#utility.yul\":20688:20689   */\n      0x00\n        /* \"#utility.yul\":20677:20686   */\n      dup4\n        /* \"#utility.yul\":20673:20690   */\n      add\n        /* \"#utility.yul\":20664:20670   */\n      dup7\n        /* \"#utility.yul\":20620:20691   */\n      tag_162\n      jump\t// in\n    tag_401:\n        /* \"#utility.yul\":20701:20773   */\n      tag_402\n        /* \"#utility.yul\":20769:20771   */\n      0x20\n        /* \"#utility.yul\":20758:20767   */\n      dup4\n        /* \"#utility.yul\":20754:20772   */\n      add\n        /* \"#utility.yul\":20745:20751   */\n      dup6\n        /* \"#utility.yul\":20701:20773   */\n      tag_184\n      jump\t// in\n    tag_402:\n        /* \"#utility.yul\":20820:20829   */\n      dup2\n        /* \"#utility.yul\":20814:20818   */\n      dup2\n        /* \"#utility.yul\":20810:20830   */\n      sub\n        /* \"#utility.yul\":20805:20807   */\n      0x40\n        /* \"#utility.yul\":20794:20803   */\n      dup4\n        /* \"#utility.yul\":20790:20808   */\n      add\n        /* \"#utility.yul\":20783:20831   */\n      mstore\n        /* \"#utility.yul\":20848:20926   */\n      tag_403\n        /* \"#utility.yul\":20921:20925   */\n      dup2\n        /* \"#utility.yul\":20912:20918   */\n      dup5\n        /* \"#utility.yul\":20848:20926   */\n      tag_183\n      jump\t// in\n    tag_403:\n        /* \"#utility.yul\":20840:20926   */\n      swap1\n      pop\n        /* \"#utility.yul\":20400:20933   */\n      swap5\n      swap4\n      pop\n      pop\n      pop\n      pop\n      jump\t// out\n\n    auxdata: 0xa26469706673582212204650ab87cf10985cd85ac7a2233f16623d5159a8763aeb006f0af46839d6eea264736f6c63430008220033\n}\n",
				"bytecode": {
					"linkReferences": {},
					"object": "60c060405260015f55348015610013575f5ffd5b50604051612061380380612061833981810160405281019061003591906101f3565b5f73ffffffffffffffffffffffffffffffffffffffff168273ffffffffffffffffffffffffffffffffffffffff16148061009a57505f73ffffffffffffffffffffffffffffffffffffffff168173ffffffffffffffffffffffffffffffffffffffff16145b156100d1576040517fe6c4247b00000000000000000000000000000000000000000000000000000000815260040160405180910390fd5b8173ffffffffffffffffffffffffffffffffffffffff1660808173ffffffffffffffffffffffffffffffffffffffff16815250508073ffffffffffffffffffffffffffffffffffffffff1660a08173ffffffffffffffffffffffffffffffffffffffff1681525050600160035f8473ffffffffffffffffffffffffffffffffffffffff1673ffffffffffffffffffffffffffffffffffffffff1681526020019081526020015f205f6101000a81548160ff0219169083151502179055505050610231565b5f5ffd5b5f73ffffffffffffffffffffffffffffffffffffffff82169050919050565b5f6101c282610199565b9050919050565b6101d2816101b8565b81146101dc575f5ffd5b50565b5f815190506101ed816101c9565b92915050565b5f5f6040838503121561020957610208610195565b5b5f610216858286016101df565b9250506020610227858286016101df565b9150509250929050565b60805160a051611dec6102755f395f81816103bc01528181610a81015261105501525f81816101fc015281816108a301528181610928015261102c0152611dec5ff3fe608060405234801561000f575f5ffd5b506004361061009c575f3560e01c80634935e326116100645780634935e3261461015457806381fd552f1461017057806389b83a9b1461018e578063c45a0155146101ac578063cf04ff9f146101ca5761009c565b806304076482146100a05780631828983a146100bc578063196bed7f146100ec5780632822853a146101085780632bfda31314610124575b5f5ffd5b6100ba60048036038101906100b59190611359565b6101fa565b005b6100d660048036038101906100d19190611359565b610486565b6040516100e3919061139e565b60405180910390f35b61010660048036038101906101019190611559565b6104a3565b005b610122600480360381019061011d9190611359565b6108a1565b005b61013e60048036038101906101399190611624565b610b4b565b60405161014b9190611769565b60405180910390f35b61016e60048036038101906101699190611789565b610d6f565b005b61017861102a565b6040516101859190611818565b60405180910390f35b61019661104e565b6040516101a39190611840565b60405180910390f35b6101b4611053565b6040516101c19190611818565b60405180910390f35b6101e460048036038101906101df9190611859565b611077565b6040516101f19190611919565b60405180910390f35b7f000000000000000000000000000000000000000000000000000000000000000073ffffffffffffffffffffffffffffffffffffffff163373ffffffffffffffffffffffffffffffffffffffff161461027f576040517f2c1a75e200000000000000000000000000000000000000000000000000000000815260040160405180910390fd5b5f73ffffffffffffffffffffffffffffffffffffffff168173ffffffffffffffffffffffffffffffffffffffff16036102e4576040517fe6c4247b00000000000000000000000000000000000000000000000000000000815260040160405180910390fd5b60035f8273ffffffffffffffffffffffffffffffffffffffff1673ffffffffffffffffffffffffffffffffffffffff1681526020019081526020015f205f9054906101000a900460ff1615610365576040517f6027d27e00000000000000000000000000000000000000000000000000000000815260040160405180910390fd5b600160035f8373ffffffffffffffffffffffffffffffffffffffff1673ffffffffffffffffffffffffffffffffffffffff1681526020019081526020015f205f6101000a81548160ff0219169083151502179055507f000000000000000000000000000000000000000000000000000000000000000073ffffffffffffffffffffffffffffffffffffffff1663eb02051f826040518263ffffffff1660e01b81526004016104139190611818565b5f604051808303815f87803b15801561042a575f5ffd5b505af115801561043c573d5f5f3e3d5ffd5b505050508073ffffffffffffffffffffffffffffffffffffffff167f850482b9ceba86c8675400bfd35d4b6a92f7a27e0505e2243ba0a1b61302102c60405160405180910390a250565b6003602052805f5260405f205f915054906101000a900460ff1681565b60035f3373ffffffffffffffffffffffffffffffffffffffff1673ffffffffffffffffffffffffffffffffffffffff1681526020019081526020015f205f9054906101000a900460ff16610523576040517f2c1a75e200000000000000000000000000000000000000000000000000000000815260040160405180910390fd5b5f85510361055d576040517f2ef1310500000000000000000000000000000000000000000000000000000000815260040160405180910390fd5b5f815103610597576040517f63ee91d000000000000000000000000000000000000000000000000000000000815260040160405180910390fd5b5f5f1b82036105d2576040517f70df377c00000000000000000000000000000000000000000000000000000000815260040160405180910390fd5b60c88551111561060e576040517f680b6caf00000000000000000000000000000000000000000000000000000000815260040160405180910390fd5b6103e88451111561064b576040517fd7cfc59000000000000000000000000000000000000000000000000000000000815260040160405180910390fd5b5f5f5490505f600190506040518060c001604052808381526020018881526020018781526020013373ffffffffffffffffffffffffffffffffffffffff1681526020018281526020016001151581525060015f8481526020019081526020015f205f820151815f015560208201518160010190816106c99190611b47565b5060408201518160020190816106df9190611b47565b506060820151816003015f6101000a81548173ffffffffffffffffffffffffffffffffffffffff021916908373ffffffffffffffffffffffffffffffffffffffff1602179055506080820151816004015560a0820151816005015f6101000a81548160ff0219169083151502179055509050506040518060a001604052808581526020018481526020018681526020018281526020013373ffffffffffffffffffffffffffffffffffffffff1681525060025f8481526020019081526020015f205f8381526020019081526020015f205f820151815f015560208201518160010190816107cc9190611b47565b5060408201518160020155606082015181600301556080820151816004015f6101000a81548173ffffffffffffffffffffffffffffffffffffffff021916908373ffffffffffffffffffffffffffffffffffffffff1602179055509050505f5f81548092919061083b90611c43565b91905055503373ffffffffffffffffffffffffffffffffffffffff1681837faeb0f2e6dfdadf38ab7896e5a964f4bb11d3536bf90e4cfc93efa311a7672f538a8a8a8a8a604051610890959493929190611ce1565b60405180910390a450505050505050565b7f000000000000000000000000000000000000000000000000000000000000000073ffffffffffffffffffffffffffffffffffffffff163373ffffffffffffffffffffffffffffffffffffffff1614610926576040517f2c1a75e200000000000000000000000000000000000000000000000000000000815260040160405180910390fd5b7f000000000000000000000000000000000000000000000000000000000000000073ffffffffffffffffffffffffffffffffffffffff168173ffffffffffffffffffffffffffffffffffffffff16036109ab576040517ff7569fbf00000000000000000000000000000000000000000000000000000000815260040160405180910390fd5b60035f8273ffffffffffffffffffffffffffffffffffffffff1673ffffffffffffffffffffffffffffffffffffffff1681526020019081526020015f205f9054906101000a900460ff16610a2b576040517fb040852e00000000000000000000000000000000000000000000000000000000815260040160405180910390fd5b5f60035f8373ffffffffffffffffffffffffffffffffffffffff1673ffffffffffffffffffffffffffffffffffffffff1681526020019081526020015f205f6101000a81548160ff0219169083151502179055507f000000000000000000000000000000000000000000000000000000000000000073ffffffffffffffffffffffffffffffffffffffff16632547792f826040518263ffffffff1660e01b8152600401610ad89190611818565b5f604051808303815f87803b158015610aef575f5ffd5b505af1158015610b01573d5f5f3e3d5ffd5b505050508073ffffffffffffffffffffffffffffffffffffffff167fc3cc70e6a330c32edd01ea56d21dda57946cee3a0281b157dbf5cf84f2fed73160405160405180910390a250565b610b53611263565b60015f8381526020019081526020015f206005015f9054906101000a900460ff16610baa576040517f3bcbb0de00000000000000000000000000000000000000000000000000000000815260040160405180910390fd5b60015f8381526020019081526020015f206040518060c00160405290815f8201548152602001600182018054610bdf90611966565b80601f0160208091040260200160405190810160405280929190818152602001828054610c0b90611966565b8015610c565780601f10610c2d57610100808354040283529160200191610c56565b820191905f5260205f20905b815481529060010190602001808311610c3957829003601f168201915b50505050508152602001600282018054610c6f90611966565b80601f0160208091040260200160405190810160405280929190818152602001828054610c9b90611966565b8015610ce65780601f10610cbd57610100808354040283529160200191610ce6565b820191905f5260205f20905b815481529060010190602001808311610cc957829003601f168201915b50505050508152602001600382015f9054906101000a900473ffffffffffffffffffffffffffffffffffffffff1673ffffffffffffffffffffffffffffffffffffffff1673ffffffffffffffffffffffffffffffffffffffff16815260200160048201548152602001600582015f9054906101000a900460ff1615151515815250509050919050565b60035f3373ffffffffffffffffffffffffffffffffffffffff1673ffffffffffffffffffffffffffffffffffffffff1681526020019081526020015f205f9054906101000a900460ff16610def576040517f2c1a75e200000000000000000000000000000000000000000000000000000000815260040160405180910390fd5b60015f8581526020019081526020015f206005015f9054906101000a900460ff16610e46576040517f3bcbb0de00000000000000000000000000000000000000000000000000000000815260040160405180910390fd5b5f815103610e80576040517f63ee91d000000000000000000000000000000000000000000000000000000000815260040160405180910390fd5b5f5f1b8203610ebb576040517f70df377c00000000000000000000000000000000000000000000000000000000815260040160405180910390fd5b5f6001805f8781526020019081526020015f2060040154610edc9190611d47565b90506040518060a001604052808481526020018381526020018581526020018281526020013373ffffffffffffffffffffffffffffffffffffffff1681525060025f8781526020019081526020015f205f8381526020019081526020015f205f820151815f01556020820151816001019081610f589190611b47565b5060408201518160020155606082015181600301556080820151816004015f6101000a81548173ffffffffffffffffffffffffffffffffffffffff021916908373ffffffffffffffffffffffffffffffffffffffff1602179055509050508060015f8781526020019081526020015f20600401819055503373ffffffffffffffffffffffffffffffffffffffff1681867fd45405bebd56f938a9252239e7194222450aa11223c9c894e32007a1720a9d7e87878760405161101b93929190611d7a565b60405180910390a45050505050565b7f000000000000000000000000000000000000000000000000000000000000000081565b5f5481565b7f000000000000000000000000000000000000000000000000000000000000000081565b61107f6112ad565b60015f8481526020019081526020015f206005015f9054906101000a900460ff166110d6576040517f3bcbb0de00000000000000000000000000000000000000000000000000000000815260040160405180910390fd5b5f8214806110f7575060015f8481526020019081526020015f206004015482115b1561112e576040517f0a6b8aa300000000000000000000000000000000000000000000000000000000815260040160405180910390fd5b60025f8481526020019081526020015f205f8381526020019081526020015f206040518060a00160405290815f820154815260200160018201805461117290611966565b80601f016020809104026020016040519081016040528092919081815260200182805461119e90611966565b80156111e95780601f106111c0576101008083540402835291602001916111e9565b820191905f5260205f20905b8154815290600101906020018083116111cc57829003601f168201915b505050505081526020016002820154815260200160038201548152602001600482015f9054906101000a900473ffffffffffffffffffffffffffffffffffffffff1673ffffffffffffffffffffffffffffffffffffffff1673ffffffffffffffffffffffffffffffffffffffff1681525050905092915050565b6040518060c001604052805f815260200160608152602001606081526020015f73ffffffffffffffffffffffffffffffffffffffff1681526020015f81526020015f151581525090565b6040518060a001604052805f8152602001606081526020015f81526020015f81526020015f73ffffffffffffffffffffffffffffffffffffffff1681525090565b5f604051905090565b5f5ffd5b5f5ffd5b5f73ffffffffffffffffffffffffffffffffffffffff82169050919050565b5f611328826112ff565b9050919050565b6113388161131e565b8114611342575f5ffd5b50565b5f813590506113538161132f565b92915050565b5f6020828403121561136e5761136d6112f7565b5b5f61137b84828501611345565b91505092915050565b5f8115159050919050565b61139881611384565b82525050565b5f6020820190506113b15f83018461138f565b92915050565b5f5ffd5b5f5ffd5b5f601f19601f8301169050919050565b7f4e487b71000000000000000000000000000000000000000000000000000000005f52604160045260245ffd5b611405826113bf565b810181811067ffffffffffffffff82111715611424576114236113cf565b5b80604052505050565b5f6114366112ee565b905061144282826113fc565b919050565b5f67ffffffffffffffff821115611461576114606113cf565b5b61146a826113bf565b9050602081019050919050565b828183375f83830152505050565b5f61149761149284611447565b61142d565b9050828152602081018484840111156114b3576114b26113bb565b5b6114be848285611477565b509392505050565b5f82601f8301126114da576114d96113b7565b5b81356114ea848260208601611485565b91505092915050565b5f819050919050565b611505816114f3565b811461150f575f5ffd5b50565b5f81359050611520816114fc565b92915050565b5f819050919050565b61153881611526565b8114611542575f5ffd5b50565b5f813590506115538161152f565b92915050565b5f5f5f5f5f60a08688031215611572576115716112f7565b5b5f86013567ffffffffffffffff81111561158f5761158e6112fb565b5b61159b888289016114c6565b955050602086013567ffffffffffffffff8111156115bc576115bb6112fb565b5b6115c8888289016114c6565b94505060406115d988828901611512565b93505060606115ea88828901611545565b925050608086013567ffffffffffffffff81111561160b5761160a6112fb565b5b611617888289016114c6565b9150509295509295909350565b5f60208284031215611639576116386112f7565b5b5f61164684828501611512565b91505092915050565b611658816114f3565b82525050565b5f81519050919050565b5f82825260208201905092915050565b8281835e5f83830152505050565b5f6116908261165e565b61169a8185611668565b93506116aa818560208601611678565b6116b3816113bf565b840191505092915050565b6116c78161131e565b82525050565b6116d681611384565b82525050565b5f60c083015f8301516116f15f86018261164f565b50602083015184820360208601526117098282611686565b915050604083015184820360408601526117238282611686565b915050606083015161173860608601826116be565b50608083015161174b608086018261164f565b5060a083015161175e60a08601826116cd565b508091505092915050565b5f6020820190508181035f83015261178181846116dc565b905092915050565b5f5f5f5f608085870312156117a1576117a06112f7565b5b5f6117ae87828801611512565b94505060206117bf87828801611512565b93505060406117d087828801611545565b925050606085013567ffffffffffffffff8111156117f1576117f06112fb565b5b6117fd878288016114c6565b91505092959194509250565b6118128161131e565b82525050565b5f60208201905061182b5f830184611809565b92915050565b61183a816114f3565b82525050565b5f6020820190506118535f830184611831565b92915050565b5f5f6040838503121561186f5761186e6112f7565b5b5f61187c85828601611512565b925050602061188d85828601611512565b9150509250929050565b6118a081611526565b82525050565b5f60a083015f8301516118bb5f860182611897565b50602083015184820360208601526118d38282611686565b91505060408301516118e8604086018261164f565b5060608301516118fb606086018261164f565b50608083015161190e60808601826116be565b508091505092915050565b5f6020820190508181035f83015261193181846118a6565b905092915050565b7f4e487b71000000000000000000000000000000000000000000000000000000005f52602260045260245ffd5b5f600282049050600182168061197d57607f821691505b6020821081036119905761198f611939565b5b50919050565b5f819050815f5260205f209050919050565b5f6020601f8301049050919050565b5f82821b905092915050565b5f600883026119f27fffffffffffffffffffffffffffffffffffffffffffffffffffffffffffffffff826119b7565b6119fc86836119b7565b95508019841693508086168417925050509392505050565b5f819050919050565b5f611a37611a32611a2d846114f3565b611a14565b6114f3565b9050919050565b5f819050919050565b611a5083611a1d565b611a64611a5c82611a3e565b8484546119c3565b825550505050565b5f5f905090565b611a7b611a6c565b611a86818484611a47565b505050565b5f5b82811015611aac57611aa15f828401611a73565b600181019050611a8d565b505050565b601f821115611aff5782821115611afe57611acb81611996565b611ad4836119a8565b611add856119a8565b6020861015611aea575f90505b808301611af982840382611a8b565b505050505b5b505050565b5f82821c905092915050565b5f611b1f5f1984600802611b04565b1980831691505092915050565b5f611b378383611b10565b9150826002028217905092915050565b611b508261165e565b67ffffffffffffffff811115611b6957611b686113cf565b5b611b738254611966565b611b7e828285611ab1565b5f60209050601f831160018114611baf575f8415611b9d578287015190505b611ba78582611b2c565b865550611c0e565b601f198416611bbd86611996565b5f5b82811015611be457848901518255600182019150602085019450602081019050611bbf565b86831015611c015784890151611bfd601f891682611b10565b8355505b6001600288020188555050505b505050505050565b7f4e487b71000000000000000000000000000000000000000000000000000000005f52601160045260245ffd5b5f611c4d826114f3565b91507fffffffffffffffffffffffffffffffffffffffffffffffffffffffffffffffff8203611c7f57611c7e611c16565b5b600182019050919050565b5f82825260208201905092915050565b5f611ca48261165e565b611cae8185611c8a565b9350611cbe818560208601611678565b611cc7816113bf565b840191505092915050565b611cdb81611526565b82525050565b5f60a0820190508181035f830152611cf98188611c9a565b90508181036020830152611d0d8187611c9a565b9050611d1c6040830186611831565b611d296060830185611cd2565b8181036080830152611d3b8184611c9a565b90509695505050505050565b5f611d51826114f3565b9150611d5c836114f3565b9250828201905080821115611d7457611d73611c16565b5b92915050565b5f606082019050611d8d5f830186611831565b611d9a6020830185611cd2565b8181036040830152611dac8184611c9a565b905094935050505056fea26469706673582212204650ab87cf10985cd85ac7a2233f16623d5159a8763aeb006f0af46839d6eea264736f6c63430008220033",
					"opcodes": "PUSH1 0xC0 PUSH1 0x40 MSTORE PUSH1 0x1 PUSH0 SSTORE CALLVALUE DUP1 ISZERO PUSH2 0x13 JUMPI PUSH0 PUSH0 REVERT JUMPDEST POP PUSH1 0x40 MLOAD PUSH2 0x2061 CODESIZE SUB DUP1 PUSH2 0x2061 DUP4 CODECOPY DUP2 DUP2 ADD PUSH1 0x40 MSTORE DUP2 ADD SWAP1 PUSH2 0x35 SWAP2 SWAP1 PUSH2 0x1F3 JUMP JUMPDEST PUSH0 PUSH20 0xFFFFFFFFFFFFFFFFFFFFFFFFFFFFFFFFFFFFFFFF AND DUP3 PUSH20 0xFFFFFFFFFFFFFFFFFFFFFFFFFFFFFFFFFFFFFFFF AND EQ DUP1 PUSH2 0x9A JUMPI POP PUSH0 PUSH20 0xFFFFFFFFFFFFFFFFFFFFFFFFFFFFFFFFFFFFFFFF AND DUP2 PUSH20 0xFFFFFFFFFFFFFFFFFFFFFFFFFFFFFFFFFFFFFFFF AND EQ JUMPDEST ISZERO PUSH2 0xD1 JUMPI PUSH1 0x40 MLOAD PUSH32 0xE6C4247B00000000000000000000000000000000000000000000000000000000 DUP2 MSTORE PUSH1 0x4 ADD PUSH1 0x40 MLOAD DUP1 SWAP2 SUB SWAP1 REVERT JUMPDEST DUP2 PUSH20 0xFFFFFFFFFFFFFFFFFFFFFFFFFFFFFFFFFFFFFFFF AND PUSH1 0x80 DUP2 PUSH20 0xFFFFFFFFFFFFFFFFFFFFFFFFFFFFFFFFFFFFFFFF AND DUP2 MSTORE POP POP DUP1 PUSH20 0xFFFFFFFFFFFFFFFFFFFFFFFFFFFFFFFFFFFFFFFF AND PUSH1 0xA0 DUP2 PUSH20 0xFFFFFFFFFFFFFFFFFFFFFFFFFFFFFFFFFFFFFFFF AND DUP2 MSTORE POP POP PUSH1 0x1 PUSH1 0x3 PUSH0 DUP5 PUSH20 0xFFFFFFFFFFFFFFFFFFFFFFFFFFFFFFFFFFFFFFFF AND PUSH20 0xFFFFFFFFFFFFFFFFFFFFFFFFFFFFFFFFFFFFFFFF AND DUP2 MSTORE PUSH1 0x20 ADD SWAP1 DUP2 MSTORE PUSH1 0x20 ADD PUSH0 KECCAK256 PUSH0 PUSH2 0x100 EXP DUP2 SLOAD DUP2 PUSH1 0xFF MUL NOT AND SWAP1 DUP4 ISZERO ISZERO MUL OR SWAP1 SSTORE POP POP POP PUSH2 0x231 JUMP JUMPDEST PUSH0 PUSH0 REVERT JUMPDEST PUSH0 PUSH20 0xFFFFFFFFFFFFFFFFFFFFFFFFFFFFFFFFFFFFFFFF DUP3 AND SWAP1 POP SWAP2 SWAP1 POP JUMP JUMPDEST PUSH0 PUSH2 0x1C2 DUP3 PUSH2 0x199 JUMP JUMPDEST SWAP1 POP SWAP2 SWAP1 POP JUMP JUMPDEST PUSH2 0x1D2 DUP2 PUSH2 0x1B8 JUMP JUMPDEST DUP2 EQ PUSH2 0x1DC JUMPI PUSH0 PUSH0 REVERT JUMPDEST POP JUMP JUMPDEST PUSH0 DUP2 MLOAD SWAP1 POP PUSH2 0x1ED DUP2 PUSH2 0x1C9 JUMP JUMPDEST SWAP3 SWAP2 POP POP JUMP JUMPDEST PUSH0 PUSH0 PUSH1 0x40 DUP4 DUP6 SUB SLT ISZERO PUSH2 0x209 JUMPI PUSH2 0x208 PUSH2 0x195 JUMP JUMPDEST JUMPDEST PUSH0 PUSH2 0x216 DUP6 DUP3 DUP7 ADD PUSH2 0x1DF JUMP JUMPDEST SWAP3 POP POP PUSH1 0x20 PUSH2 0x227 DUP6 DUP3 DUP7 ADD PUSH2 0x1DF JUMP JUMPDEST SWAP2 POP POP SWAP3 POP SWAP3 SWAP1 POP JUMP JUMPDEST PUSH1 0x80 MLOAD PUSH1 0xA0 MLOAD PUSH2 0x1DEC PUSH2 0x275 PUSH0 CODECOPY PUSH0 DUP2 DUP2 PUSH2 0x3BC ADD MSTORE DUP2 DUP2 PUSH2 0xA81 ADD MSTORE PUSH2 0x1055 ADD MSTORE PUSH0 DUP2 DUP2 PUSH2 0x1FC ADD MSTORE DUP2 DUP2 PUSH2 0x8A3 ADD MSTORE DUP2 DUP2 PUSH2 0x928 ADD MSTORE PUSH2 0x102C ADD MSTORE PUSH2 0x1DEC PUSH0 RETURN INVALID PUSH1 0x80 PUSH1 0x40 MSTORE CALLVALUE DUP1 ISZERO PUSH2 0xF JUMPI PUSH0 PUSH0 REVERT JUMPDEST POP PUSH1 0x4 CALLDATASIZE LT PUSH2 0x9C JUMPI PUSH0 CALLDATALOAD PUSH1 0xE0 SHR DUP1 PUSH4 0x4935E326 GT PUSH2 0x64 JUMPI DUP1 PUSH4 0x4935E326 EQ PUSH2 0x154 JUMPI DUP1 PUSH4 0x81FD552F EQ PUSH2 0x170 JUMPI DUP1 PUSH4 0x89B83A9B EQ PUSH2 0x18E JUMPI DUP1 PUSH4 0xC45A0155 EQ PUSH2 0x1AC JUMPI DUP1 PUSH4 0xCF04FF9F EQ PUSH2 0x1CA JUMPI PUSH2 0x9C JUMP JUMPDEST DUP1 PUSH4 0x4076482 EQ PUSH2 0xA0 JUMPI DUP1 PUSH4 0x1828983A EQ PUSH2 0xBC JUMPI DUP1 PUSH4 0x196BED7F EQ PUSH2 0xEC JUMPI DUP1 PUSH4 0x2822853A EQ PUSH2 0x108 JUMPI DUP1 PUSH4 0x2BFDA313 EQ PUSH2 0x124 JUMPI JUMPDEST PUSH0 PUSH0 REVERT JUMPDEST PUSH2 0xBA PUSH1 0x4 DUP1 CALLDATASIZE SUB DUP2 ADD SWAP1 PUSH2 0xB5 SWAP2 SWAP1 PUSH2 0x1359 JUMP JUMPDEST PUSH2 0x1FA JUMP JUMPDEST STOP JUMPDEST PUSH2 0xD6 PUSH1 0x4 DUP1 CALLDATASIZE SUB DUP2 ADD SWAP1 PUSH2 0xD1 SWAP2 SWAP1 PUSH2 0x1359 JUMP JUMPDEST PUSH2 0x486 JUMP JUMPDEST PUSH1 0x40 MLOAD PUSH2 0xE3 SWAP2 SWAP1 PUSH2 0x139E JUMP JUMPDEST PUSH1 0x40 MLOAD DUP1 SWAP2 SUB SWAP1 RETURN JUMPDEST PUSH2 0x106 PUSH1 0x4 DUP1 CALLDATASIZE SUB DUP2 ADD SWAP1 PUSH2 0x101 SWAP2 SWAP1 PUSH2 0x1559 JUMP JUMPDEST PUSH2 0x4A3 JUMP JUMPDEST STOP JUMPDEST PUSH2 0x122 PUSH1 0x4 DUP1 CALLDATASIZE SUB DUP2 ADD SWAP1 PUSH2 0x11D SWAP2 SWAP1 PUSH2 0x1359 JUMP JUMPDEST PUSH2 0x8A1 JUMP JUMPDEST STOP JUMPDEST PUSH2 0x13E PUSH1 0x4 DUP1 CALLDATASIZE SUB DUP2 ADD SWAP1 PUSH2 0x139 SWAP2 SWAP1 PUSH2 0x1624 JUMP JUMPDEST PUSH2 0xB4B JUMP JUMPDEST PUSH1 0x40 MLOAD PUSH2 0x14B SWAP2 SWAP1 PUSH2 0x1769 JUMP JUMPDEST PUSH1 0x40 MLOAD DUP1 SWAP2 SUB SWAP1 RETURN JUMPDEST PUSH2 0x16E PUSH1 0x4 DUP1 CALLDATASIZE SUB DUP2 ADD SWAP1 PUSH2 0x169 SWAP2 SWAP1 PUSH2 0x1789 JUMP JUMPDEST PUSH2 0xD6F JUMP JUMPDEST STOP JUMPDEST PUSH2 0x178 PUSH2 0x102A JUMP JUMPDEST PUSH1 0x40 MLOAD PUSH2 0x185 SWAP2 SWAP1 PUSH2 0x1818 JUMP JUMPDEST PUSH1 0x40 MLOAD DUP1 SWAP2 SUB SWAP1 RETURN JUMPDEST PUSH2 0x196 PUSH2 0x104E JUMP JUMPDEST PUSH1 0x40 MLOAD PUSH2 0x1A3 SWAP2 SWAP1 PUSH2 0x1840 JUMP JUMPDEST PUSH1 0x40 MLOAD DUP1 SWAP2 SUB SWAP1 RETURN JUMPDEST PUSH2 0x1B4 PUSH2 0x1053 JUMP JUMPDEST PUSH1 0x40 MLOAD PUSH2 0x1C1 SWAP2 SWAP1 PUSH2 0x1818 JUMP JUMPDEST PUSH1 0x40 MLOAD DUP1 SWAP2 SUB SWAP1 RETURN JUMPDEST PUSH2 0x1E4 PUSH1 0x4 DUP1 CALLDATASIZE SUB DUP2 ADD SWAP1 PUSH2 0x1DF SWAP2 SWAP1 PUSH2 0x1859 JUMP JUMPDEST PUSH2 0x1077 JUMP JUMPDEST PUSH1 0x40 MLOAD PUSH2 0x1F1 SWAP2 SWAP1 PUSH2 0x1919 JUMP JUMPDEST PUSH1 0x40 MLOAD DUP1 SWAP2 SUB SWAP1 RETURN JUMPDEST PUSH32 0x0 PUSH20 0xFFFFFFFFFFFFFFFFFFFFFFFFFFFFFFFFFFFFFFFF AND CALLER PUSH20 0xFFFFFFFFFFFFFFFFFFFFFFFFFFFFFFFFFFFFFFFF AND EQ PUSH2 0x27F JUMPI PUSH1 0x40 MLOAD PUSH32 0x2C1A75E200000000000000000000000000000000000000000000000000000000 DUP2 MSTORE PUSH1 0x4 ADD PUSH1 0x40 MLOAD DUP1 SWAP2 SUB SWAP1 REVERT JUMPDEST PUSH0 PUSH20 0xFFFFFFFFFFFFFFFFFFFFFFFFFFFFFFFFFFFFFFFF AND DUP2 PUSH20 0xFFFFFFFFFFFFFFFFFFFFFFFFFFFFFFFFFFFFFFFF AND SUB PUSH2 0x2E4 JUMPI PUSH1 0x40 MLOAD PUSH32 0xE6C4247B00000000000000000000000000000000000000000000000000000000 DUP2 MSTORE PUSH1 0x4 ADD PUSH1 0x40 MLOAD DUP1 SWAP2 SUB SWAP1 REVERT JUMPDEST PUSH1 0x3 PUSH0 DUP3 PUSH20 0xFFFFFFFFFFFFFFFFFFFFFFFFFFFFFFFFFFFFFFFF AND PUSH20 0xFFFFFFFFFFFFFFFFFFFFFFFFFFFFFFFFFFFFFFFF AND DUP2 MSTORE PUSH1 0x20 ADD SWAP1 DUP2 MSTORE PUSH1 0x20 ADD PUSH0 KECCAK256 PUSH0 SWAP1 SLOAD SWAP1 PUSH2 0x100 EXP SWAP1 DIV PUSH1 0xFF AND ISZERO PUSH2 0x365 JUMPI PUSH1 0x40 MLOAD PUSH32 0x6027D27E00000000000000000000000000000000000000000000000000000000 DUP2 MSTORE PUSH1 0x4 ADD PUSH1 0x40 MLOAD DUP1 SWAP2 SUB SWAP1 REVERT JUMPDEST PUSH1 0x1 PUSH1 0x3 PUSH0 DUP4 PUSH20 0xFFFFFFFFFFFFFFFFFFFFFFFFFFFFFFFFFFFFFFFF AND PUSH20 0xFFFFFFFFFFFFFFFFFFFFFFFFFFFFFFFFFFFFFFFF AND DUP2 MSTORE PUSH1 0x20 ADD SWAP1 DUP2 MSTORE PUSH1 0x20 ADD PUSH0 KECCAK256 PUSH0 PUSH2 0x100 EXP DUP2 SLOAD DUP2 PUSH1 0xFF MUL NOT AND SWAP1 DUP4 ISZERO ISZERO MUL OR SWAP1 SSTORE POP PUSH32 0x0 PUSH20 0xFFFFFFFFFFFFFFFFFFFFFFFFFFFFFFFFFFFFFFFF AND PUSH4 0xEB02051F DUP3 PUSH1 0x40 MLOAD DUP3 PUSH4 0xFFFFFFFF AND PUSH1 0xE0 SHL DUP2 MSTORE PUSH1 0x4 ADD PUSH2 0x413 SWAP2 SWAP1 PUSH2 0x1818 JUMP JUMPDEST PUSH0 PUSH1 0x40 MLOAD DUP1 DUP4 SUB DUP2 PUSH0 DUP8 DUP1 EXTCODESIZE ISZERO DUP1 ISZERO PUSH2 0x42A JUMPI PUSH0 PUSH0 REVERT JUMPDEST POP GAS CALL ISZERO DUP1 ISZERO PUSH2 0x43C JUMPI RETURNDATASIZE PUSH0 PUSH0 RETURNDATACOPY RETURNDATASIZE PUSH0 REVERT JUMPDEST POP POP POP POP DUP1 PUSH20 0xFFFFFFFFFFFFFFFFFFFFFFFFFFFFFFFFFFFFFFFF AND PUSH32 0x850482B9CEBA86C8675400BFD35D4B6A92F7A27E0505E2243BA0A1B61302102C PUSH1 0x40 MLOAD PUSH1 0x40 MLOAD DUP1 SWAP2 SUB SWAP1 LOG2 POP JUMP JUMPDEST PUSH1 0x3 PUSH1 0x20 MSTORE DUP1 PUSH0 MSTORE PUSH1 0x40 PUSH0 KECCAK256 PUSH0 SWAP2 POP SLOAD SWAP1 PUSH2 0x100 EXP SWAP1 DIV PUSH1 0xFF AND DUP2 JUMP JUMPDEST PUSH1 0x3 PUSH0 CALLER PUSH20 0xFFFFFFFFFFFFFFFFFFFFFFFFFFFFFFFFFFFFFFFF AND PUSH20 0xFFFFFFFFFFFFFFFFFFFFFFFFFFFFFFFFFFFFFFFF AND DUP2 MSTORE PUSH1 0x20 ADD SWAP1 DUP2 MSTORE PUSH1 0x20 ADD PUSH0 KECCAK256 PUSH0 SWAP1 SLOAD SWAP1 PUSH2 0x100 EXP SWAP1 DIV PUSH1 0xFF AND PUSH2 0x523 JUMPI PUSH1 0x40 MLOAD PUSH32 0x2C1A75E200000000000000000000000000000000000000000000000000000000 DUP2 MSTORE PUSH1 0x4 ADD PUSH1 0x40 MLOAD DUP1 SWAP2 SUB SWAP1 REVERT JUMPDEST PUSH0 DUP6 MLOAD SUB PUSH2 0x55D JUMPI PUSH1 0x40 MLOAD PUSH32 0x2EF1310500000000000000000000000000000000000000000000000000000000 DUP2 MSTORE PUSH1 0x4 ADD PUSH1 0x40 MLOAD DUP1 SWAP2 SUB SWAP1 REVERT JUMPDEST PUSH0 DUP2 MLOAD SUB PUSH2 0x597 JUMPI PUSH1 0x40 MLOAD PUSH32 0x63EE91D000000000000000000000000000000000000000000000000000000000 DUP2 MSTORE PUSH1 0x4 ADD PUSH1 0x40 MLOAD DUP1 SWAP2 SUB SWAP1 REVERT JUMPDEST PUSH0 PUSH0 SHL DUP3 SUB PUSH2 0x5D2 JUMPI PUSH1 0x40 MLOAD PUSH32 0x70DF377C00000000000000000000000000000000000000000000000000000000 DUP2 MSTORE PUSH1 0x4 ADD PUSH1 0x40 MLOAD DUP1 SWAP2 SUB SWAP1 REVERT JUMPDEST PUSH1 0xC8 DUP6 MLOAD GT ISZERO PUSH2 0x60E JUMPI PUSH1 0x40 MLOAD PUSH32 0x680B6CAF00000000000000000000000000000000000000000000000000000000 DUP2 MSTORE PUSH1 0x4 ADD PUSH1 0x40 MLOAD DUP1 SWAP2 SUB SWAP1 REVERT JUMPDEST PUSH2 0x3E8 DUP5 MLOAD GT ISZERO PUSH2 0x64B JUMPI PUSH1 0x40 MLOAD PUSH32 0xD7CFC59000000000000000000000000000000000000000000000000000000000 DUP2 MSTORE PUSH1 0x4 ADD PUSH1 0x40 MLOAD DUP1 SWAP2 SUB SWAP1 REVERT JUMPDEST PUSH0 PUSH0 SLOAD SWAP1 POP PUSH0 PUSH1 0x1 SWAP1 POP PUSH1 0x40 MLOAD DUP1 PUSH1 0xC0 ADD PUSH1 0x40 MSTORE DUP1 DUP4 DUP2 MSTORE PUSH1 0x20 ADD DUP9 DUP2 MSTORE PUSH1 0x20 ADD DUP8 DUP2 MSTORE PUSH1 0x20 ADD CALLER PUSH20 0xFFFFFFFFFFFFFFFFFFFFFFFFFFFFFFFFFFFFFFFF AND DUP2 MSTORE PUSH1 0x20 ADD DUP3 DUP2 MSTORE PUSH1 0x20 ADD PUSH1 0x1 ISZERO ISZERO DUP2 MSTORE POP PUSH1 0x1 PUSH0 DUP5 DUP2 MSTORE PUSH1 0x20 ADD SWAP1 DUP2 MSTORE PUSH1 0x20 ADD PUSH0 KECCAK256 PUSH0 DUP3 ADD MLOAD DUP2 PUSH0 ADD SSTORE PUSH1 0x20 DUP3 ADD MLOAD DUP2 PUSH1 0x1 ADD SWAP1 DUP2 PUSH2 0x6C9 SWAP2 SWAP1 PUSH2 0x1B47 JUMP JUMPDEST POP PUSH1 0x40 DUP3 ADD MLOAD DUP2 PUSH1 0x2 ADD SWAP1 DUP2 PUSH2 0x6DF SWAP2 SWAP1 PUSH2 0x1B47 JUMP JUMPDEST POP PUSH1 0x60 DUP3 ADD MLOAD DUP2 PUSH1 0x3 ADD PUSH0 PUSH2 0x100 EXP DUP2 SLOAD DUP2 PUSH20 0xFFFFFFFFFFFFFFFFFFFFFFFFFFFFFFFFFFFFFFFF MUL NOT AND SWAP1 DUP4 PUSH20 0xFFFFFFFFFFFFFFFFFFFFFFFFFFFFFFFFFFFFFFFF AND MUL OR SWAP1 SSTORE POP PUSH1 0x80 DUP3 ADD MLOAD DUP2 PUSH1 0x4 ADD SSTORE PUSH1 0xA0 DUP3 ADD MLOAD DUP2 PUSH1 0x5 ADD PUSH0 PUSH2 0x100 EXP DUP2 SLOAD DUP2 PUSH1 0xFF MUL NOT AND SWAP1 DUP4 ISZERO ISZERO MUL OR SWAP1 SSTORE POP SWAP1 POP POP PUSH1 0x40 MLOAD DUP1 PUSH1 0xA0 ADD PUSH1 0x40 MSTORE DUP1 DUP6 DUP2 MSTORE PUSH1 0x20 ADD DUP5 DUP2 MSTORE PUSH1 0x20 ADD DUP7 DUP2 MSTORE PUSH1 0x20 ADD DUP3 DUP2 MSTORE PUSH1 0x20 ADD CALLER PUSH20 0xFFFFFFFFFFFFFFFFFFFFFFFFFFFFFFFFFFFFFFFF AND DUP2 MSTORE POP PUSH1 0x2 PUSH0 DUP5 DUP2 MSTORE PUSH1 0x20 ADD SWAP1 DUP2 MSTORE PUSH1 0x20 ADD PUSH0 KECCAK256 PUSH0 DUP4 DUP2 MSTORE PUSH1 0x20 ADD SWAP1 DUP2 MSTORE PUSH1 0x20 ADD PUSH0 KECCAK256 PUSH0 DUP3 ADD MLOAD DUP2 PUSH0 ADD SSTORE PUSH1 0x20 DUP3 ADD MLOAD DUP2 PUSH1 0x1 ADD SWAP1 DUP2 PUSH2 0x7CC SWAP2 SWAP1 PUSH2 0x1B47 JUMP JUMPDEST POP PUSH1 0x40 DUP3 ADD MLOAD DUP2 PUSH1 0x2 ADD SSTORE PUSH1 0x60 DUP3 ADD MLOAD DUP2 PUSH1 0x3 ADD SSTORE PUSH1 0x80 DUP3 ADD MLOAD DUP2 PUSH1 0x4 ADD PUSH0 PUSH2 0x100 EXP DUP2 SLOAD DUP2 PUSH20 0xFFFFFFFFFFFFFFFFFFFFFFFFFFFFFFFFFFFFFFFF MUL NOT AND SWAP1 DUP4 PUSH20 0xFFFFFFFFFFFFFFFFFFFFFFFFFFFFFFFFFFFFFFFF AND MUL OR SWAP1 SSTORE POP SWAP1 POP POP PUSH0 PUSH0 DUP2 SLOAD DUP1 SWAP3 SWAP2 SWAP1 PUSH2 0x83B SWAP1 PUSH2 0x1C43 JUMP JUMPDEST SWAP2 SWAP1 POP SSTORE POP CALLER PUSH20 0xFFFFFFFFFFFFFFFFFFFFFFFFFFFFFFFFFFFFFFFF AND DUP2 DUP4 PUSH32 0xAEB0F2E6DFDADF38AB7896E5A964F4BB11D3536BF90E4CFC93EFA311A7672F53 DUP11 DUP11 DUP11 DUP11 DUP11 PUSH1 0x40 MLOAD PUSH2 0x890 SWAP6 SWAP5 SWAP4 SWAP3 SWAP2 SWAP1 PUSH2 0x1CE1 JUMP JUMPDEST PUSH1 0x40 MLOAD DUP1 SWAP2 SUB SWAP1 LOG4 POP POP POP POP POP POP POP JUMP JUMPDEST PUSH32 0x0 PUSH20 0xFFFFFFFFFFFFFFFFFFFFFFFFFFFFFFFFFFFFFFFF AND CALLER PUSH20 0xFFFFFFFFFFFFFFFFFFFFFFFFFFFFFFFFFFFFFFFF AND EQ PUSH2 0x926 JUMPI PUSH1 0x40 MLOAD PUSH32 0x2C1A75E200000000000000000000000000000000000000000000000000000000 DUP2 MSTORE PUSH1 0x4 ADD PUSH1 0x40 MLOAD DUP1 SWAP2 SUB SWAP1 REVERT JUMPDEST PUSH32 0x0 PUSH20 0xFFFFFFFFFFFFFFFFFFFFFFFFFFFFFFFFFFFFFFFF AND DUP2 PUSH20 0xFFFFFFFFFFFFFFFFFFFFFFFFFFFFFFFFFFFFFFFF AND SUB PUSH2 0x9AB JUMPI PUSH1 0x40 MLOAD PUSH32 0xF7569FBF00000000000000000000000000000000000000000000000000000000 DUP2 MSTORE PUSH1 0x4 ADD PUSH1 0x40 MLOAD DUP1 SWAP2 SUB SWAP1 REVERT JUMPDEST PUSH1 0x3 PUSH0 DUP3 PUSH20 0xFFFFFFFFFFFFFFFFFFFFFFFFFFFFFFFFFFFFFFFF AND PUSH20 0xFFFFFFFFFFFFFFFFFFFFFFFFFFFFFFFFFFFFFFFF AND DUP2 MSTORE PUSH1 0x20 ADD SWAP1 DUP2 MSTORE PUSH1 0x20 ADD PUSH0 KECCAK256 PUSH0 SWAP1 SLOAD SWAP1 PUSH2 0x100 EXP SWAP1 DIV PUSH1 0xFF AND PUSH2 0xA2B JUMPI PUSH1 0x40 MLOAD PUSH32 0xB040852E00000000000000000000000000000000000000000000000000000000 DUP2 MSTORE PUSH1 0x4 ADD PUSH1 0x40 MLOAD DUP1 SWAP2 SUB SWAP1 REVERT JUMPDEST PUSH0 PUSH1 0x3 PUSH0 DUP4 PUSH20 0xFFFFFFFFFFFFFFFFFFFFFFFFFFFFFFFFFFFFFFFF AND PUSH20 0xFFFFFFFFFFFFFFFFFFFFFFFFFFFFFFFFFFFFFFFF AND DUP2 MSTORE PUSH1 0x20 ADD SWAP1 DUP2 MSTORE PUSH1 0x20 ADD PUSH0 KECCAK256 PUSH0 PUSH2 0x100 EXP DUP2 SLOAD DUP2 PUSH1 0xFF MUL NOT AND SWAP1 DUP4 ISZERO ISZERO MUL OR SWAP1 SSTORE POP PUSH32 0x0 PUSH20 0xFFFFFFFFFFFFFFFFFFFFFFFFFFFFFFFFFFFFFFFF AND PUSH4 0x2547792F DUP3 PUSH1 0x40 MLOAD DUP3 PUSH4 0xFFFFFFFF AND PUSH1 0xE0 SHL DUP2 MSTORE PUSH1 0x4 ADD PUSH2 0xAD8 SWAP2 SWAP1 PUSH2 0x1818 JUMP JUMPDEST PUSH0 PUSH1 0x40 MLOAD DUP1 DUP4 SUB DUP2 PUSH0 DUP8 DUP1 EXTCODESIZE ISZERO DUP1 ISZERO PUSH2 0xAEF JUMPI PUSH0 PUSH0 REVERT JUMPDEST POP GAS CALL ISZERO DUP1 ISZERO PUSH2 0xB01 JUMPI RETURNDATASIZE PUSH0 PUSH0 RETURNDATACOPY RETURNDATASIZE PUSH0 REVERT JUMPDEST POP POP POP POP DUP1 PUSH20 0xFFFFFFFFFFFFFFFFFFFFFFFFFFFFFFFFFFFFFFFF AND PUSH32 0xC3CC70E6A330C32EDD01EA56D21DDA57946CEE3A0281B157DBF5CF84F2FED731 PUSH1 0x40 MLOAD PUSH1 0x40 MLOAD DUP1 SWAP2 SUB SWAP1 LOG2 POP JUMP JUMPDEST PUSH2 0xB53 PUSH2 0x1263 JUMP JUMPDEST PUSH1 0x1 PUSH0 DUP4 DUP2 MSTORE PUSH1 0x20 ADD SWAP1 DUP2 MSTORE PUSH1 0x20 ADD PUSH0 KECCAK256 PUSH1 0x5 ADD PUSH0 SWAP1 SLOAD SWAP1 PUSH2 0x100 EXP SWAP1 DIV PUSH1 0xFF AND PUSH2 0xBAA JUMPI PUSH1 0x40 MLOAD PUSH32 0x3BCBB0DE00000000000000000000000000000000000000000000000000000000 DUP2 MSTORE PUSH1 0x4 ADD PUSH1 0x40 MLOAD DUP1 SWAP2 SUB SWAP1 REVERT JUMPDEST PUSH1 0x1 PUSH0 DUP4 DUP2 MSTORE PUSH1 0x20 ADD SWAP1 DUP2 MSTORE PUSH1 0x20 ADD PUSH0 KECCAK256 PUSH1 0x40 MLOAD DUP1 PUSH1 0xC0 ADD PUSH1 0x40 MSTORE SWAP1 DUP2 PUSH0 DUP3 ADD SLOAD DUP2 MSTORE PUSH1 0x20 ADD PUSH1 0x1 DUP3 ADD DUP1 SLOAD PUSH2 0xBDF SWAP1 PUSH2 0x1966 JUMP JUMPDEST DUP1 PUSH1 0x1F ADD PUSH1 0x20 DUP1 SWAP2 DIV MUL PUSH1 0x20 ADD PUSH1 0x40 MLOAD SWAP1 DUP2 ADD PUSH1 0x40 MSTORE DUP1 SWAP3 SWAP2 SWAP1 DUP2 DUP2 MSTORE PUSH1 0x20 ADD DUP3 DUP1 SLOAD PUSH2 0xC0B SWAP1 PUSH2 0x1966 JUMP JUMPDEST DUP1 ISZERO PUSH2 0xC56 JUMPI DUP1 PUSH1 0x1F LT PUSH2 0xC2D JUMPI PUSH2 0x100 DUP1 DUP4 SLOAD DIV MUL DUP4 MSTORE SWAP2 PUSH1 0x20 ADD SWAP2 PUSH2 0xC56 JUMP JUMPDEST DUP3 ADD SWAP2 SWAP1 PUSH0 MSTORE PUSH1 0x20 PUSH0 KECCAK256 SWAP1 JUMPDEST DUP2 SLOAD DUP2 MSTORE SWAP1 PUSH1 0x1 ADD SWAP1 PUSH1 0x20 ADD DUP1 DUP4 GT PUSH2 0xC39 JUMPI DUP3 SWAP1 SUB PUSH1 0x1F AND DUP3 ADD SWAP2 JUMPDEST POP POP POP POP POP DUP2 MSTORE PUSH1 0x20 ADD PUSH1 0x2 DUP3 ADD DUP1 SLOAD PUSH2 0xC6F SWAP1 PUSH2 0x1966 JUMP JUMPDEST DUP1 PUSH1 0x1F ADD PUSH1 0x20 DUP1 SWAP2 DIV MUL PUSH1 0x20 ADD PUSH1 0x40 MLOAD SWAP1 DUP2 ADD PUSH1 0x40 MSTORE DUP1 SWAP3 SWAP2 SWAP1 DUP2 DUP2 MSTORE PUSH1 0x20 ADD DUP3 DUP1 SLOAD PUSH2 0xC9B SWAP1 PUSH2 0x1966 JUMP JUMPDEST DUP1 ISZERO PUSH2 0xCE6 JUMPI DUP1 PUSH1 0x1F LT PUSH2 0xCBD JUMPI PUSH2 0x100 DUP1 DUP4 SLOAD DIV MUL DUP4 MSTORE SWAP2 PUSH1 0x20 ADD SWAP2 PUSH2 0xCE6 JUMP JUMPDEST DUP3 ADD SWAP2 SWAP1 PUSH0 MSTORE PUSH1 0x20 PUSH0 KECCAK256 SWAP1 JUMPDEST DUP2 SLOAD DUP2 MSTORE SWAP1 PUSH1 0x1 ADD SWAP1 PUSH1 0x20 ADD DUP1 DUP4 GT PUSH2 0xCC9 JUMPI DUP3 SWAP1 SUB PUSH1 0x1F AND DUP3 ADD SWAP2 JUMPDEST POP POP POP POP POP DUP2 MSTORE PUSH1 0x20 ADD PUSH1 0x3 DUP3 ADD PUSH0 SWAP1 SLOAD SWAP1 PUSH2 0x100 EXP SWAP1 DIV PUSH20 0xFFFFFFFFFFFFFFFFFFFFFFFFFFFFFFFFFFFFFFFF AND PUSH20 0xFFFFFFFFFFFFFFFFFFFFFFFFFFFFFFFFFFFFFFFF AND PUSH20 0xFFFFFFFFFFFFFFFFFFFFFFFFFFFFFFFFFFFFFFFF AND DUP2 MSTORE PUSH1 0x20 ADD PUSH1 0x4 DUP3 ADD SLOAD DUP2 MSTORE PUSH1 0x20 ADD PUSH1 0x5 DUP3 ADD PUSH0 SWAP1 SLOAD SWAP1 PUSH2 0x100 EXP SWAP1 DIV PUSH1 0xFF AND ISZERO ISZERO ISZERO ISZERO DUP2 MSTORE POP POP SWAP1 POP SWAP2 SWAP1 POP JUMP JUMPDEST PUSH1 0x3 PUSH0 CALLER PUSH20 0xFFFFFFFFFFFFFFFFFFFFFFFFFFFFFFFFFFFFFFFF AND PUSH20 0xFFFFFFFFFFFFFFFFFFFFFFFFFFFFFFFFFFFFFFFF AND DUP2 MSTORE PUSH1 0x20 ADD SWAP1 DUP2 MSTORE PUSH1 0x20 ADD PUSH0 KECCAK256 PUSH0 SWAP1 SLOAD SWAP1 PUSH2 0x100 EXP SWAP1 DIV PUSH1 0xFF AND PUSH2 0xDEF JUMPI PUSH1 0x40 MLOAD PUSH32 0x2C1A75E200000000000000000000000000000000000000000000000000000000 DUP2 MSTORE PUSH1 0x4 ADD PUSH1 0x40 MLOAD DUP1 SWAP2 SUB SWAP1 REVERT JUMPDEST PUSH1 0x1 PUSH0 DUP6 DUP2 MSTORE PUSH1 0x20 ADD SWAP1 DUP2 MSTORE PUSH1 0x20 ADD PUSH0 KECCAK256 PUSH1 0x5 ADD PUSH0 SWAP1 SLOAD SWAP1 PUSH2 0x100 EXP SWAP1 DIV PUSH1 0xFF AND PUSH2 0xE46 JUMPI PUSH1 0x40 MLOAD PUSH32 0x3BCBB0DE00000000000000000000000000000000000000000000000000000000 DUP2 MSTORE PUSH1 0x4 ADD PUSH1 0x40 MLOAD DUP1 SWAP2 SUB SWAP1 REVERT JUMPDEST PUSH0 DUP2 MLOAD SUB PUSH2 0xE80 JUMPI PUSH1 0x40 MLOAD PUSH32 0x63EE91D000000000000000000000000000000000000000000000000000000000 DUP2 MSTORE PUSH1 0x4 ADD PUSH1 0x40 MLOAD DUP1 SWAP2 SUB SWAP1 REVERT JUMPDEST PUSH0 PUSH0 SHL DUP3 SUB PUSH2 0xEBB JUMPI PUSH1 0x40 MLOAD PUSH32 0x70DF377C00000000000000000000000000000000000000000000000000000000 DUP2 MSTORE PUSH1 0x4 ADD PUSH1 0x40 MLOAD DUP1 SWAP2 SUB SWAP1 REVERT JUMPDEST PUSH0 PUSH1 0x1 DUP1 PUSH0 DUP8 DUP2 MSTORE PUSH1 0x20 ADD SWAP1 DUP2 MSTORE PUSH1 0x20 ADD PUSH0 KECCAK256 PUSH1 0x4 ADD SLOAD PUSH2 0xEDC SWAP2 SWAP1 PUSH2 0x1D47 JUMP JUMPDEST SWAP1 POP PUSH1 0x40 MLOAD DUP1 PUSH1 0xA0 ADD PUSH1 0x40 MSTORE DUP1 DUP5 DUP2 MSTORE PUSH1 0x20 ADD DUP4 DUP2 MSTORE PUSH1 0x20 ADD DUP6 DUP2 MSTORE PUSH1 0x20 ADD DUP3 DUP2 MSTORE PUSH1 0x20 ADD CALLER PUSH20 0xFFFFFFFFFFFFFFFFFFFFFFFFFFFFFFFFFFFFFFFF AND DUP2 MSTORE POP PUSH1 0x2 PUSH0 DUP8 DUP2 MSTORE PUSH1 0x20 ADD SWAP1 DUP2 MSTORE PUSH1 0x20 ADD PUSH0 KECCAK256 PUSH0 DUP4 DUP2 MSTORE PUSH1 0x20 ADD SWAP1 DUP2 MSTORE PUSH1 0x20 ADD PUSH0 KECCAK256 PUSH0 DUP3 ADD MLOAD DUP2 PUSH0 ADD SSTORE PUSH1 0x20 DUP3 ADD MLOAD DUP2 PUSH1 0x1 ADD SWAP1 DUP2 PUSH2 0xF58 SWAP2 SWAP1 PUSH2 0x1B47 JUMP JUMPDEST POP PUSH1 0x40 DUP3 ADD MLOAD DUP2 PUSH1 0x2 ADD SSTORE PUSH1 0x60 DUP3 ADD MLOAD DUP2 PUSH1 0x3 ADD SSTORE PUSH1 0x80 DUP3 ADD MLOAD DUP2 PUSH1 0x4 ADD PUSH0 PUSH2 0x100 EXP DUP2 SLOAD DUP2 PUSH20 0xFFFFFFFFFFFFFFFFFFFFFFFFFFFFFFFFFFFFFFFF MUL NOT AND SWAP1 DUP4 PUSH20 0xFFFFFFFFFFFFFFFFFFFFFFFFFFFFFFFFFFFFFFFF AND MUL OR SWAP1 SSTORE POP SWAP1 POP POP DUP1 PUSH1 0x1 PUSH0 DUP8 DUP2 MSTORE PUSH1 0x20 ADD SWAP1 DUP2 MSTORE PUSH1 0x20 ADD PUSH0 KECCAK256 PUSH1 0x4 ADD DUP2 SWAP1 SSTORE POP CALLER PUSH20 0xFFFFFFFFFFFFFFFFFFFFFFFFFFFFFFFFFFFFFFFF AND DUP2 DUP7 PUSH32 0xD45405BEBD56F938A9252239E7194222450AA11223C9C894E32007A1720A9D7E DUP8 DUP8 DUP8 PUSH1 0x40 MLOAD PUSH2 0x101B SWAP4 SWAP3 SWAP2 SWAP1 PUSH2 0x1D7A JUMP JUMPDEST PUSH1 0x40 MLOAD DUP1 SWAP2 SUB SWAP1 LOG4 POP POP POP POP POP JUMP JUMPDEST PUSH32 0x0 DUP2 JUMP JUMPDEST PUSH0 SLOAD DUP2 JUMP JUMPDEST PUSH32 0x0 DUP2 JUMP JUMPDEST PUSH2 0x107F PUSH2 0x12AD JUMP JUMPDEST PUSH1 0x1 PUSH0 DUP5 DUP2 MSTORE PUSH1 0x20 ADD SWAP1 DUP2 MSTORE PUSH1 0x20 ADD PUSH0 KECCAK256 PUSH1 0x5 ADD PUSH0 SWAP1 SLOAD SWAP1 PUSH2 0x100 EXP SWAP1 DIV PUSH1 0xFF AND PUSH2 0x10D6 JUMPI PUSH1 0x40 MLOAD PUSH32 0x3BCBB0DE00000000000000000000000000000000000000000000000000000000 DUP2 MSTORE PUSH1 0x4 ADD PUSH1 0x40 MLOAD DUP1 SWAP2 SUB SWAP1 REVERT JUMPDEST PUSH0 DUP3 EQ DUP1 PUSH2 0x10F7 JUMPI POP PUSH1 0x1 PUSH0 DUP5 DUP2 MSTORE PUSH1 0x20 ADD SWAP1 DUP2 MSTORE PUSH1 0x20 ADD PUSH0 KECCAK256 PUSH1 0x4 ADD SLOAD DUP3 GT JUMPDEST ISZERO PUSH2 0x112E JUMPI PUSH1 0x40 MLOAD PUSH32 0xA6B8AA300000000000000000000000000000000000000000000000000000000 DUP2 MSTORE PUSH1 0x4 ADD PUSH1 0x40 MLOAD DUP1 SWAP2 SUB SWAP1 REVERT JUMPDEST PUSH1 0x2 PUSH0 DUP5 DUP2 MSTORE PUSH1 0x20 ADD SWAP1 DUP2 MSTORE PUSH1 0x20 ADD PUSH0 KECCAK256 PUSH0 DUP4 DUP2 MSTORE PUSH1 0x20 ADD SWAP1 DUP2 MSTORE PUSH1 0x20 ADD PUSH0 KECCAK256 PUSH1 0x40 MLOAD DUP1 PUSH1 0xA0 ADD PUSH1 0x40 MSTORE SWAP1 DUP2 PUSH0 DUP3 ADD SLOAD DUP2 MSTORE PUSH1 0x20 ADD PUSH1 0x1 DUP3 ADD DUP1 SLOAD PUSH2 0x1172 SWAP1 PUSH2 0x1966 JUMP JUMPDEST DUP1 PUSH1 0x1F ADD PUSH1 0x20 DUP1 SWAP2 DIV MUL PUSH1 0x20 ADD PUSH1 0x40 MLOAD SWAP1 DUP2 ADD PUSH1 0x40 MSTORE DUP1 SWAP3 SWAP2 SWAP1 DUP2 DUP2 MSTORE PUSH1 0x20 ADD DUP3 DUP1 SLOAD PUSH2 0x119E SWAP1 PUSH2 0x1966 JUMP JUMPDEST DUP1 ISZERO PUSH2 0x11E9 JUMPI DUP1 PUSH1 0x1F LT PUSH2 0x11C0 JUMPI PUSH2 0x100 DUP1 DUP4 SLOAD DIV MUL DUP4 MSTORE SWAP2 PUSH1 0x20 ADD SWAP2 PUSH2 0x11E9 JUMP JUMPDEST DUP3 ADD SWAP2 SWAP1 PUSH0 MSTORE PUSH1 0x20 PUSH0 KECCAK256 SWAP1 JUMPDEST DUP2 SLOAD DUP2 MSTORE SWAP1 PUSH1 0x1 ADD SWAP1 PUSH1 0x20 ADD DUP1 DUP4 GT PUSH2 0x11CC JUMPI DUP3 SWAP1 SUB PUSH1 0x1F AND DUP3 ADD SWAP2 JUMPDEST POP POP POP POP POP DUP2 MSTORE PUSH1 0x20 ADD PUSH1 0x2 DUP3 ADD SLOAD DUP2 MSTORE PUSH1 0x20 ADD PUSH1 0x3 DUP3 ADD SLOAD DUP2 MSTORE PUSH1 0x20 ADD PUSH1 0x4 DUP3 ADD PUSH0 SWAP1 SLOAD SWAP1 PUSH2 0x100 EXP SWAP1 DIV PUSH20 0xFFFFFFFFFFFFFFFFFFFFFFFFFFFFFFFFFFFFFFFF AND PUSH20 0xFFFFFFFFFFFFFFFFFFFFFFFFFFFFFFFFFFFFFFFF AND PUSH20 0xFFFFFFFFFFFFFFFFFFFFFFFFFFFFFFFFFFFFFFFF AND DUP2 MSTORE POP POP SWAP1 POP SWAP3 SWAP2 POP POP JUMP JUMPDEST PUSH1 0x40 MLOAD DUP1 PUSH1 0xC0 ADD PUSH1 0x40 MSTORE DUP1 PUSH0 DUP2 MSTORE PUSH1 0x20 ADD PUSH1 0x60 DUP2 MSTORE PUSH1 0x20 ADD PUSH1 0x60 DUP2 MSTORE PUSH1 0x20 ADD PUSH0 PUSH20 0xFFFFFFFFFFFFFFFFFFFFFFFFFFFFFFFFFFFFFFFF AND DUP2 MSTORE PUSH1 0x20 ADD PUSH0 DUP2 MSTORE PUSH1 0x20 ADD PUSH0 ISZERO ISZERO DUP2 MSTORE POP SWAP1 JUMP JUMPDEST PUSH1 0x40 MLOAD DUP1 PUSH1 0xA0 ADD PUSH1 0x40 MSTORE DUP1 PUSH0 DUP2 MSTORE PUSH1 0x20 ADD PUSH1 0x60 DUP2 MSTORE PUSH1 0x20 ADD PUSH0 DUP2 MSTORE PUSH1 0x20 ADD PUSH0 DUP2 MSTORE PUSH1 0x20 ADD PUSH0 PUSH20 0xFFFFFFFFFFFFFFFFFFFFFFFFFFFFFFFFFFFFFFFF AND DUP2 MSTORE POP SWAP1 JUMP JUMPDEST PUSH0 PUSH1 0x40 MLOAD SWAP1 POP SWAP1 JUMP JUMPDEST PUSH0 PUSH0 REVERT JUMPDEST PUSH0 PUSH0 REVERT JUMPDEST PUSH0 PUSH20 0xFFFFFFFFFFFFFFFFFFFFFFFFFFFFFFFFFFFFFFFF DUP3 AND SWAP1 POP SWAP2 SWAP1 POP JUMP JUMPDEST PUSH0 PUSH2 0x1328 DUP3 PUSH2 0x12FF JUMP JUMPDEST SWAP1 POP SWAP2 SWAP1 POP JUMP JUMPDEST PUSH2 0x1338 DUP2 PUSH2 0x131E JUMP JUMPDEST DUP2 EQ PUSH2 0x1342 JUMPI PUSH0 PUSH0 REVERT JUMPDEST POP JUMP JUMPDEST PUSH0 DUP2 CALLDATALOAD SWAP1 POP PUSH2 0x1353 DUP2 PUSH2 0x132F JUMP JUMPDEST SWAP3 SWAP2 POP POP JUMP JUMPDEST PUSH0 PUSH1 0x20 DUP3 DUP5 SUB SLT ISZERO PUSH2 0x136E JUMPI PUSH2 0x136D PUSH2 0x12F7 JUMP JUMPDEST JUMPDEST PUSH0 PUSH2 0x137B DUP5 DUP3 DUP6 ADD PUSH2 0x1345 JUMP JUMPDEST SWAP2 POP POP SWAP3 SWAP2 POP POP JUMP JUMPDEST PUSH0 DUP2 ISZERO ISZERO SWAP1 POP SWAP2 SWAP1 POP JUMP JUMPDEST PUSH2 0x1398 DUP2 PUSH2 0x1384 JUMP JUMPDEST DUP3 MSTORE POP POP JUMP JUMPDEST PUSH0 PUSH1 0x20 DUP3 ADD SWAP1 POP PUSH2 0x13B1 PUSH0 DUP4 ADD DUP5 PUSH2 0x138F JUMP JUMPDEST SWAP3 SWAP2 POP POP JUMP JUMPDEST PUSH0 PUSH0 REVERT JUMPDEST PUSH0 PUSH0 REVERT JUMPDEST PUSH0 PUSH1 0x1F NOT PUSH1 0x1F DUP4 ADD AND SWAP1 POP SWAP2 SWAP1 POP JUMP JUMPDEST PUSH32 0x4E487B7100000000000000000000000000000000000000000000000000000000 PUSH0 MSTORE PUSH1 0x41 PUSH1 0x4 MSTORE PUSH1 0x24 PUSH0 REVERT JUMPDEST PUSH2 0x1405 DUP3 PUSH2 0x13BF JUMP JUMPDEST DUP2 ADD DUP2 DUP2 LT PUSH8 0xFFFFFFFFFFFFFFFF DUP3 GT OR ISZERO PUSH2 0x1424 JUMPI PUSH2 0x1423 PUSH2 0x13CF JUMP JUMPDEST JUMPDEST DUP1 PUSH1 0x40 MSTORE POP POP POP JUMP JUMPDEST PUSH0 PUSH2 0x1436 PUSH2 0x12EE JUMP JUMPDEST SWAP1 POP PUSH2 0x1442 DUP3 DUP3 PUSH2 0x13FC JUMP JUMPDEST SWAP2 SWAP1 POP JUMP JUMPDEST PUSH0 PUSH8 0xFFFFFFFFFFFFFFFF DUP3 GT ISZERO PUSH2 0x1461 JUMPI PUSH2 0x1460 PUSH2 0x13CF JUMP JUMPDEST JUMPDEST PUSH2 0x146A DUP3 PUSH2 0x13BF JUMP JUMPDEST SWAP1 POP PUSH1 0x20 DUP2 ADD SWAP1 POP SWAP2 SWAP1 POP JUMP JUMPDEST DUP3 DUP2 DUP4 CALLDATACOPY PUSH0 DUP4 DUP4 ADD MSTORE POP POP POP JUMP JUMPDEST PUSH0 PUSH2 0x1497 PUSH2 0x1492 DUP5 PUSH2 0x1447 JUMP JUMPDEST PUSH2 0x142D JUMP JUMPDEST SWAP1 POP DUP3 DUP2 MSTORE PUSH1 0x20 DUP2 ADD DUP5 DUP5 DUP5 ADD GT ISZERO PUSH2 0x14B3 JUMPI PUSH2 0x14B2 PUSH2 0x13BB JUMP JUMPDEST JUMPDEST PUSH2 0x14BE DUP5 DUP3 DUP6 PUSH2 0x1477 JUMP JUMPDEST POP SWAP4 SWAP3 POP POP POP JUMP JUMPDEST PUSH0 DUP3 PUSH1 0x1F DUP4 ADD SLT PUSH2 0x14DA JUMPI PUSH2 0x14D9 PUSH2 0x13B7 JUMP JUMPDEST JUMPDEST DUP2 CALLDATALOAD PUSH2 0x14EA DUP5 DUP3 PUSH1 0x20 DUP7 ADD PUSH2 0x1485 JUMP JUMPDEST SWAP2 POP POP SWAP3 SWAP2 POP POP JUMP JUMPDEST PUSH0 DUP2 SWAP1 POP SWAP2 SWAP1 POP JUMP JUMPDEST PUSH2 0x1505 DUP2 PUSH2 0x14F3 JUMP JUMPDEST DUP2 EQ PUSH2 0x150F JUMPI PUSH0 PUSH0 REVERT JUMPDEST POP JUMP JUMPDEST PUSH0 DUP2 CALLDATALOAD SWAP1 POP PUSH2 0x1520 DUP2 PUSH2 0x14FC JUMP JUMPDEST SWAP3 SWAP2 POP POP JUMP JUMPDEST PUSH0 DUP2 SWAP1 POP SWAP2 SWAP1 POP JUMP JUMPDEST PUSH2 0x1538 DUP2 PUSH2 0x1526 JUMP JUMPDEST DUP2 EQ PUSH2 0x1542 JUMPI PUSH0 PUSH0 REVERT JUMPDEST POP JUMP JUMPDEST PUSH0 DUP2 CALLDATALOAD SWAP1 POP PUSH2 0x1553 DUP2 PUSH2 0x152F JUMP JUMPDEST SWAP3 SWAP2 POP POP JUMP JUMPDEST PUSH0 PUSH0 PUSH0 PUSH0 PUSH0 PUSH1 0xA0 DUP7 DUP9 SUB SLT ISZERO PUSH2 0x1572 JUMPI PUSH2 0x1571 PUSH2 0x12F7 JUMP JUMPDEST JUMPDEST PUSH0 DUP7 ADD CALLDATALOAD PUSH8 0xFFFFFFFFFFFFFFFF DUP2 GT ISZERO PUSH2 0x158F JUMPI PUSH2 0x158E PUSH2 0x12FB JUMP JUMPDEST JUMPDEST PUSH2 0x159B DUP9 DUP3 DUP10 ADD PUSH2 0x14C6 JUMP JUMPDEST SWAP6 POP POP PUSH1 0x20 DUP7 ADD CALLDATALOAD PUSH8 0xFFFFFFFFFFFFFFFF DUP2 GT ISZERO PUSH2 0x15BC JUMPI PUSH2 0x15BB PUSH2 0x12FB JUMP JUMPDEST JUMPDEST PUSH2 0x15C8 DUP9 DUP3 DUP10 ADD PUSH2 0x14C6 JUMP JUMPDEST SWAP5 POP POP PUSH1 0x40 PUSH2 0x15D9 DUP9 DUP3 DUP10 ADD PUSH2 0x1512 JUMP JUMPDEST SWAP4 POP POP PUSH1 0x60 PUSH2 0x15EA DUP9 DUP3 DUP10 ADD PUSH2 0x1545 JUMP JUMPDEST SWAP3 POP POP PUSH1 0x80 DUP7 ADD CALLDATALOAD PUSH8 0xFFFFFFFFFFFFFFFF DUP2 GT ISZERO PUSH2 0x160B JUMPI PUSH2 0x160A PUSH2 0x12FB JUMP JUMPDEST JUMPDEST PUSH2 0x1617 DUP9 DUP3 DUP10 ADD PUSH2 0x14C6 JUMP JUMPDEST SWAP2 POP POP SWAP3 SWAP6 POP SWAP3 SWAP6 SWAP1 SWAP4 POP JUMP JUMPDEST PUSH0 PUSH1 0x20 DUP3 DUP5 SUB SLT ISZERO PUSH2 0x1639 JUMPI PUSH2 0x1638 PUSH2 0x12F7 JUMP JUMPDEST JUMPDEST PUSH0 PUSH2 0x1646 DUP5 DUP3 DUP6 ADD PUSH2 0x1512 JUMP JUMPDEST SWAP2 POP POP SWAP3 SWAP2 POP POP JUMP JUMPDEST PUSH2 0x1658 DUP2 PUSH2 0x14F3 JUMP JUMPDEST DUP3 MSTORE POP POP JUMP JUMPDEST PUSH0 DUP2 MLOAD SWAP1 POP SWAP2 SWAP1 POP JUMP JUMPDEST PUSH0 DUP3 DUP3 MSTORE PUSH1 0x20 DUP3 ADD SWAP1 POP SWAP3 SWAP2 POP POP JUMP JUMPDEST DUP3 DUP2 DUP4 MCOPY PUSH0 DUP4 DUP4 ADD MSTORE POP POP POP JUMP JUMPDEST PUSH0 PUSH2 0x1690 DUP3 PUSH2 0x165E JUMP JUMPDEST PUSH2 0x169A DUP2 DUP6 PUSH2 0x1668 JUMP JUMPDEST SWAP4 POP PUSH2 0x16AA DUP2 DUP6 PUSH1 0x20 DUP7 ADD PUSH2 0x1678 JUMP JUMPDEST PUSH2 0x16B3 DUP2 PUSH2 0x13BF JUMP JUMPDEST DUP5 ADD SWAP2 POP POP SWAP3 SWAP2 POP POP JUMP JUMPDEST PUSH2 0x16C7 DUP2 PUSH2 0x131E JUMP JUMPDEST DUP3 MSTORE POP POP JUMP JUMPDEST PUSH2 0x16D6 DUP2 PUSH2 0x1384 JUMP JUMPDEST DUP3 MSTORE POP POP JUMP JUMPDEST PUSH0 PUSH1 0xC0 DUP4 ADD PUSH0 DUP4 ADD MLOAD PUSH2 0x16F1 PUSH0 DUP7 ADD DUP3 PUSH2 0x164F JUMP JUMPDEST POP PUSH1 0x20 DUP4 ADD MLOAD DUP5 DUP3 SUB PUSH1 0x20 DUP7 ADD MSTORE PUSH2 0x1709 DUP3 DUP3 PUSH2 0x1686 JUMP JUMPDEST SWAP2 POP POP PUSH1 0x40 DUP4 ADD MLOAD DUP5 DUP3 SUB PUSH1 0x40 DUP7 ADD MSTORE PUSH2 0x1723 DUP3 DUP3 PUSH2 0x1686 JUMP JUMPDEST SWAP2 POP POP PUSH1 0x60 DUP4 ADD MLOAD PUSH2 0x1738 PUSH1 0x60 DUP7 ADD DUP3 PUSH2 0x16BE JUMP JUMPDEST POP PUSH1 0x80 DUP4 ADD MLOAD PUSH2 0x174B PUSH1 0x80 DUP7 ADD DUP3 PUSH2 0x164F JUMP JUMPDEST POP PUSH1 0xA0 DUP4 ADD MLOAD PUSH2 0x175E PUSH1 0xA0 DUP7 ADD DUP3 PUSH2 0x16CD JUMP JUMPDEST POP DUP1 SWAP2 POP POP SWAP3 SWAP2 POP POP JUMP JUMPDEST PUSH0 PUSH1 0x20 DUP3 ADD SWAP1 POP DUP2 DUP2 SUB PUSH0 DUP4 ADD MSTORE PUSH2 0x1781 DUP2 DUP5 PUSH2 0x16DC JUMP JUMPDEST SWAP1 POP SWAP3 SWAP2 POP POP JUMP JUMPDEST PUSH0 PUSH0 PUSH0 PUSH0 PUSH1 0x80 DUP6 DUP8 SUB SLT ISZERO PUSH2 0x17A1 JUMPI PUSH2 0x17A0 PUSH2 0x12F7 JUMP JUMPDEST JUMPDEST PUSH0 PUSH2 0x17AE DUP8 DUP3 DUP9 ADD PUSH2 0x1512 JUMP JUMPDEST SWAP5 POP POP PUSH1 0x20 PUSH2 0x17BF DUP8 DUP3 DUP9 ADD PUSH2 0x1512 JUMP JUMPDEST SWAP4 POP POP PUSH1 0x40 PUSH2 0x17D0 DUP8 DUP3 DUP9 ADD PUSH2 0x1545 JUMP JUMPDEST SWAP3 POP POP PUSH1 0x60 DUP6 ADD CALLDATALOAD PUSH8 0xFFFFFFFFFFFFFFFF DUP2 GT ISZERO PUSH2 0x17F1 JUMPI PUSH2 0x17F0 PUSH2 0x12FB JUMP JUMPDEST JUMPDEST PUSH2 0x17FD DUP8 DUP3 DUP9 ADD PUSH2 0x14C6 JUMP JUMPDEST SWAP2 POP POP SWAP3 SWAP6 SWAP2 SWAP5 POP SWAP3 POP JUMP JUMPDEST PUSH2 0x1812 DUP2 PUSH2 0x131E JUMP JUMPDEST DUP3 MSTORE POP POP JUMP JUMPDEST PUSH0 PUSH1 0x20 DUP3 ADD SWAP1 POP PUSH2 0x182B PUSH0 DUP4 ADD DUP5 PUSH2 0x1809 JUMP JUMPDEST SWAP3 SWAP2 POP POP JUMP JUMPDEST PUSH2 0x183A DUP2 PUSH2 0x14F3 JUMP JUMPDEST DUP3 MSTORE POP POP JUMP JUMPDEST PUSH0 PUSH1 0x20 DUP3 ADD SWAP1 POP PUSH2 0x1853 PUSH0 DUP4 ADD DUP5 PUSH2 0x1831 JUMP JUMPDEST SWAP3 SWAP2 POP POP JUMP JUMPDEST PUSH0 PUSH0 PUSH1 0x40 DUP4 DUP6 SUB SLT ISZERO PUSH2 0x186F JUMPI PUSH2 0x186E PUSH2 0x12F7 JUMP JUMPDEST JUMPDEST PUSH0 PUSH2 0x187C DUP6 DUP3 DUP7 ADD PUSH2 0x1512 JUMP JUMPDEST SWAP3 POP POP PUSH1 0x20 PUSH2 0x188D DUP6 DUP3 DUP7 ADD PUSH2 0x1512 JUMP JUMPDEST SWAP2 POP POP SWAP3 POP SWAP3 SWAP1 POP JUMP JUMPDEST PUSH2 0x18A0 DUP2 PUSH2 0x1526 JUMP JUMPDEST DUP3 MSTORE POP POP JUMP JUMPDEST PUSH0 PUSH1 0xA0 DUP4 ADD PUSH0 DUP4 ADD MLOAD PUSH2 0x18BB PUSH0 DUP7 ADD DUP3 PUSH2 0x1897 JUMP JUMPDEST POP PUSH1 0x20 DUP4 ADD MLOAD DUP5 DUP3 SUB PUSH1 0x20 DUP7 ADD MSTORE PUSH2 0x18D3 DUP3 DUP3 PUSH2 0x1686 JUMP JUMPDEST SWAP2 POP POP PUSH1 0x40 DUP4 ADD MLOAD PUSH2 0x18E8 PUSH1 0x40 DUP7 ADD DUP3 PUSH2 0x164F JUMP JUMPDEST POP PUSH1 0x60 DUP4 ADD MLOAD PUSH2 0x18FB PUSH1 0x60 DUP7 ADD DUP3 PUSH2 0x164F JUMP JUMPDEST POP PUSH1 0x80 DUP4 ADD MLOAD PUSH2 0x190E PUSH1 0x80 DUP7 ADD DUP3 PUSH2 0x16BE JUMP JUMPDEST POP DUP1 SWAP2 POP POP SWAP3 SWAP2 POP POP JUMP JUMPDEST PUSH0 PUSH1 0x20 DUP3 ADD SWAP1 POP DUP2 DUP2 SUB PUSH0 DUP4 ADD MSTORE PUSH2 0x1931 DUP2 DUP5 PUSH2 0x18A6 JUMP JUMPDEST SWAP1 POP SWAP3 SWAP2 POP POP JUMP JUMPDEST PUSH32 0x4E487B7100000000000000000000000000000000000000000000000000000000 PUSH0 MSTORE PUSH1 0x22 PUSH1 0x4 MSTORE PUSH1 0x24 PUSH0 REVERT JUMPDEST PUSH0 PUSH1 0x2 DUP3 DIV SWAP1 POP PUSH1 0x1 DUP3 AND DUP1 PUSH2 0x197D JUMPI PUSH1 0x7F DUP3 AND SWAP2 POP JUMPDEST PUSH1 0x20 DUP3 LT DUP2 SUB PUSH2 0x1990 JUMPI PUSH2 0x198F PUSH2 0x1939 JUMP JUMPDEST JUMPDEST POP SWAP2 SWAP1 POP JUMP JUMPDEST PUSH0 DUP2 SWAP1 POP DUP2 PUSH0 MSTORE PUSH1 0x20 PUSH0 KECCAK256 SWAP1 POP SWAP2 SWAP1 POP JUMP JUMPDEST PUSH0 PUSH1 0x20 PUSH1 0x1F DUP4 ADD DIV SWAP1 POP SWAP2 SWAP1 POP JUMP JUMPDEST PUSH0 DUP3 DUP3 SHL SWAP1 POP SWAP3 SWAP2 POP POP JUMP JUMPDEST PUSH0 PUSH1 0x8 DUP4 MUL PUSH2 0x19F2 PUSH32 0xFFFFFFFFFFFFFFFFFFFFFFFFFFFFFFFFFFFFFFFFFFFFFFFFFFFFFFFFFFFFFFFF DUP3 PUSH2 0x19B7 JUMP JUMPDEST PUSH2 0x19FC DUP7 DUP4 PUSH2 0x19B7 JUMP JUMPDEST SWAP6 POP DUP1 NOT DUP5 AND SWAP4 POP DUP1 DUP7 AND DUP5 OR SWAP3 POP POP POP SWAP4 SWAP3 POP POP POP JUMP JUMPDEST PUSH0 DUP2 SWAP1 POP SWAP2 SWAP1 POP JUMP JUMPDEST PUSH0 PUSH2 0x1A37 PUSH2 0x1A32 PUSH2 0x1A2D DUP5 PUSH2 0x14F3 JUMP JUMPDEST PUSH2 0x1A14 JUMP JUMPDEST PUSH2 0x14F3 JUMP JUMPDEST SWAP1 POP SWAP2 SWAP1 POP JUMP JUMPDEST PUSH0 DUP2 SWAP1 POP SWAP2 SWAP1 POP JUMP JUMPDEST PUSH2 0x1A50 DUP4 PUSH2 0x1A1D JUMP JUMPDEST PUSH2 0x1A64 PUSH2 0x1A5C DUP3 PUSH2 0x1A3E JUMP JUMPDEST DUP5 DUP5 SLOAD PUSH2 0x19C3 JUMP JUMPDEST DUP3 SSTORE POP POP POP POP JUMP JUMPDEST PUSH0 PUSH0 SWAP1 POP SWAP1 JUMP JUMPDEST PUSH2 0x1A7B PUSH2 0x1A6C JUMP JUMPDEST PUSH2 0x1A86 DUP2 DUP5 DUP5 PUSH2 0x1A47 JUMP JUMPDEST POP POP POP JUMP JUMPDEST PUSH0 JUMPDEST DUP3 DUP2 LT ISZERO PUSH2 0x1AAC JUMPI PUSH2 0x1AA1 PUSH0 DUP3 DUP5 ADD PUSH2 0x1A73 JUMP JUMPDEST PUSH1 0x1 DUP2 ADD SWAP1 POP PUSH2 0x1A8D JUMP JUMPDEST POP POP POP JUMP JUMPDEST PUSH1 0x1F DUP3 GT ISZERO PUSH2 0x1AFF JUMPI DUP3 DUP3 GT ISZERO PUSH2 0x1AFE JUMPI PUSH2 0x1ACB DUP2 PUSH2 0x1996 JUMP JUMPDEST PUSH2 0x1AD4 DUP4 PUSH2 0x19A8 JUMP JUMPDEST PUSH2 0x1ADD DUP6 PUSH2 0x19A8 JUMP JUMPDEST PUSH1 0x20 DUP7 LT ISZERO PUSH2 0x1AEA JUMPI PUSH0 SWAP1 POP JUMPDEST DUP1 DUP4 ADD PUSH2 0x1AF9 DUP3 DUP5 SUB DUP3 PUSH2 0x1A8B JUMP JUMPDEST POP POP POP POP JUMPDEST JUMPDEST POP POP POP JUMP JUMPDEST PUSH0 DUP3 DUP3 SHR SWAP1 POP SWAP3 SWAP2 POP POP JUMP JUMPDEST PUSH0 PUSH2 0x1B1F PUSH0 NOT DUP5 PUSH1 0x8 MUL PUSH2 0x1B04 JUMP JUMPDEST NOT DUP1 DUP4 AND SWAP2 POP POP SWAP3 SWAP2 POP POP JUMP JUMPDEST PUSH0 PUSH2 0x1B37 DUP4 DUP4 PUSH2 0x1B10 JUMP JUMPDEST SWAP2 POP DUP3 PUSH1 0x2 MUL DUP3 OR SWAP1 POP SWAP3 SWAP2 POP POP JUMP JUMPDEST PUSH2 0x1B50 DUP3 PUSH2 0x165E JUMP JUMPDEST PUSH8 0xFFFFFFFFFFFFFFFF DUP2 GT ISZERO PUSH2 0x1B69 JUMPI PUSH2 0x1B68 PUSH2 0x13CF JUMP JUMPDEST JUMPDEST PUSH2 0x1B73 DUP3 SLOAD PUSH2 0x1966 JUMP JUMPDEST PUSH2 0x1B7E DUP3 DUP3 DUP6 PUSH2 0x1AB1 JUMP JUMPDEST PUSH0 PUSH1 0x20 SWAP1 POP PUSH1 0x1F DUP4 GT PUSH1 0x1 DUP2 EQ PUSH2 0x1BAF JUMPI PUSH0 DUP5 ISZERO PUSH2 0x1B9D JUMPI DUP3 DUP8 ADD MLOAD SWAP1 POP JUMPDEST PUSH2 0x1BA7 DUP6 DUP3 PUSH2 0x1B2C JUMP JUMPDEST DUP7 SSTORE POP PUSH2 0x1C0E JUMP JUMPDEST PUSH1 0x1F NOT DUP5 AND PUSH2 0x1BBD DUP7 PUSH2 0x1996 JUMP JUMPDEST PUSH0 JUMPDEST DUP3 DUP2 LT ISZERO PUSH2 0x1BE4 JUMPI DUP5 DUP10 ADD MLOAD DUP3 SSTORE PUSH1 0x1 DUP3 ADD SWAP2 POP PUSH1 0x20 DUP6 ADD SWAP5 POP PUSH1 0x20 DUP2 ADD SWAP1 POP PUSH2 0x1BBF JUMP JUMPDEST DUP7 DUP4 LT ISZERO PUSH2 0x1C01 JUMPI DUP5 DUP10 ADD MLOAD PUSH2 0x1BFD PUSH1 0x1F DUP10 AND DUP3 PUSH2 0x1B10 JUMP JUMPDEST DUP4 SSTORE POP JUMPDEST PUSH1 0x1 PUSH1 0x2 DUP9 MUL ADD DUP9 SSTORE POP POP POP JUMPDEST POP POP POP POP POP POP JUMP JUMPDEST PUSH32 0x4E487B7100000000000000000000000000000000000000000000000000000000 PUSH0 MSTORE PUSH1 0x11 PUSH1 0x4 MSTORE PUSH1 0x24 PUSH0 REVERT JUMPDEST PUSH0 PUSH2 0x1C4D DUP3 PUSH2 0x14F3 JUMP JUMPDEST SWAP2 POP PUSH32 0xFFFFFFFFFFFFFFFFFFFFFFFFFFFFFFFFFFFFFFFFFFFFFFFFFFFFFFFFFFFFFFFF DUP3 SUB PUSH2 0x1C7F JUMPI PUSH2 0x1C7E PUSH2 0x1C16 JUMP JUMPDEST JUMPDEST PUSH1 0x1 DUP3 ADD SWAP1 POP SWAP2 SWAP1 POP JUMP JUMPDEST PUSH0 DUP3 DUP3 MSTORE PUSH1 0x20 DUP3 ADD SWAP1 POP SWAP3 SWAP2 POP POP JUMP JUMPDEST PUSH0 PUSH2 0x1CA4 DUP3 PUSH2 0x165E JUMP JUMPDEST PUSH2 0x1CAE DUP2 DUP6 PUSH2 0x1C8A JUMP JUMPDEST SWAP4 POP PUSH2 0x1CBE DUP2 DUP6 PUSH1 0x20 DUP7 ADD PUSH2 0x1678 JUMP JUMPDEST PUSH2 0x1CC7 DUP2 PUSH2 0x13BF JUMP JUMPDEST DUP5 ADD SWAP2 POP POP SWAP3 SWAP2 POP POP JUMP JUMPDEST PUSH2 0x1CDB DUP2 PUSH2 0x1526 JUMP JUMPDEST DUP3 MSTORE POP POP JUMP JUMPDEST PUSH0 PUSH1 0xA0 DUP3 ADD SWAP1 POP DUP2 DUP2 SUB PUSH0 DUP4 ADD MSTORE PUSH2 0x1CF9 DUP2 DUP9 PUSH2 0x1C9A JUMP JUMPDEST SWAP1 POP DUP2 DUP2 SUB PUSH1 0x20 DUP4 ADD MSTORE PUSH2 0x1D0D DUP2 DUP8 PUSH2 0x1C9A JUMP JUMPDEST SWAP1 POP PUSH2 0x1D1C PUSH1 0x40 DUP4 ADD DUP7 PUSH2 0x1831 JUMP JUMPDEST PUSH2 0x1D29 PUSH1 0x60 DUP4 ADD DUP6 PUSH2 0x1CD2 JUMP JUMPDEST DUP2 DUP2 SUB PUSH1 0x80 DUP4 ADD MSTORE PUSH2 0x1D3B DUP2 DUP5 PUSH2 0x1C9A JUMP JUMPDEST SWAP1 POP SWAP7 SWAP6 POP POP POP POP POP POP JUMP JUMPDEST PUSH0 PUSH2 0x1D51 DUP3 PUSH2 0x14F3 JUMP JUMPDEST SWAP2 POP PUSH2 0x1D5C DUP4 PUSH2 0x14F3 JUMP JUMPDEST SWAP3 POP DUP3 DUP3 ADD SWAP1 POP DUP1 DUP3 GT ISZERO PUSH2 0x1D74 JUMPI PUSH2 0x1D73 PUSH2 0x1C16 JUMP JUMPDEST JUMPDEST SWAP3 SWAP2 POP POP JUMP JUMPDEST PUSH0 PUSH1 0x60 DUP3 ADD SWAP1 POP PUSH2 0x1D8D PUSH0 DUP4 ADD DUP7 PUSH2 0x1831 JUMP JUMPDEST PUSH2 0x1D9A PUSH1 0x20 DUP4 ADD DUP6 PUSH2 0x1CD2 JUMP JUMPDEST DUP2 DUP2 SUB PUSH1 0x40 DUP4 ADD MSTORE PUSH2 0x1DAC DUP2 DUP5 PUSH2 0x1C9A JUMP JUMPDEST SWAP1 POP SWAP5 SWAP4 POP POP POP POP JUMP INVALID LOG2 PUSH5 0x6970667358 0x22 SLT KECCAK256 CHAINID POP 0xAB DUP8 0xCF LT SWAP9 TLOAD 0xD8 GAS 0xC7 LOG2 0x23 EXTCODEHASH AND PUSH3 0x3D5159 0xA8 PUSH23 0x3AEB006F0AF46839D6EEA264736F6C6343000822003300 "
				},
				"gasEstimates": {
					"creation": {
						"codeDepositCost": "1532000",
						"executionCost": "infinite",
						"totalCost": "infinite"
					},
					"external": {
						"addFileVersion(uint256,uint256,bytes32,string)": "infinite",
						"authorizedUsers(address)": "2856",
						"createFile(string,string,uint256,bytes32,string)": "infinite",
						"factory()": "infinite",
						"getFile(uint256)": "infinite",
						"getFileVersion(uint256,uint256)": "infinite",
						"grantEditorAccess(address)": "infinite",
						"nextFileId()": "2468",
						"revokeEditorAccess(address)": "infinite",
						"storageOwner()": "infinite"
					}
				},
				"methodIdentifiers": {
					"addFileVersion(uint256,uint256,bytes32,string)": "4935e326",
					"authorizedUsers(address)": "1828983a",
					"createFile(string,string,uint256,bytes32,string)": "196bed7f",
					"factory()": "c45a0155",
					"getFile(uint256)": "2bfda313",
					"getFileVersion(uint256,uint256)": "cf04ff9f",
					"grantEditorAccess(address)": "04076482",
					"nextFileId()": "89b83a9b",
					"revokeEditorAccess(address)": "2822853a",
					"storageOwner()": "81fd552f"
				}
			},
			"storageLayout": {
				"storage": [
					{
						"astId": 107,
						"contract": "smart-contracts/FileIntegrityRegistry.sol:FileIntegrityRegistry",
						"label": "nextFileId",
						"offset": 0,
						"slot": "0",
						"type": "t_uint256"
					},
					{
						"astId": 112,
						"contract": "smart-contracts/FileIntegrityRegistry.sol:FileIntegrityRegistry",
						"label": "files",
						"offset": 0,
						"slot": "1",
						"type": "t_mapping(t_uint256,t_struct(File)36_storage)"
					},
					{
						"astId": 119,
						"contract": "smart-contracts/FileIntegrityRegistry.sol:FileIntegrityRegistry",
						"label": "fileVersions",
						"offset": 0,
						"slot": "2",
						"type": "t_mapping(t_uint256,t_mapping(t_uint256,t_struct(FileVersion)23_storage))"
					},
					{
						"astId": 123,
						"contract": "smart-contracts/FileIntegrityRegistry.sol:FileIntegrityRegistry",
						"label": "authorizedUsers",
						"offset": 0,
						"slot": "3",
						"type": "t_mapping(t_address,t_bool)"
					}
				],
				"types": {
					"t_address": {
						"encoding": "inplace",
						"label": "address",
						"numberOfBytes": "20"
					},
					"t_bool": {
						"encoding": "inplace",
						"label": "bool",
						"numberOfBytes": "1"
					},
					"t_bytes32": {
						"encoding": "inplace",
						"label": "bytes32",
						"numberOfBytes": "32"
					},
					"t_mapping(t_address,t_bool)": {
						"encoding": "mapping",
						"key": "t_address",
						"label": "mapping(address => bool)",
						"numberOfBytes": "32",
						"value": "t_bool"
					},
					"t_mapping(t_uint256,t_mapping(t_uint256,t_struct(FileVersion)23_storage))": {
						"encoding": "mapping",
						"key": "t_uint256",
						"label": "mapping(uint256 => mapping(uint256 => struct FileVersion))",
						"numberOfBytes": "32",
						"value": "t_mapping(t_uint256,t_struct(FileVersion)23_storage)"
					},
					"t_mapping(t_uint256,t_struct(File)36_storage)": {
						"encoding": "mapping",
						"key": "t_uint256",
						"label": "mapping(uint256 => struct File)",
						"numberOfBytes": "32",
						"value": "t_struct(File)36_storage"
					},
					"t_mapping(t_uint256,t_struct(FileVersion)23_storage)": {
						"encoding": "mapping",
						"key": "t_uint256",
						"label": "mapping(uint256 => struct FileVersion)",
						"numberOfBytes": "32",
						"value": "t_struct(FileVersion)23_storage"
					},
					"t_string_storage": {
						"encoding": "bytes",
						"label": "string",
						"numberOfBytes": "32"
					},
					"t_struct(File)36_storage": {
						"encoding": "inplace",
						"label": "struct File",
						"members": [
							{
								"astId": 25,
								"contract": "smart-contracts/FileIntegrityRegistry.sol:FileIntegrityRegistry",
								"label": "fileId",
								"offset": 0,
								"slot": "0",
								"type": "t_uint256"
							},
							{
								"astId": 27,
								"contract": "smart-contracts/FileIntegrityRegistry.sol:FileIntegrityRegistry",
								"label": "name",
								"offset": 0,
								"slot": "1",
								"type": "t_string_storage"
							},
							{
								"astId": 29,
								"contract": "smart-contracts/FileIntegrityRegistry.sol:FileIntegrityRegistry",
								"label": "description",
								"offset": 0,
								"slot": "2",
								"type": "t_string_storage"
							},
							{
								"astId": 31,
								"contract": "smart-contracts/FileIntegrityRegistry.sol:FileIntegrityRegistry",
								"label": "userAddress",
								"offset": 0,
								"slot": "3",
								"type": "t_address"
							},
							{
								"astId": 33,
								"contract": "smart-contracts/FileIntegrityRegistry.sol:FileIntegrityRegistry",
								"label": "latestVersionNumber",
								"offset": 0,
								"slot": "4",
								"type": "t_uint256"
							},
							{
								"astId": 35,
								"contract": "smart-contracts/FileIntegrityRegistry.sol:FileIntegrityRegistry",
								"label": "exists",
								"offset": 0,
								"slot": "5",
								"type": "t_bool"
							}
						],
						"numberOfBytes": "192"
					},
					"t_struct(FileVersion)23_storage": {
						"encoding": "inplace",
						"label": "struct FileVersion",
						"members": [
							{
								"astId": 14,
								"contract": "smart-contracts/FileIntegrityRegistry.sol:FileIntegrityRegistry",
								"label": "fileHash",
								"offset": 0,
								"slot": "0",
								"type": "t_bytes32"
							},
							{
								"astId": 16,
								"contract": "smart-contracts/FileIntegrityRegistry.sol:FileIntegrityRegistry",
								"label": "cid",
								"offset": 0,
								"slot": "1",
								"type": "t_string_storage"
							},
							{
								"astId": 18,
								"contract": "smart-contracts/FileIntegrityRegistry.sol:FileIntegrityRegistry",
								"label": "size",
								"offset": 0,
								"slot": "2",
								"type": "t_uint256"
							},
							{
								"astId": 20,
								"contract": "smart-contracts/FileIntegrityRegistry.sol:FileIntegrityRegistry",
								"label": "versionNumber",
								"offset": 0,
								"slot": "3",
								"type": "t_uint256"
							},
							{
								"astId": 22,
								"contract": "smart-contracts/FileIntegrityRegistry.sol:FileIntegrityRegistry",
								"label": "userAddress",
								"offset": 0,
								"slot": "4",
								"type": "t_address"
							}
						],
						"numberOfBytes": "160"
					},
					"t_uint256": {
						"encoding": "inplace",
						"label": "uint256",
						"numberOfBytes": "32"
					}
				}
			},
			"userdoc": {
				"kind": "user",
				"methods": {},
				"version": 1
			}
		}
	}
}